{"contracts/Lottery.sol":{"Lottery":{"abi":[{"inputs":[{"internalType":"address","name":"_owner","type":"address"},{"internalType":"contract Authority","name":"_authority","type":"address"},{"internalType":"address","name":"_randomizerAddress","type":"address"}],"stateMutability":"nonpayable","type":"constructor"},{"anonymous":false,"inputs":[{"indexed":true,"internalType":"address","name":"user","type":"address"},{"indexed":true,"internalType":"contract Authority","name":"newAuthority","type":"address"}],"name":"AuthorityUpdated","type":"event"},{"anonymous":false,"inputs":[{"indexed":true,"internalType":"address","name":"user","type":"address"},{"indexed":true,"internalType":"address","name":"newOwner","type":"address"}],"name":"OwnershipTransferred","type":"event"},{"anonymous":false,"inputs":[{"indexed":true,"internalType":"bytes32","name":"saleId","type":"bytes32"},{"indexed":true,"internalType":"address","name":"participant","type":"address"},{"indexed":false,"internalType":"uint256","name":"markTokenId","type":"uint256"}],"name":"Participation","type":"event"},{"anonymous":false,"inputs":[{"indexed":true,"internalType":"bytes32","name":"saleId","type":"bytes32"},{"indexed":false,"internalType":"address","name":"markToken","type":"address"},{"indexed":false,"internalType":"address","name":"rewardToken","type":"address"},{"indexed":false,"internalType":"uint256","name":"rewardTokenId","type":"uint256"},{"indexed":false,"internalType":"uint256","name":"supply","type":"uint256"},{"indexed":false,"internalType":"uint256","name":"price","type":"uint256"},{"indexed":false,"internalType":"uint256","name":"endTime","type":"uint256"}],"name":"SaleCreation","type":"event"},{"anonymous":false,"inputs":[{"indexed":true,"internalType":"bytes32","name":"saleId","type":"bytes32"},{"indexed":true,"internalType":"address","name":"participant","type":"address"}],"name":"Withdrawal","type":"event"},{"inputs":[],"name":"authority","outputs":[{"internalType":"contract Authority","name":"","type":"address"}],"stateMutability":"view","type":"function"},{"inputs":[{"internalType":"address","name":"_markToken","type":"address"},{"internalType":"address","name":"_rewardToken","type":"address"},{"internalType":"uint256","name":"_rewardTokenId","type":"uint256"},{"internalType":"uint256","name":"_supply","type":"uint256"},{"internalType":"uint256","name":"_price","type":"uint256"},{"internalType":"uint256","name":"_endTime","type":"uint256"}],"name":"createSale","outputs":[],"stateMutability":"nonpayable","type":"function"},{"inputs":[{"internalType":"bytes32","name":"saleId","type":"bytes32"}],"name":"executeRewardAirdrop","outputs":[],"stateMutability":"nonpayable","type":"function"},{"inputs":[{"internalType":"uint256","name":"amount","type":"uint256"}],"name":"fundRandomizer","outputs":[],"stateMutability":"nonpayable","type":"function"},{"inputs":[{"internalType":"bytes32","name":"saleId","type":"bytes32"}],"name":"getRandomNumber","outputs":[],"stateMutability":"nonpayable","type":"function"},{"inputs":[],"name":"owner","outputs":[{"internalType":"address","name":"","type":"address"}],"stateMutability":"view","type":"function"},{"inputs":[{"internalType":"bytes32","name":"saleId","type":"bytes32"},{"internalType":"uint256","name":"_markTokenId","type":"uint256"}],"name":"participate","outputs":[],"stateMutability":"payable","type":"function"},{"inputs":[],"name":"randomizer","outputs":[{"internalType":"contract IRandomizer","name":"","type":"address"}],"stateMutability":"view","type":"function"},{"inputs":[{"internalType":"uint256","name":"_id","type":"uint256"},{"internalType":"bytes32","name":"_value","type":"bytes32"}],"name":"randomizerCallback","outputs":[],"stateMutability":"nonpayable","type":"function"},{"inputs":[{"internalType":"uint256","name":"","type":"uint256"}],"name":"randomizerIdToSalesId","outputs":[{"internalType":"bytes32","name":"","type":"bytes32"}],"stateMutability":"view","type":"function"},{"inputs":[],"name":"reserves","outputs":[{"internalType":"uint256","name":"","type":"uint256"}],"stateMutability":"view","type":"function"},{"inputs":[{"internalType":"bytes32","name":"","type":"bytes32"}],"name":"sales","outputs":[{"internalType":"address","name":"markToken","type":"address"},{"internalType":"address","name":"rewardToken","type":"address"},{"internalType":"uint256","name":"rewardTokenId","type":"uint256"},{"internalType":"uint256","name":"supply","type":"uint256"},{"internalType":"uint256","name":"price","type":"uint256"},{"internalType":"uint256","name":"endTime","type":"uint256"},{"internalType":"uint256","name":"randomizerId","type":"uint256"}],"stateMutability":"view","type":"function"},{"inputs":[{"internalType":"contract Authority","name":"newAuthority","type":"address"}],"name":"setAuthority","outputs":[],"stateMutability":"nonpayable","type":"function"},{"inputs":[{"internalType":"uint256","name":"amount","type":"uint256"}],"name":"sweep","outputs":[],"stateMutability":"nonpayable","type":"function"},{"inputs":[{"internalType":"address","name":"newOwner","type":"address"}],"name":"transferOwnership","outputs":[],"stateMutability":"nonpayable","type":"function"},{"inputs":[{"internalType":"bytes32","name":"saleId","type":"bytes32"},{"internalType":"address","name":"participant","type":"address"}],"name":"withdraw","outputs":[],"stateMutability":"nonpayable","type":"function"},{"inputs":[{"internalType":"bytes32","name":"saleId","type":"bytes32"},{"internalType":"address","name":"participant","type":"address"}],"name":"withdrawOnFailedSale","outputs":[],"stateMutability":"nonpayable","type":"function"},{"inputs":[{"internalType":"uint256","name":"amount","type":"uint256"}],"name":"withdrawRandomizer","outputs":[],"stateMutability":"nonpayable","type":"function"}],"evm":{"bytecode":{"linkReferences":{},"object":"608060405260016002553480156200001657600080fd5b5060405162003d6d38038062003d6d83398181016040528101906200003c91906200027c565b8282828282816000806101000a81548173ffffffffffffffffffffffffffffffffffffffff021916908373ffffffffffffffffffffffffffffffffffffffff16021790555080600160006101000a81548173ffffffffffffffffffffffffffffffffffffffff021916908373ffffffffffffffffffffffffffffffffffffffff1602179055508173ffffffffffffffffffffffffffffffffffffffff163373ffffffffffffffffffffffffffffffffffffffff167f8be0079c531659141344cd1fd0a4f28419497f9722a3daafe3b4186f6b6457e060405160405180910390a38073ffffffffffffffffffffffffffffffffffffffff163373ffffffffffffffffffffffffffffffffffffffff167fa3396fd7f6e0a21b50e5089d2da70d5ac0a3bbbd1f617a93f134b7638998019860405160405180910390a3505080600460006101000a81548173ffffffffffffffffffffffffffffffffffffffff021916908373ffffffffffffffffffffffffffffffffffffffff1602179055506000600381905550505050505050620002d8565b600080fd5b600073ffffffffffffffffffffffffffffffffffffffff82169050919050565b6000620001ff82620001d2565b9050919050565b6200021181620001f2565b81146200021d57600080fd5b50565b600081519050620002318162000206565b92915050565b60006200024482620001f2565b9050919050565b620002568162000237565b81146200026257600080fd5b50565b60008151905062000276816200024b565b92915050565b600080600060608486031215620002985762000297620001cd565b5b6000620002a88682870162000220565b9350506020620002bb8682870162000265565b9250506040620002ce8682870162000220565b9150509250925092565b613a8580620002e86000396000f3fe6080604052600436106101095760003560e01c8063aa60e73311610095578063dcfc472611610064578063dcfc472614610357578063ebe93caf14610373578063f10fb5841461039c578063f2fde38b146103c7578063f83038cc146103f057610109565b8063aa60e733146102b1578063bf7e214f146102da578063c03634ff14610305578063cb923ccd1461032e57610109565b80634846ed9a116100dc5780634846ed9a146101e057806375172a8b146102095780637a9e5e4b1461023457806389e412f51461025d5780638da5cb5b1461028657610109565b80630c2afd721461010e5780631b258d50146101515780632694c90e1461017a578063399cc9e2146101a3575b600080fd5b34801561011a57600080fd5b506101356004803603810190610130919061255e565b610419565b60405161014897969594939291906125e5565b60405180910390f35b34801561015d57600080fd5b5061017860048036038101906101739190612680565b61049b565b005b34801561018657600080fd5b506101a1600480360381019061019c91906126ec565b610970565b005b3480156101af57600080fd5b506101ca60048036038101906101c59190612779565b610beb565b6040516101d791906127b5565b60405180910390f35b3480156101ec57600080fd5b5061020760048036038101906102029190612779565b610c03565b005b34801561021557600080fd5b5061021e610db3565b60405161022b91906127d0565b60405180910390f35b34801561024057600080fd5b5061025b60048036038101906102569190612829565b610db9565b005b34801561026957600080fd5b50610284600480360381019061027f919061255e565b610f7a565b005b34801561029257600080fd5b5061029b61122d565b6040516102a89190612856565b60405180910390f35b3480156102bd57600080fd5b506102d860048036038101906102d39190612779565b611251565b005b3480156102e657600080fd5b506102ef6113ed565b6040516102fc91906128d0565b60405180910390f35b34801561031157600080fd5b5061032c60048036038101906103279190612779565b611413565b005b34801561033a57600080fd5b506103556004803603810190610350919061255e565b61157f565b005b610371600480360381019061036c91906128eb565b611787565b005b34801561037f57600080fd5b5061039a6004803603810190610395919061292b565b611baf565b005b3480156103a857600080fd5b506103b1611f6e565b6040516103be919061298c565b60405180910390f35b3480156103d357600080fd5b506103ee60048036038101906103e991906129a7565b611f94565b005b3480156103fc57600080fd5b5061041760048036038101906104129190612680565b61209e565b005b60056020528060005260406000206000915090508060000160009054906101000a900473ffffffffffffffffffffffffffffffffffffffff16908060010160009054906101000a900473ffffffffffffffffffffffffffffffffffffffff16908060020154908060030154908060040154908060050154908060090154905087565b6001600254146104e0576040517f08c379a00000000000000000000000000000000000000000000000000000000081526004016104d790612a31565b60405180910390fd5b600280819055506000600560008481526020019081526020016000209050600081600a018054905011610548576040517f08c379a000000000000000000000000000000000000000000000000000000000815260040161053f90612a9d565b60405180910390fd5b80600b0160008373ffffffffffffffffffffffffffffffffffffffff1673ffffffffffffffffffffffffffffffffffffffff16815260200190815260200160002060009054906101000a900460ff16156105d7576040517f08c379a00000000000000000000000000000000000000000000000000000000081526004016105ce90612b09565b60405180910390fd5b8060070160008373ffffffffffffffffffffffffffffffffffffffff1673ffffffffffffffffffffffffffffffffffffffff16815260200190815260200160002060009054906101000a900460ff16610665576040517f08c379a000000000000000000000000000000000000000000000000000000000815260040161065c90612b75565b60405180910390fd5b60005b8160030154811015610837578273ffffffffffffffffffffffffffffffffffffffff1682600a0182815481106106a1576106a0612b95565b5b9060005260206000200160009054906101000a900473ffffffffffffffffffffffffffffffffffffffff1673ffffffffffffffffffffffffffffffffffffffff160361082457600182600b0160008573ffffffffffffffffffffffffffffffffffffffff1673ffffffffffffffffffffffffffffffffffffffff16815260200190815260200160002060006101000a81548160ff0219169083151502179055508273ffffffffffffffffffffffffffffffffffffffff16847f6653a45d3871e4110fa55dac0269f9f93a6d9078d402f7153594e50573d7f0cd60405160405180910390a38160010160009054906101000a900473ffffffffffffffffffffffffffffffffffffffff1673ffffffffffffffffffffffffffffffffffffffff1663731133e984846002015460016040518463ffffffff1660e01b81526004016107eb93929190612c36565b600060405180830381600087803b15801561080557600080fd5b505af1158015610819573d6000803e3d6000fd5b505050505050610964565b808061082f90612caf565b915050610668565b5060008160040154111561096257600181600b0160008473ffffffffffffffffffffffffffffffffffffffff1673ffffffffffffffffffffffffffffffffffffffff16815260200190815260200160002060006101000a81548160ff0219169083151502179055508173ffffffffffffffffffffffffffffffffffffffff16837f6653a45d3871e4110fa55dac0269f9f93a6d9078d402f7153594e50573d7f0cd60405160405180910390a360008273ffffffffffffffffffffffffffffffffffffffff166108fc83600401549081150290604051600060405180830381858888f19350505050905080610960576040517f08c379a000000000000000000000000000000000000000000000000000000000815260040161095790612d43565b60405180910390fd5b505b505b60016002819055505050565b61099e336000357fffffffff00000000000000000000000000000000000000000000000000000000166123e5565b6109dd576040517f08c379a00000000000000000000000000000000000000000000000000000000081526004016109d490612daf565b60405180910390fd5b60008311610a20576040517f08c379a0000000000000000000000000000000000000000000000000000000008152600401610a1790612e41565b60405180910390fd5b428111610a62576040517f08c379a0000000000000000000000000000000000000000000000000000000008152600401610a5990612ed3565b60405180910390fd5b6000868686868686604051602001610a7f96959493929190612f5c565b60405160208183030381529060405280519060200120905060006005600083815260200190815260200160002090506000816005015414610af5576040517f08c379a0000000000000000000000000000000000000000000000000000000008152600401610aec90613018565b60405180910390fd5b878160000160006101000a81548173ffffffffffffffffffffffffffffffffffffffff021916908373ffffffffffffffffffffffffffffffffffffffff160217905550868160010160006101000a81548173ffffffffffffffffffffffffffffffffffffffff021916908373ffffffffffffffffffffffffffffffffffffffff160217905550858160020181905550848160030181905550838160040181905550828160050181905550817fd1d63ca2d9652ed1270a8d496cc69d3fe3515f37f20ac4fcee0ed185e8bf8727898989898989604051610bd996959493929190613038565b60405180910390a25050505050505050565b60066020528060005260406000206000915090505481565b610c31336000357fffffffff00000000000000000000000000000000000000000000000000000000166123e5565b610c70576040517f08c379a0000000000000000000000000000000000000000000000000000000008152600401610c6790612daf565b60405180910390fd5b600160025414610cb5576040517f08c379a0000000000000000000000000000000000000000000000000000000008152600401610cac90612a31565b60405180910390fd5b60028081905550806003541015610d01576040517f08c379a0000000000000000000000000000000000000000000000000000000008152600401610cf8906130e5565b60405180910390fd5b8060036000828254610d139190613105565b92505081905550600460009054906101000a900473ffffffffffffffffffffffffffffffffffffffff1673ffffffffffffffffffffffffffffffffffffffff16634ffd2e4382306040518363ffffffff1660e01b8152600401610d769190612856565b6000604051808303818588803b158015610d8f57600080fd5b505af1158015610da3573d6000803e3d6000fd5b5050505050600160028190555050565b60035481565b60008054906101000a900473ffffffffffffffffffffffffffffffffffffffff1673ffffffffffffffffffffffffffffffffffffffff163373ffffffffffffffffffffffffffffffffffffffff161480610ed35750600160009054906101000a900473ffffffffffffffffffffffffffffffffffffffff1673ffffffffffffffffffffffffffffffffffffffff1663b700961333306000357fffffffff00000000000000000000000000000000000000000000000000000000166040518463ffffffff1660e01b8152600401610e9193929190613174565b602060405180830381865afa158015610eae573d6000803e3d6000fd5b505050506040513d601f19601f82011682018060405250810190610ed291906131e3565b5b610edc57600080fd5b80600160006101000a81548173ffffffffffffffffffffffffffffffffffffffff021916908373ffffffffffffffffffffffffffffffffffffffff1602179055508073ffffffffffffffffffffffffffffffffffffffff163373ffffffffffffffffffffffffffffffffffffffff167fa3396fd7f6e0a21b50e5089d2da70d5ac0a3bbbd1f617a93f134b7638998019860405160405180910390a350565b600160025414610fbf576040517f08c379a0000000000000000000000000000000000000000000000000000000008152600401610fb690612a31565b60405180910390fd5b600280819055506000600560008381526020019081526020016000209050600081600a018054905011611027576040517f08c379a000000000000000000000000000000000000000000000000000000000815260040161101e90612a9d565b60405180910390fd5b60005b816003015481101561122057600082600a01828154811061104e5761104d612b95565b5b9060005260206000200160009054906101000a900473ffffffffffffffffffffffffffffffffffffffff16905082600b0160008273ffffffffffffffffffffffffffffffffffffffff1673ffffffffffffffffffffffffffffffffffffffff16815260200190815260200160002060009054906101000a900460ff16156110d5575061120d565b600183600b0160008373ffffffffffffffffffffffffffffffffffffffff1673ffffffffffffffffffffffffffffffffffffffff16815260200190815260200160002060006101000a81548160ff0219169083151502179055508073ffffffffffffffffffffffffffffffffffffffff16847f6653a45d3871e4110fa55dac0269f9f93a6d9078d402f7153594e50573d7f0cd60405160405180910390a38260010160009054906101000a900473ffffffffffffffffffffffffffffffffffffffff1673ffffffffffffffffffffffffffffffffffffffff1663731133e982856002015460016040518463ffffffff1660e01b81526004016111d993929190612c36565b600060405180830381600087803b1580156111f357600080fd5b505af1158015611207573d6000803e3d6000fd5b50505050505b808061121890612caf565b91505061102a565b5050600160028190555050565b60008054906101000a900473ffffffffffffffffffffffffffffffffffffffff1681565b61127f336000357fffffffff00000000000000000000000000000000000000000000000000000000166123e5565b6112be576040517f08c379a00000000000000000000000000000000000000000000000000000000081526004016112b590612daf565b60405180910390fd5b600160025414611303576040517f08c379a00000000000000000000000000000000000000000000000000000000081526004016112fa90612a31565b60405180910390fd5b6002808190555080600354101561134f576040517f08c379a0000000000000000000000000000000000000000000000000000000008152600401611346906130e5565b60405180910390fd5b80600360008282546113619190613105565b9250508190555060003373ffffffffffffffffffffffffffffffffffffffff166108fc839081150290604051600060405180830381858888f193505050509050806113e1576040517f08c379a00000000000000000000000000000000000000000000000000000000081526004016113d89061325c565b60405180910390fd5b50600160028190555050565b600160009054906101000a900473ffffffffffffffffffffffffffffffffffffffff1681565b611441336000357fffffffff00000000000000000000000000000000000000000000000000000000166123e5565b611480576040517f08c379a000000000000000000000000000000000000000000000000000000000815260040161147790612daf565b60405180910390fd5b6001600254146114c5576040517f08c379a00000000000000000000000000000000000000000000000000000000081526004016114bc90612a31565b60405180910390fd5b6002808190555080600360008282546114de919061327c565b92505081905550600460009054906101000a900473ffffffffffffffffffffffffffffffffffffffff1673ffffffffffffffffffffffffffffffffffffffff16632465f8f530836040518363ffffffff1660e01b81526004016115429291906132b0565b600060405180830381600087803b15801561155c57600080fd5b505af1158015611570573d6000803e3d6000fd5b50505050600160028190555050565b6001600254146115c4576040517f08c379a00000000000000000000000000000000000000000000000000000000081526004016115bb90612a31565b60405180910390fd5b6002808190555060006005600083815260200190815260200160002090506000816005015403611629576040517f08c379a000000000000000000000000000000000000000000000000000000000815260040161162090613325565b60405180910390fd5b8060050154421015611670576040517f08c379a000000000000000000000000000000000000000000000000000000000815260040161166790613391565b60405180910390fd5b60008160090154146116b7576040517f08c379a00000000000000000000000000000000000000000000000000000000081526004016116ae906133fd565b60405180910390fd5b600460009054906101000a900473ffffffffffffffffffffffffffffffffffffffff1673ffffffffffffffffffffffffffffffffffffffff1663d845a4b361c3506040518263ffffffff1660e01b81526004016117149190613458565b6020604051808303816000875af1158015611733573d6000803e3d6000fd5b505050506040513d601f19601f820116820180604052508101906117579190613488565b81600901819055508160066000836009015481526020019081526020016000208190555050600160028190555050565b600060056000848152602001908152602001600020905060008160050154036117e5576040517f08c379a00000000000000000000000000000000000000000000000000000000081526004016117dc90613325565b60405180910390fd5b8060050154421061182b576040517f08c379a000000000000000000000000000000000000000000000000000000000815260040161182290613501565b60405180910390fd5b34816004015414611871576040517f08c379a0000000000000000000000000000000000000000000000000000000008152600401611868906135b9565b60405180910390fd5b8060070160003373ffffffffffffffffffffffffffffffffffffffff1673ffffffffffffffffffffffffffffffffffffffff16815260200190815260200160002060009054906101000a900460ff1615611900576040517f08c379a00000000000000000000000000000000000000000000000000000000081526004016118f79061364b565b60405180910390fd5b3373ffffffffffffffffffffffffffffffffffffffff168160000160009054906101000a900473ffffffffffffffffffffffffffffffffffffffff1673ffffffffffffffffffffffffffffffffffffffff16636352211e846040518263ffffffff1660e01b815260040161197491906127d0565b602060405180830381865afa158015611991573d6000803e3d6000fd5b505050506040513d601f19601f820116820180604052508101906119b59190613680565b73ffffffffffffffffffffffffffffffffffffffff1614611a0b576040517f08c379a0000000000000000000000000000000000000000000000000000000008152600401611a02906136f9565b60405180910390fd5b80600801600083815260200190815260200160002060009054906101000a900460ff1615611a6e576040517f08c379a0000000000000000000000000000000000000000000000000000000008152600401611a659061378b565b60405180910390fd5b80600601339080600181540180825580915050600190039060005260206000200160009091909190916101000a81548173ffffffffffffffffffffffffffffffffffffffff021916908373ffffffffffffffffffffffffffffffffffffffff16021790555060018160070160003373ffffffffffffffffffffffffffffffffffffffff1673ffffffffffffffffffffffffffffffffffffffff16815260200190815260200160002060006101000a81548160ff021916908315150217905550600181600801600084815260200190815260200160002060006101000a81548160ff0219169083151502179055503373ffffffffffffffffffffffffffffffffffffffff16837f610be20f88ad2726dbaabfa843e556e8d9f6f1b6a98a2894dc8d7ac215355a6484604051611ba291906127d0565b60405180910390a3505050565b600160025414611bf4576040517f08c379a0000000000000000000000000000000000000000000000000000000008152600401611beb90612a31565b60405180910390fd5b60028081905550600460009054906101000a900473ffffffffffffffffffffffffffffffffffffffff1673ffffffffffffffffffffffffffffffffffffffff163373ffffffffffffffffffffffffffffffffffffffff1614611c8b576040517f08c379a0000000000000000000000000000000000000000000000000000000008152600401611c82906137f7565b60405180910390fd5b600060066000848152602001908152602001600020549050600060056000838152602001908152602001600020905083816009015414611d00576040517f08c379a0000000000000000000000000000000000000000000000000000000008152600401611cf790613863565b60405180910390fd5b60008360001c905060005b8260030154811015611f3257600081828560060180549050611d2d9190613105565b8484604051602001611d40929190613883565b6040516020818303038152906040528051906020012060001c611d6391906138de565b611d6d919061327c565b90506000846006018281548110611d8757611d86612b95565b5b9060005260206000200160009054906101000a900473ffffffffffffffffffffffffffffffffffffffff16905084600a01819080600181540180825580915050600190039060005260206000200160009091909190916101000a81548173ffffffffffffffffffffffffffffffffffffffff021916908373ffffffffffffffffffffffffffffffffffffffff1602179055506000856006018481548110611e3157611e30612b95565b5b9060005260206000200160009054906101000a900473ffffffffffffffffffffffffffffffffffffffff16905081866006018581548110611e7557611e74612b95565b5b9060005260206000200160006101000a81548173ffffffffffffffffffffffffffffffffffffffff021916908373ffffffffffffffffffffffffffffffffffffffff16021790555080866006018481548110611ed457611ed3612b95565b5b9060005260206000200160006101000a81548173ffffffffffffffffffffffffffffffffffffffff021916908373ffffffffffffffffffffffffffffffffffffffff1602179055505050508080611f2a90612caf565b915050611d0b565b5081600301548260040154611f47919061390f565b60036000828254611f58919061327c565b9250508190555050505060016002819055505050565b600460009054906101000a900473ffffffffffffffffffffffffffffffffffffffff1681565b611fc2336000357fffffffff00000000000000000000000000000000000000000000000000000000166123e5565b612001576040517f08c379a0000000000000000000000000000000000000000000000000000000008152600401611ff890612daf565b60405180910390fd5b806000806101000a81548173ffffffffffffffffffffffffffffffffffffffff021916908373ffffffffffffffffffffffffffffffffffffffff1602179055508073ffffffffffffffffffffffffffffffffffffffff163373ffffffffffffffffffffffffffffffffffffffff167f8be0079c531659141344cd1fd0a4f28419497f9722a3daafe3b4186f6b6457e060405160405180910390a350565b6001600254146120e3576040517f08c379a00000000000000000000000000000000000000000000000000000000081526004016120da90612a31565b60405180910390fd5b6002808190555060006005600084815260200190815260200160002090506000816005015403612148576040517f08c379a000000000000000000000000000000000000000000000000000000000815260040161213f90613325565b60405180910390fd5b62278d00816005015461215b919061327c565b421161219c576040517f08c379a0000000000000000000000000000000000000000000000000000000008152600401612193906139c3565b60405180910390fd5b60008160040154116121e3576040517f08c379a00000000000000000000000000000000000000000000000000000000081526004016121da90613a2f565b60405180910390fd5b8060070160008373ffffffffffffffffffffffffffffffffffffffff1673ffffffffffffffffffffffffffffffffffffffff16815260200190815260200160002060009054906101000a900460ff16612271576040517f08c379a000000000000000000000000000000000000000000000000000000000815260040161226890612b75565b60405180910390fd5b80600b0160008373ffffffffffffffffffffffffffffffffffffffff1673ffffffffffffffffffffffffffffffffffffffff16815260200190815260200160002060009054906101000a900460ff1615612300576040517f08c379a00000000000000000000000000000000000000000000000000000000081526004016122f790612b09565b60405180910390fd5b600181600b0160008473ffffffffffffffffffffffffffffffffffffffff1673ffffffffffffffffffffffffffffffffffffffff16815260200190815260200160002060006101000a81548160ff02191690831515021790555060008273ffffffffffffffffffffffffffffffffffffffff166108fc83600401549081150290604051600060405180830381858888f193505050509050806123d7576040517f08c379a00000000000000000000000000000000000000000000000000000000081526004016123ce90612d43565b60405180910390fd5b505060016002819055505050565b600080600160009054906101000a900473ffffffffffffffffffffffffffffffffffffffff169050600073ffffffffffffffffffffffffffffffffffffffff168173ffffffffffffffffffffffffffffffffffffffff16141580156124c457508073ffffffffffffffffffffffffffffffffffffffff1663b70096138530866040518463ffffffff1660e01b815260040161248293929190613174565b602060405180830381865afa15801561249f573d6000803e3d6000fd5b505050506040513d601f19601f820116820180604052508101906124c391906131e3565b5b8061251a575060008054906101000a900473ffffffffffffffffffffffffffffffffffffffff1673ffffffffffffffffffffffffffffffffffffffff168473ffffffffffffffffffffffffffffffffffffffff16145b91505092915050565b600080fd5b6000819050919050565b61253b81612528565b811461254657600080fd5b50565b60008135905061255881612532565b92915050565b60006020828403121561257457612573612523565b5b600061258284828501612549565b91505092915050565b600073ffffffffffffffffffffffffffffffffffffffff82169050919050565b60006125b68261258b565b9050919050565b6125c6816125ab565b82525050565b6000819050919050565b6125df816125cc565b82525050565b600060e0820190506125fa600083018a6125bd565b61260760208301896125bd565b61261460408301886125d6565b61262160608301876125d6565b61262e60808301866125d6565b61263b60a08301856125d6565b61264860c08301846125d6565b98975050505050505050565b61265d816125ab565b811461266857600080fd5b50565b60008135905061267a81612654565b92915050565b6000806040838503121561269757612696612523565b5b60006126a585828601612549565b92505060206126b68582860161266b565b9150509250929050565b6126c9816125cc565b81146126d457600080fd5b50565b6000813590506126e6816126c0565b92915050565b60008060008060008060c0878903121561270957612708612523565b5b600061271789828a0161266b565b965050602061272889828a0161266b565b955050604061273989828a016126d7565b945050606061274a89828a016126d7565b935050608061275b89828a016126d7565b92505060a061276c89828a016126d7565b9150509295509295509295565b60006020828403121561278f5761278e612523565b5b600061279d848285016126d7565b91505092915050565b6127af81612528565b82525050565b60006020820190506127ca60008301846127a6565b92915050565b60006020820190506127e560008301846125d6565b92915050565b60006127f6826125ab565b9050919050565b612806816127eb565b811461281157600080fd5b50565b600081359050612823816127fd565b92915050565b60006020828403121561283f5761283e612523565b5b600061284d84828501612814565b91505092915050565b600060208201905061286b60008301846125bd565b92915050565b6000819050919050565b600061289661289161288c8461258b565b612871565b61258b565b9050919050565b60006128a88261287b565b9050919050565b60006128ba8261289d565b9050919050565b6128ca816128af565b82525050565b60006020820190506128e560008301846128c1565b92915050565b6000806040838503121561290257612901612523565b5b600061291085828601612549565b9250506020612921858286016126d7565b9150509250929050565b6000806040838503121561294257612941612523565b5b6000612950858286016126d7565b925050602061296185828601612549565b9150509250929050565b60006129768261289d565b9050919050565b6129868161296b565b82525050565b60006020820190506129a1600083018461297d565b92915050565b6000602082840312156129bd576129bc612523565b5b60006129cb8482850161266b565b91505092915050565b600082825260208201905092915050565b7f5245454e5452414e435900000000000000000000000000000000000000000000600082015250565b6000612a1b600a836129d4565b9150612a26826129e5565b602082019050919050565b60006020820190508181036000830152612a4a81612a0e565b9050919050565b7f4e6f2077696e6e65727320796574000000000000000000000000000000000000600082015250565b6000612a87600e836129d4565b9150612a9282612a51565b602082019050919050565b60006020820190508181036000830152612ab681612a7a565b9050919050565b7f416c72656164792077697468647261776e2e0000000000000000000000000000600082015250565b6000612af36012836129d4565b9150612afe82612abd565b602082019050919050565b60006020820190508181036000830152612b2281612ae6565b9050919050565b7f7061727469636970616e74206e6f7420696e20746869732073616c652e000000600082015250565b6000612b5f601d836129d4565b9150612b6a82612b29565b602082019050919050565b60006020820190508181036000830152612b8e81612b52565b9050919050565b7f4e487b7100000000000000000000000000000000000000000000000000000000600052603260045260246000fd5b6000819050919050565b6000612be9612be4612bdf84612bc4565b612871565b6125cc565b9050919050565b612bf981612bce565b82525050565b600082825260208201905092915050565b50565b6000612c20600083612bff565b9150612c2b82612c10565b600082019050919050565b6000608082019050612c4b60008301866125bd565b612c5860208301856125d6565b612c656040830184612bf0565b8181036060830152612c7681612c13565b9050949350505050565b7f4e487b7100000000000000000000000000000000000000000000000000000000600052601160045260246000fd5b6000612cba826125cc565b91507fffffffffffffffffffffffffffffffffffffffffffffffffffffffffffffffff8203612cec57612ceb612c80565b5b600182019050919050565b7f4661696c656420746f2073656e6420726566756e640000000000000000000000600082015250565b6000612d2d6015836129d4565b9150612d3882612cf7565b602082019050919050565b60006020820190508181036000830152612d5c81612d20565b9050919050565b7f554e415554484f52495a45440000000000000000000000000000000000000000600082015250565b6000612d99600c836129d4565b9150612da482612d63565b602082019050919050565b60006020820190508181036000830152612dc881612d8c565b9050919050565b7f53616c6520737570706c79206d7573742062652067726561746572207468616e60008201527f207a65726f2e0000000000000000000000000000000000000000000000000000602082015250565b6000612e2b6026836129d4565b9150612e3682612dcf565b604082019050919050565b60006020820190508181036000830152612e5a81612e1e565b9050919050565b7f53616c6520656e642074696d65206d75737420626520696e207468652066757460008201527f7572652e00000000000000000000000000000000000000000000000000000000602082015250565b6000612ebd6024836129d4565b9150612ec882612e61565b604082019050919050565b60006020820190508181036000830152612eec81612eb0565b9050919050565b60008160601b9050919050565b6000612f0b82612ef3565b9050919050565b6000612f1d82612f00565b9050919050565b612f35612f30826125ab565b612f12565b82525050565b6000819050919050565b612f56612f51826125cc565b612f3b565b82525050565b6000612f688289612f24565b601482019150612f788288612f24565b601482019150612f888287612f45565b602082019150612f988286612f45565b602082019150612fa88285612f45565b602082019150612fb88284612f45565b602082019150819050979650505050505050565b7f53616c6520616c7265616479206578697374732e000000000000000000000000600082015250565b60006130026014836129d4565b915061300d82612fcc565b602082019050919050565b6000602082019050818103600083015261303181612ff5565b9050919050565b600060c08201905061304d60008301896125bd565b61305a60208301886125bd565b61306760408301876125d6565b61307460608301866125d6565b61308160808301856125d6565b61308e60a08301846125d6565b979650505050505050565b7f496e73756666696369656e742072657365727665730000000000000000000000600082015250565b60006130cf6015836129d4565b91506130da82613099565b602082019050919050565b600060208201905081810360008301526130fe816130c2565b9050919050565b6000613110826125cc565b915061311b836125cc565b925082820390508181111561313357613132612c80565b5b92915050565b60007fffffffff0000000000000000000000000000000000000000000000000000000082169050919050565b61316e81613139565b82525050565b600060608201905061318960008301866125bd565b61319660208301856125bd565b6131a36040830184613165565b949350505050565b60008115159050919050565b6131c0816131ab565b81146131cb57600080fd5b50565b6000815190506131dd816131b7565b92915050565b6000602082840312156131f9576131f8612523565b5b6000613207848285016131ce565b91505092915050565b7f4661696c656420746f2073656e64207377656570000000000000000000000000600082015250565b60006132466014836129d4565b915061325182613210565b602082019050919050565b6000602082019050818103600083015261327581613239565b9050919050565b6000613287826125cc565b9150613292836125cc565b92508282019050808211156132aa576132a9612c80565b5b92915050565b60006040820190506132c560008301856125bd565b6132d260208301846125d6565b9392505050565b7f53616c6520646f6573206e6f742065786973742e000000000000000000000000600082015250565b600061330f6014836129d4565b915061331a826132d9565b602082019050919050565b6000602082019050818103600083015261333e81613302565b9050919050565b7f53616c6520686173206e6f7420656e6465642e00000000000000000000000000600082015250565b600061337b6013836129d4565b915061338682613345565b602082019050919050565b600060208201905081810360008301526133aa8161336e565b9050919050565b7f416c7265616479207265717565737465642072616e646f6d206e75626d657200600082015250565b60006133e7601f836129d4565b91506133f2826133b1565b602082019050919050565b60006020820190508181036000830152613416816133da565b9050919050565b6000819050919050565b600061344261343d6134388461341d565b612871565b6125cc565b9050919050565b61345281613427565b82525050565b600060208201905061346d6000830184613449565b92915050565b600081519050613482816126c0565b92915050565b60006020828403121561349e5761349d612523565b5b60006134ac84828501613473565b91505092915050565b7f53616c652068617320656e6465642e0000000000000000000000000000000000600082015250565b60006134eb600f836129d4565b91506134f6826134b5565b602082019050919050565b6000602082019050818103600083015261351a816134de565b9050919050565b7f496e636f7272656374206465706f73697420616d6f756e742e20506c6561736560008201527f2070726f766964652074686520636f7272656374206465706f73697420616d6f60208201527f756e742e00000000000000000000000000000000000000000000000000000000604082015250565b60006135a36044836129d4565b91506135ae82613521565b606082019050919050565b600060208201905081810360008301526135d281613596565b9050919050565b7f596f75206861766520616c72656164792070617274696369706174656420696e60008201527f20746869732073616c652e000000000000000000000000000000000000000000602082015250565b6000613635602b836129d4565b9150613640826135d9565b604082019050919050565b6000602082019050818103600083015261366481613628565b9050919050565b60008151905061367a81612654565b92915050565b60006020828403121561369657613695612523565b5b60006136a48482850161366b565b91505092915050565b7f596f7520646f206e6f74206f776e20746865206d61726b656420746f6b656e2e600082015250565b60006136e36020836129d4565b91506136ee826136ad565b602082019050919050565b60006020820190508181036000830152613712816136d6565b9050919050565b7f4d61726b656420746f6b656e2068617320616c7265616479206265656e20757360008201527f656420746f20706172746963697061746520696e20746869732073616c652e00602082015250565b6000613775603f836129d4565b915061378082613719565b604082019050919050565b600060208201905081810360008301526137a481613768565b9050919050565b7f43616c6c6572206e6f742052616e646f6d697a65720000000000000000000000600082015250565b60006137e16015836129d4565b91506137ec826137ab565b602082019050919050565b60006020820190508181036000830152613810816137d4565b9050919050565b7f496e76616c69642072616e646f6d697a65722069640000000000000000000000600082015250565b600061384d6015836129d4565b915061385882613817565b602082019050919050565b6000602082019050818103600083015261387c81613840565b9050919050565b600061388f8285612f45565b60208201915061389f8284612f45565b6020820191508190509392505050565b7f4e487b7100000000000000000000000000000000000000000000000000000000600052601260045260246000fd5b60006138e9826125cc565b91506138f4836125cc565b925082613904576139036138af565b5b828206905092915050565b600061391a826125cc565b9150613925836125cc565b9250828202613933816125cc565b9150828204841483151761394a57613949612c80565b5b5092915050565b7f5769746864726177616c20706572696f6420686173206e6f742079657420737460008201527f61727465642e0000000000000000000000000000000000000000000000000000602082015250565b60006139ad6026836129d4565b91506139b882613951565b604082019050919050565b600060208201905081810360008301526139dc816139a0565b9050919050565b7f53616c6520646964206e6f7420726571756972652061206465706f7369742e00600082015250565b6000613a19601f836129d4565b9150613a24826139e3565b602082019050919050565b60006020820190508181036000830152613a4881613a0c565b905091905056fea264697066735822122029379c684b3495d4fa67ef9d54d8a15b13cf6820ed39e0cc3da20a3d6b91fd6e64736f6c63430008110033","opcodes":"PUSH1 0x80 PUSH1 0x40 MSTORE PUSH1 0x1 PUSH1 0x2 SSTORE CALLVALUE DUP1 ISZERO PUSH3 0x16 JUMPI PUSH1 0x0 DUP1 REVERT JUMPDEST POP PUSH1 0x40 MLOAD PUSH3 0x3D6D CODESIZE SUB DUP1 PUSH3 0x3D6D DUP4 CODECOPY DUP2 DUP2 ADD PUSH1 0x40 MSTORE DUP2 ADD SWAP1 PUSH3 0x3C SWAP2 SWAP1 PUSH3 0x27C JUMP JUMPDEST DUP3 DUP3 DUP3 DUP3 DUP3 DUP2 PUSH1 0x0 DUP1 PUSH2 0x100 EXP DUP2 SLOAD DUP2 PUSH20 0xFFFFFFFFFFFFFFFFFFFFFFFFFFFFFFFFFFFFFFFF MUL NOT AND SWAP1 DUP4 PUSH20 0xFFFFFFFFFFFFFFFFFFFFFFFFFFFFFFFFFFFFFFFF AND MUL OR SWAP1 SSTORE POP DUP1 PUSH1 0x1 PUSH1 0x0 PUSH2 0x100 EXP DUP2 SLOAD DUP2 PUSH20 0xFFFFFFFFFFFFFFFFFFFFFFFFFFFFFFFFFFFFFFFF MUL NOT AND SWAP1 DUP4 PUSH20 0xFFFFFFFFFFFFFFFFFFFFFFFFFFFFFFFFFFFFFFFF AND MUL OR SWAP1 SSTORE POP DUP2 PUSH20 0xFFFFFFFFFFFFFFFFFFFFFFFFFFFFFFFFFFFFFFFF AND CALLER PUSH20 0xFFFFFFFFFFFFFFFFFFFFFFFFFFFFFFFFFFFFFFFF AND PUSH32 0x8BE0079C531659141344CD1FD0A4F28419497F9722A3DAAFE3B4186F6B6457E0 PUSH1 0x40 MLOAD PUSH1 0x40 MLOAD DUP1 SWAP2 SUB SWAP1 LOG3 DUP1 PUSH20 0xFFFFFFFFFFFFFFFFFFFFFFFFFFFFFFFFFFFFFFFF AND CALLER PUSH20 0xFFFFFFFFFFFFFFFFFFFFFFFFFFFFFFFFFFFFFFFF AND PUSH32 0xA3396FD7F6E0A21B50E5089D2DA70D5AC0A3BBBD1F617A93F134B76389980198 PUSH1 0x40 MLOAD PUSH1 0x40 MLOAD DUP1 SWAP2 SUB SWAP1 LOG3 POP POP DUP1 PUSH1 0x4 PUSH1 0x0 PUSH2 0x100 EXP DUP2 SLOAD DUP2 PUSH20 0xFFFFFFFFFFFFFFFFFFFFFFFFFFFFFFFFFFFFFFFF MUL NOT AND SWAP1 DUP4 PUSH20 0xFFFFFFFFFFFFFFFFFFFFFFFFFFFFFFFFFFFFFFFF AND MUL OR SWAP1 SSTORE POP PUSH1 0x0 PUSH1 0x3 DUP2 SWAP1 SSTORE POP POP POP POP POP POP POP PUSH3 0x2D8 JUMP JUMPDEST PUSH1 0x0 DUP1 REVERT JUMPDEST PUSH1 0x0 PUSH20 0xFFFFFFFFFFFFFFFFFFFFFFFFFFFFFFFFFFFFFFFF DUP3 AND SWAP1 POP SWAP2 SWAP1 POP JUMP JUMPDEST PUSH1 0x0 PUSH3 0x1FF DUP3 PUSH3 0x1D2 JUMP JUMPDEST SWAP1 POP SWAP2 SWAP1 POP JUMP JUMPDEST PUSH3 0x211 DUP2 PUSH3 0x1F2 JUMP JUMPDEST DUP2 EQ PUSH3 0x21D JUMPI PUSH1 0x0 DUP1 REVERT JUMPDEST POP JUMP JUMPDEST PUSH1 0x0 DUP2 MLOAD SWAP1 POP PUSH3 0x231 DUP2 PUSH3 0x206 JUMP JUMPDEST SWAP3 SWAP2 POP POP JUMP JUMPDEST PUSH1 0x0 PUSH3 0x244 DUP3 PUSH3 0x1F2 JUMP JUMPDEST SWAP1 POP SWAP2 SWAP1 POP JUMP JUMPDEST PUSH3 0x256 DUP2 PUSH3 0x237 JUMP JUMPDEST DUP2 EQ PUSH3 0x262 JUMPI PUSH1 0x0 DUP1 REVERT JUMPDEST POP JUMP JUMPDEST PUSH1 0x0 DUP2 MLOAD SWAP1 POP PUSH3 0x276 DUP2 PUSH3 0x24B JUMP JUMPDEST SWAP3 SWAP2 POP POP JUMP JUMPDEST PUSH1 0x0 DUP1 PUSH1 0x0 PUSH1 0x60 DUP5 DUP7 SUB SLT ISZERO PUSH3 0x298 JUMPI PUSH3 0x297 PUSH3 0x1CD JUMP JUMPDEST JUMPDEST PUSH1 0x0 PUSH3 0x2A8 DUP7 DUP3 DUP8 ADD PUSH3 0x220 JUMP JUMPDEST SWAP4 POP POP PUSH1 0x20 PUSH3 0x2BB DUP7 DUP3 DUP8 ADD PUSH3 0x265 JUMP JUMPDEST SWAP3 POP POP PUSH1 0x40 PUSH3 0x2CE DUP7 DUP3 DUP8 ADD PUSH3 0x220 JUMP JUMPDEST SWAP2 POP POP SWAP3 POP SWAP3 POP SWAP3 JUMP JUMPDEST PUSH2 0x3A85 DUP1 PUSH3 0x2E8 PUSH1 0x0 CODECOPY PUSH1 0x0 RETURN INVALID PUSH1 0x80 PUSH1 0x40 MSTORE PUSH1 0x4 CALLDATASIZE LT PUSH2 0x109 JUMPI PUSH1 0x0 CALLDATALOAD PUSH1 0xE0 SHR DUP1 PUSH4 0xAA60E733 GT PUSH2 0x95 JUMPI DUP1 PUSH4 0xDCFC4726 GT PUSH2 0x64 JUMPI DUP1 PUSH4 0xDCFC4726 EQ PUSH2 0x357 JUMPI DUP1 PUSH4 0xEBE93CAF EQ PUSH2 0x373 JUMPI DUP1 PUSH4 0xF10FB584 EQ PUSH2 0x39C JUMPI DUP1 PUSH4 0xF2FDE38B EQ PUSH2 0x3C7 JUMPI DUP1 PUSH4 0xF83038CC EQ PUSH2 0x3F0 JUMPI PUSH2 0x109 JUMP JUMPDEST DUP1 PUSH4 0xAA60E733 EQ PUSH2 0x2B1 JUMPI DUP1 PUSH4 0xBF7E214F EQ PUSH2 0x2DA JUMPI DUP1 PUSH4 0xC03634FF EQ PUSH2 0x305 JUMPI DUP1 PUSH4 0xCB923CCD EQ PUSH2 0x32E JUMPI PUSH2 0x109 JUMP JUMPDEST DUP1 PUSH4 0x4846ED9A GT PUSH2 0xDC JUMPI DUP1 PUSH4 0x4846ED9A EQ PUSH2 0x1E0 JUMPI DUP1 PUSH4 0x75172A8B EQ PUSH2 0x209 JUMPI DUP1 PUSH4 0x7A9E5E4B EQ PUSH2 0x234 JUMPI DUP1 PUSH4 0x89E412F5 EQ PUSH2 0x25D JUMPI DUP1 PUSH4 0x8DA5CB5B EQ PUSH2 0x286 JUMPI PUSH2 0x109 JUMP JUMPDEST DUP1 PUSH4 0xC2AFD72 EQ PUSH2 0x10E JUMPI DUP1 PUSH4 0x1B258D50 EQ PUSH2 0x151 JUMPI DUP1 PUSH4 0x2694C90E EQ PUSH2 0x17A JUMPI DUP1 PUSH4 0x399CC9E2 EQ PUSH2 0x1A3 JUMPI JUMPDEST PUSH1 0x0 DUP1 REVERT JUMPDEST CALLVALUE DUP1 ISZERO PUSH2 0x11A JUMPI PUSH1 0x0 DUP1 REVERT JUMPDEST POP PUSH2 0x135 PUSH1 0x4 DUP1 CALLDATASIZE SUB DUP2 ADD SWAP1 PUSH2 0x130 SWAP2 SWAP1 PUSH2 0x255E JUMP JUMPDEST PUSH2 0x419 JUMP JUMPDEST PUSH1 0x40 MLOAD PUSH2 0x148 SWAP8 SWAP7 SWAP6 SWAP5 SWAP4 SWAP3 SWAP2 SWAP1 PUSH2 0x25E5 JUMP JUMPDEST PUSH1 0x40 MLOAD DUP1 SWAP2 SUB SWAP1 RETURN JUMPDEST CALLVALUE DUP1 ISZERO PUSH2 0x15D JUMPI PUSH1 0x0 DUP1 REVERT JUMPDEST POP PUSH2 0x178 PUSH1 0x4 DUP1 CALLDATASIZE SUB DUP2 ADD SWAP1 PUSH2 0x173 SWAP2 SWAP1 PUSH2 0x2680 JUMP JUMPDEST PUSH2 0x49B JUMP JUMPDEST STOP JUMPDEST CALLVALUE DUP1 ISZERO PUSH2 0x186 JUMPI PUSH1 0x0 DUP1 REVERT JUMPDEST POP PUSH2 0x1A1 PUSH1 0x4 DUP1 CALLDATASIZE SUB DUP2 ADD SWAP1 PUSH2 0x19C SWAP2 SWAP1 PUSH2 0x26EC JUMP JUMPDEST PUSH2 0x970 JUMP JUMPDEST STOP JUMPDEST CALLVALUE DUP1 ISZERO PUSH2 0x1AF JUMPI PUSH1 0x0 DUP1 REVERT JUMPDEST POP PUSH2 0x1CA PUSH1 0x4 DUP1 CALLDATASIZE SUB DUP2 ADD SWAP1 PUSH2 0x1C5 SWAP2 SWAP1 PUSH2 0x2779 JUMP JUMPDEST PUSH2 0xBEB JUMP JUMPDEST PUSH1 0x40 MLOAD PUSH2 0x1D7 SWAP2 SWAP1 PUSH2 0x27B5 JUMP JUMPDEST PUSH1 0x40 MLOAD DUP1 SWAP2 SUB SWAP1 RETURN JUMPDEST CALLVALUE DUP1 ISZERO PUSH2 0x1EC JUMPI PUSH1 0x0 DUP1 REVERT JUMPDEST POP PUSH2 0x207 PUSH1 0x4 DUP1 CALLDATASIZE SUB DUP2 ADD SWAP1 PUSH2 0x202 SWAP2 SWAP1 PUSH2 0x2779 JUMP JUMPDEST PUSH2 0xC03 JUMP JUMPDEST STOP JUMPDEST CALLVALUE DUP1 ISZERO PUSH2 0x215 JUMPI PUSH1 0x0 DUP1 REVERT JUMPDEST POP PUSH2 0x21E PUSH2 0xDB3 JUMP JUMPDEST PUSH1 0x40 MLOAD PUSH2 0x22B SWAP2 SWAP1 PUSH2 0x27D0 JUMP JUMPDEST PUSH1 0x40 MLOAD DUP1 SWAP2 SUB SWAP1 RETURN JUMPDEST CALLVALUE DUP1 ISZERO PUSH2 0x240 JUMPI PUSH1 0x0 DUP1 REVERT JUMPDEST POP PUSH2 0x25B PUSH1 0x4 DUP1 CALLDATASIZE SUB DUP2 ADD SWAP1 PUSH2 0x256 SWAP2 SWAP1 PUSH2 0x2829 JUMP JUMPDEST PUSH2 0xDB9 JUMP JUMPDEST STOP JUMPDEST CALLVALUE DUP1 ISZERO PUSH2 0x269 JUMPI PUSH1 0x0 DUP1 REVERT JUMPDEST POP PUSH2 0x284 PUSH1 0x4 DUP1 CALLDATASIZE SUB DUP2 ADD SWAP1 PUSH2 0x27F SWAP2 SWAP1 PUSH2 0x255E JUMP JUMPDEST PUSH2 0xF7A JUMP JUMPDEST STOP JUMPDEST CALLVALUE DUP1 ISZERO PUSH2 0x292 JUMPI PUSH1 0x0 DUP1 REVERT JUMPDEST POP PUSH2 0x29B PUSH2 0x122D JUMP JUMPDEST PUSH1 0x40 MLOAD PUSH2 0x2A8 SWAP2 SWAP1 PUSH2 0x2856 JUMP JUMPDEST PUSH1 0x40 MLOAD DUP1 SWAP2 SUB SWAP1 RETURN JUMPDEST CALLVALUE DUP1 ISZERO PUSH2 0x2BD JUMPI PUSH1 0x0 DUP1 REVERT JUMPDEST POP PUSH2 0x2D8 PUSH1 0x4 DUP1 CALLDATASIZE SUB DUP2 ADD SWAP1 PUSH2 0x2D3 SWAP2 SWAP1 PUSH2 0x2779 JUMP JUMPDEST PUSH2 0x1251 JUMP JUMPDEST STOP JUMPDEST CALLVALUE DUP1 ISZERO PUSH2 0x2E6 JUMPI PUSH1 0x0 DUP1 REVERT JUMPDEST POP PUSH2 0x2EF PUSH2 0x13ED JUMP JUMPDEST PUSH1 0x40 MLOAD PUSH2 0x2FC SWAP2 SWAP1 PUSH2 0x28D0 JUMP JUMPDEST PUSH1 0x40 MLOAD DUP1 SWAP2 SUB SWAP1 RETURN JUMPDEST CALLVALUE DUP1 ISZERO PUSH2 0x311 JUMPI PUSH1 0x0 DUP1 REVERT JUMPDEST POP PUSH2 0x32C PUSH1 0x4 DUP1 CALLDATASIZE SUB DUP2 ADD SWAP1 PUSH2 0x327 SWAP2 SWAP1 PUSH2 0x2779 JUMP JUMPDEST PUSH2 0x1413 JUMP JUMPDEST STOP JUMPDEST CALLVALUE DUP1 ISZERO PUSH2 0x33A JUMPI PUSH1 0x0 DUP1 REVERT JUMPDEST POP PUSH2 0x355 PUSH1 0x4 DUP1 CALLDATASIZE SUB DUP2 ADD SWAP1 PUSH2 0x350 SWAP2 SWAP1 PUSH2 0x255E JUMP JUMPDEST PUSH2 0x157F JUMP JUMPDEST STOP JUMPDEST PUSH2 0x371 PUSH1 0x4 DUP1 CALLDATASIZE SUB DUP2 ADD SWAP1 PUSH2 0x36C SWAP2 SWAP1 PUSH2 0x28EB JUMP JUMPDEST PUSH2 0x1787 JUMP JUMPDEST STOP JUMPDEST CALLVALUE DUP1 ISZERO PUSH2 0x37F JUMPI PUSH1 0x0 DUP1 REVERT JUMPDEST POP PUSH2 0x39A PUSH1 0x4 DUP1 CALLDATASIZE SUB DUP2 ADD SWAP1 PUSH2 0x395 SWAP2 SWAP1 PUSH2 0x292B JUMP JUMPDEST PUSH2 0x1BAF JUMP JUMPDEST STOP JUMPDEST CALLVALUE DUP1 ISZERO PUSH2 0x3A8 JUMPI PUSH1 0x0 DUP1 REVERT JUMPDEST POP PUSH2 0x3B1 PUSH2 0x1F6E JUMP JUMPDEST PUSH1 0x40 MLOAD PUSH2 0x3BE SWAP2 SWAP1 PUSH2 0x298C JUMP JUMPDEST PUSH1 0x40 MLOAD DUP1 SWAP2 SUB SWAP1 RETURN JUMPDEST CALLVALUE DUP1 ISZERO PUSH2 0x3D3 JUMPI PUSH1 0x0 DUP1 REVERT JUMPDEST POP PUSH2 0x3EE PUSH1 0x4 DUP1 CALLDATASIZE SUB DUP2 ADD SWAP1 PUSH2 0x3E9 SWAP2 SWAP1 PUSH2 0x29A7 JUMP JUMPDEST PUSH2 0x1F94 JUMP JUMPDEST STOP JUMPDEST CALLVALUE DUP1 ISZERO PUSH2 0x3FC JUMPI PUSH1 0x0 DUP1 REVERT JUMPDEST POP PUSH2 0x417 PUSH1 0x4 DUP1 CALLDATASIZE SUB DUP2 ADD SWAP1 PUSH2 0x412 SWAP2 SWAP1 PUSH2 0x2680 JUMP JUMPDEST PUSH2 0x209E JUMP JUMPDEST STOP JUMPDEST PUSH1 0x5 PUSH1 0x20 MSTORE DUP1 PUSH1 0x0 MSTORE PUSH1 0x40 PUSH1 0x0 KECCAK256 PUSH1 0x0 SWAP2 POP SWAP1 POP DUP1 PUSH1 0x0 ADD PUSH1 0x0 SWAP1 SLOAD SWAP1 PUSH2 0x100 EXP SWAP1 DIV PUSH20 0xFFFFFFFFFFFFFFFFFFFFFFFFFFFFFFFFFFFFFFFF AND SWAP1 DUP1 PUSH1 0x1 ADD PUSH1 0x0 SWAP1 SLOAD SWAP1 PUSH2 0x100 EXP SWAP1 DIV PUSH20 0xFFFFFFFFFFFFFFFFFFFFFFFFFFFFFFFFFFFFFFFF AND SWAP1 DUP1 PUSH1 0x2 ADD SLOAD SWAP1 DUP1 PUSH1 0x3 ADD SLOAD SWAP1 DUP1 PUSH1 0x4 ADD SLOAD SWAP1 DUP1 PUSH1 0x5 ADD SLOAD SWAP1 DUP1 PUSH1 0x9 ADD SLOAD SWAP1 POP DUP8 JUMP JUMPDEST PUSH1 0x1 PUSH1 0x2 SLOAD EQ PUSH2 0x4E0 JUMPI PUSH1 0x40 MLOAD PUSH32 0x8C379A000000000000000000000000000000000000000000000000000000000 DUP2 MSTORE PUSH1 0x4 ADD PUSH2 0x4D7 SWAP1 PUSH2 0x2A31 JUMP JUMPDEST PUSH1 0x40 MLOAD DUP1 SWAP2 SUB SWAP1 REVERT JUMPDEST PUSH1 0x2 DUP1 DUP2 SWAP1 SSTORE POP PUSH1 0x0 PUSH1 0x5 PUSH1 0x0 DUP5 DUP2 MSTORE PUSH1 0x20 ADD SWAP1 DUP2 MSTORE PUSH1 0x20 ADD PUSH1 0x0 KECCAK256 SWAP1 POP PUSH1 0x0 DUP2 PUSH1 0xA ADD DUP1 SLOAD SWAP1 POP GT PUSH2 0x548 JUMPI PUSH1 0x40 MLOAD PUSH32 0x8C379A000000000000000000000000000000000000000000000000000000000 DUP2 MSTORE PUSH1 0x4 ADD PUSH2 0x53F SWAP1 PUSH2 0x2A9D JUMP JUMPDEST PUSH1 0x40 MLOAD DUP1 SWAP2 SUB SWAP1 REVERT JUMPDEST DUP1 PUSH1 0xB ADD PUSH1 0x0 DUP4 PUSH20 0xFFFFFFFFFFFFFFFFFFFFFFFFFFFFFFFFFFFFFFFF AND PUSH20 0xFFFFFFFFFFFFFFFFFFFFFFFFFFFFFFFFFFFFFFFF AND DUP2 MSTORE PUSH1 0x20 ADD SWAP1 DUP2 MSTORE PUSH1 0x20 ADD PUSH1 0x0 KECCAK256 PUSH1 0x0 SWAP1 SLOAD SWAP1 PUSH2 0x100 EXP SWAP1 DIV PUSH1 0xFF AND ISZERO PUSH2 0x5D7 JUMPI PUSH1 0x40 MLOAD PUSH32 0x8C379A000000000000000000000000000000000000000000000000000000000 DUP2 MSTORE PUSH1 0x4 ADD PUSH2 0x5CE SWAP1 PUSH2 0x2B09 JUMP JUMPDEST PUSH1 0x40 MLOAD DUP1 SWAP2 SUB SWAP1 REVERT JUMPDEST DUP1 PUSH1 0x7 ADD PUSH1 0x0 DUP4 PUSH20 0xFFFFFFFFFFFFFFFFFFFFFFFFFFFFFFFFFFFFFFFF AND PUSH20 0xFFFFFFFFFFFFFFFFFFFFFFFFFFFFFFFFFFFFFFFF AND DUP2 MSTORE PUSH1 0x20 ADD SWAP1 DUP2 MSTORE PUSH1 0x20 ADD PUSH1 0x0 KECCAK256 PUSH1 0x0 SWAP1 SLOAD SWAP1 PUSH2 0x100 EXP SWAP1 DIV PUSH1 0xFF AND PUSH2 0x665 JUMPI PUSH1 0x40 MLOAD PUSH32 0x8C379A000000000000000000000000000000000000000000000000000000000 DUP2 MSTORE PUSH1 0x4 ADD PUSH2 0x65C SWAP1 PUSH2 0x2B75 JUMP JUMPDEST PUSH1 0x40 MLOAD DUP1 SWAP2 SUB SWAP1 REVERT JUMPDEST PUSH1 0x0 JUMPDEST DUP2 PUSH1 0x3 ADD SLOAD DUP2 LT ISZERO PUSH2 0x837 JUMPI DUP3 PUSH20 0xFFFFFFFFFFFFFFFFFFFFFFFFFFFFFFFFFFFFFFFF AND DUP3 PUSH1 0xA ADD DUP3 DUP2 SLOAD DUP2 LT PUSH2 0x6A1 JUMPI PUSH2 0x6A0 PUSH2 0x2B95 JUMP JUMPDEST JUMPDEST SWAP1 PUSH1 0x0 MSTORE PUSH1 0x20 PUSH1 0x0 KECCAK256 ADD PUSH1 0x0 SWAP1 SLOAD SWAP1 PUSH2 0x100 EXP SWAP1 DIV PUSH20 0xFFFFFFFFFFFFFFFFFFFFFFFFFFFFFFFFFFFFFFFF AND PUSH20 0xFFFFFFFFFFFFFFFFFFFFFFFFFFFFFFFFFFFFFFFF AND SUB PUSH2 0x824 JUMPI PUSH1 0x1 DUP3 PUSH1 0xB ADD PUSH1 0x0 DUP6 PUSH20 0xFFFFFFFFFFFFFFFFFFFFFFFFFFFFFFFFFFFFFFFF AND PUSH20 0xFFFFFFFFFFFFFFFFFFFFFFFFFFFFFFFFFFFFFFFF AND DUP2 MSTORE PUSH1 0x20 ADD SWAP1 DUP2 MSTORE PUSH1 0x20 ADD PUSH1 0x0 KECCAK256 PUSH1 0x0 PUSH2 0x100 EXP DUP2 SLOAD DUP2 PUSH1 0xFF MUL NOT AND SWAP1 DUP4 ISZERO ISZERO MUL OR SWAP1 SSTORE POP DUP3 PUSH20 0xFFFFFFFFFFFFFFFFFFFFFFFFFFFFFFFFFFFFFFFF AND DUP5 PUSH32 0x6653A45D3871E4110FA55DAC0269F9F93A6D9078D402F7153594E50573D7F0CD PUSH1 0x40 MLOAD PUSH1 0x40 MLOAD DUP1 SWAP2 SUB SWAP1 LOG3 DUP2 PUSH1 0x1 ADD PUSH1 0x0 SWAP1 SLOAD SWAP1 PUSH2 0x100 EXP SWAP1 DIV PUSH20 0xFFFFFFFFFFFFFFFFFFFFFFFFFFFFFFFFFFFFFFFF AND PUSH20 0xFFFFFFFFFFFFFFFFFFFFFFFFFFFFFFFFFFFFFFFF AND PUSH4 0x731133E9 DUP5 DUP5 PUSH1 0x2 ADD SLOAD PUSH1 0x1 PUSH1 0x40 MLOAD DUP5 PUSH4 0xFFFFFFFF AND PUSH1 0xE0 SHL DUP2 MSTORE PUSH1 0x4 ADD PUSH2 0x7EB SWAP4 SWAP3 SWAP2 SWAP1 PUSH2 0x2C36 JUMP JUMPDEST PUSH1 0x0 PUSH1 0x40 MLOAD DUP1 DUP4 SUB DUP2 PUSH1 0x0 DUP8 DUP1 EXTCODESIZE ISZERO DUP1 ISZERO PUSH2 0x805 JUMPI PUSH1 0x0 DUP1 REVERT JUMPDEST POP GAS CALL ISZERO DUP1 ISZERO PUSH2 0x819 JUMPI RETURNDATASIZE PUSH1 0x0 DUP1 RETURNDATACOPY RETURNDATASIZE PUSH1 0x0 REVERT JUMPDEST POP POP POP POP POP POP PUSH2 0x964 JUMP JUMPDEST DUP1 DUP1 PUSH2 0x82F SWAP1 PUSH2 0x2CAF JUMP JUMPDEST SWAP2 POP POP PUSH2 0x668 JUMP JUMPDEST POP PUSH1 0x0 DUP2 PUSH1 0x4 ADD SLOAD GT ISZERO PUSH2 0x962 JUMPI PUSH1 0x1 DUP2 PUSH1 0xB ADD PUSH1 0x0 DUP5 PUSH20 0xFFFFFFFFFFFFFFFFFFFFFFFFFFFFFFFFFFFFFFFF AND PUSH20 0xFFFFFFFFFFFFFFFFFFFFFFFFFFFFFFFFFFFFFFFF AND DUP2 MSTORE PUSH1 0x20 ADD SWAP1 DUP2 MSTORE PUSH1 0x20 ADD PUSH1 0x0 KECCAK256 PUSH1 0x0 PUSH2 0x100 EXP DUP2 SLOAD DUP2 PUSH1 0xFF MUL NOT AND SWAP1 DUP4 ISZERO ISZERO MUL OR SWAP1 SSTORE POP DUP2 PUSH20 0xFFFFFFFFFFFFFFFFFFFFFFFFFFFFFFFFFFFFFFFF AND DUP4 PUSH32 0x6653A45D3871E4110FA55DAC0269F9F93A6D9078D402F7153594E50573D7F0CD PUSH1 0x40 MLOAD PUSH1 0x40 MLOAD DUP1 SWAP2 SUB SWAP1 LOG3 PUSH1 0x0 DUP3 PUSH20 0xFFFFFFFFFFFFFFFFFFFFFFFFFFFFFFFFFFFFFFFF AND PUSH2 0x8FC DUP4 PUSH1 0x4 ADD SLOAD SWAP1 DUP2 ISZERO MUL SWAP1 PUSH1 0x40 MLOAD PUSH1 0x0 PUSH1 0x40 MLOAD DUP1 DUP4 SUB DUP2 DUP6 DUP9 DUP9 CALL SWAP4 POP POP POP POP SWAP1 POP DUP1 PUSH2 0x960 JUMPI PUSH1 0x40 MLOAD PUSH32 0x8C379A000000000000000000000000000000000000000000000000000000000 DUP2 MSTORE PUSH1 0x4 ADD PUSH2 0x957 SWAP1 PUSH2 0x2D43 JUMP JUMPDEST PUSH1 0x40 MLOAD DUP1 SWAP2 SUB SWAP1 REVERT JUMPDEST POP JUMPDEST POP JUMPDEST PUSH1 0x1 PUSH1 0x2 DUP2 SWAP1 SSTORE POP POP POP JUMP JUMPDEST PUSH2 0x99E CALLER PUSH1 0x0 CALLDATALOAD PUSH32 0xFFFFFFFF00000000000000000000000000000000000000000000000000000000 AND PUSH2 0x23E5 JUMP JUMPDEST PUSH2 0x9DD JUMPI PUSH1 0x40 MLOAD PUSH32 0x8C379A000000000000000000000000000000000000000000000000000000000 DUP2 MSTORE PUSH1 0x4 ADD PUSH2 0x9D4 SWAP1 PUSH2 0x2DAF JUMP JUMPDEST PUSH1 0x40 MLOAD DUP1 SWAP2 SUB SWAP1 REVERT JUMPDEST PUSH1 0x0 DUP4 GT PUSH2 0xA20 JUMPI PUSH1 0x40 MLOAD PUSH32 0x8C379A000000000000000000000000000000000000000000000000000000000 DUP2 MSTORE PUSH1 0x4 ADD PUSH2 0xA17 SWAP1 PUSH2 0x2E41 JUMP JUMPDEST PUSH1 0x40 MLOAD DUP1 SWAP2 SUB SWAP1 REVERT JUMPDEST TIMESTAMP DUP2 GT PUSH2 0xA62 JUMPI PUSH1 0x40 MLOAD PUSH32 0x8C379A000000000000000000000000000000000000000000000000000000000 DUP2 MSTORE PUSH1 0x4 ADD PUSH2 0xA59 SWAP1 PUSH2 0x2ED3 JUMP JUMPDEST PUSH1 0x40 MLOAD DUP1 SWAP2 SUB SWAP1 REVERT JUMPDEST PUSH1 0x0 DUP7 DUP7 DUP7 DUP7 DUP7 DUP7 PUSH1 0x40 MLOAD PUSH1 0x20 ADD PUSH2 0xA7F SWAP7 SWAP6 SWAP5 SWAP4 SWAP3 SWAP2 SWAP1 PUSH2 0x2F5C JUMP JUMPDEST PUSH1 0x40 MLOAD PUSH1 0x20 DUP2 DUP4 SUB SUB DUP2 MSTORE SWAP1 PUSH1 0x40 MSTORE DUP1 MLOAD SWAP1 PUSH1 0x20 ADD KECCAK256 SWAP1 POP PUSH1 0x0 PUSH1 0x5 PUSH1 0x0 DUP4 DUP2 MSTORE PUSH1 0x20 ADD SWAP1 DUP2 MSTORE PUSH1 0x20 ADD PUSH1 0x0 KECCAK256 SWAP1 POP PUSH1 0x0 DUP2 PUSH1 0x5 ADD SLOAD EQ PUSH2 0xAF5 JUMPI PUSH1 0x40 MLOAD PUSH32 0x8C379A000000000000000000000000000000000000000000000000000000000 DUP2 MSTORE PUSH1 0x4 ADD PUSH2 0xAEC SWAP1 PUSH2 0x3018 JUMP JUMPDEST PUSH1 0x40 MLOAD DUP1 SWAP2 SUB SWAP1 REVERT JUMPDEST DUP8 DUP2 PUSH1 0x0 ADD PUSH1 0x0 PUSH2 0x100 EXP DUP2 SLOAD DUP2 PUSH20 0xFFFFFFFFFFFFFFFFFFFFFFFFFFFFFFFFFFFFFFFF MUL NOT AND SWAP1 DUP4 PUSH20 0xFFFFFFFFFFFFFFFFFFFFFFFFFFFFFFFFFFFFFFFF AND MUL OR SWAP1 SSTORE POP DUP7 DUP2 PUSH1 0x1 ADD PUSH1 0x0 PUSH2 0x100 EXP DUP2 SLOAD DUP2 PUSH20 0xFFFFFFFFFFFFFFFFFFFFFFFFFFFFFFFFFFFFFFFF MUL NOT AND SWAP1 DUP4 PUSH20 0xFFFFFFFFFFFFFFFFFFFFFFFFFFFFFFFFFFFFFFFF AND MUL OR SWAP1 SSTORE POP DUP6 DUP2 PUSH1 0x2 ADD DUP2 SWAP1 SSTORE POP DUP5 DUP2 PUSH1 0x3 ADD DUP2 SWAP1 SSTORE POP DUP4 DUP2 PUSH1 0x4 ADD DUP2 SWAP1 SSTORE POP DUP3 DUP2 PUSH1 0x5 ADD DUP2 SWAP1 SSTORE POP DUP2 PUSH32 0xD1D63CA2D9652ED1270A8D496CC69D3FE3515F37F20AC4FCEE0ED185E8BF8727 DUP10 DUP10 DUP10 DUP10 DUP10 DUP10 PUSH1 0x40 MLOAD PUSH2 0xBD9 SWAP7 SWAP6 SWAP5 SWAP4 SWAP3 SWAP2 SWAP1 PUSH2 0x3038 JUMP JUMPDEST PUSH1 0x40 MLOAD DUP1 SWAP2 SUB SWAP1 LOG2 POP POP POP POP POP POP POP POP JUMP JUMPDEST PUSH1 0x6 PUSH1 0x20 MSTORE DUP1 PUSH1 0x0 MSTORE PUSH1 0x40 PUSH1 0x0 KECCAK256 PUSH1 0x0 SWAP2 POP SWAP1 POP SLOAD DUP2 JUMP JUMPDEST PUSH2 0xC31 CALLER PUSH1 0x0 CALLDATALOAD PUSH32 0xFFFFFFFF00000000000000000000000000000000000000000000000000000000 AND PUSH2 0x23E5 JUMP JUMPDEST PUSH2 0xC70 JUMPI PUSH1 0x40 MLOAD PUSH32 0x8C379A000000000000000000000000000000000000000000000000000000000 DUP2 MSTORE PUSH1 0x4 ADD PUSH2 0xC67 SWAP1 PUSH2 0x2DAF JUMP JUMPDEST PUSH1 0x40 MLOAD DUP1 SWAP2 SUB SWAP1 REVERT JUMPDEST PUSH1 0x1 PUSH1 0x2 SLOAD EQ PUSH2 0xCB5 JUMPI PUSH1 0x40 MLOAD PUSH32 0x8C379A000000000000000000000000000000000000000000000000000000000 DUP2 MSTORE PUSH1 0x4 ADD PUSH2 0xCAC SWAP1 PUSH2 0x2A31 JUMP JUMPDEST PUSH1 0x40 MLOAD DUP1 SWAP2 SUB SWAP1 REVERT JUMPDEST PUSH1 0x2 DUP1 DUP2 SWAP1 SSTORE POP DUP1 PUSH1 0x3 SLOAD LT ISZERO PUSH2 0xD01 JUMPI PUSH1 0x40 MLOAD PUSH32 0x8C379A000000000000000000000000000000000000000000000000000000000 DUP2 MSTORE PUSH1 0x4 ADD PUSH2 0xCF8 SWAP1 PUSH2 0x30E5 JUMP JUMPDEST PUSH1 0x40 MLOAD DUP1 SWAP2 SUB SWAP1 REVERT JUMPDEST DUP1 PUSH1 0x3 PUSH1 0x0 DUP3 DUP3 SLOAD PUSH2 0xD13 SWAP2 SWAP1 PUSH2 0x3105 JUMP JUMPDEST SWAP3 POP POP DUP2 SWAP1 SSTORE POP PUSH1 0x4 PUSH1 0x0 SWAP1 SLOAD SWAP1 PUSH2 0x100 EXP SWAP1 DIV PUSH20 0xFFFFFFFFFFFFFFFFFFFFFFFFFFFFFFFFFFFFFFFF AND PUSH20 0xFFFFFFFFFFFFFFFFFFFFFFFFFFFFFFFFFFFFFFFF AND PUSH4 0x4FFD2E43 DUP3 ADDRESS PUSH1 0x40 MLOAD DUP4 PUSH4 0xFFFFFFFF AND PUSH1 0xE0 SHL DUP2 MSTORE PUSH1 0x4 ADD PUSH2 0xD76 SWAP2 SWAP1 PUSH2 0x2856 JUMP JUMPDEST PUSH1 0x0 PUSH1 0x40 MLOAD DUP1 DUP4 SUB DUP2 DUP6 DUP9 DUP1 EXTCODESIZE ISZERO DUP1 ISZERO PUSH2 0xD8F JUMPI PUSH1 0x0 DUP1 REVERT JUMPDEST POP GAS CALL ISZERO DUP1 ISZERO PUSH2 0xDA3 JUMPI RETURNDATASIZE PUSH1 0x0 DUP1 RETURNDATACOPY RETURNDATASIZE PUSH1 0x0 REVERT JUMPDEST POP POP POP POP POP PUSH1 0x1 PUSH1 0x2 DUP2 SWAP1 SSTORE POP POP JUMP JUMPDEST PUSH1 0x3 SLOAD DUP2 JUMP JUMPDEST PUSH1 0x0 DUP1 SLOAD SWAP1 PUSH2 0x100 EXP SWAP1 DIV PUSH20 0xFFFFFFFFFFFFFFFFFFFFFFFFFFFFFFFFFFFFFFFF AND PUSH20 0xFFFFFFFFFFFFFFFFFFFFFFFFFFFFFFFFFFFFFFFF AND CALLER PUSH20 0xFFFFFFFFFFFFFFFFFFFFFFFFFFFFFFFFFFFFFFFF AND EQ DUP1 PUSH2 0xED3 JUMPI POP PUSH1 0x1 PUSH1 0x0 SWAP1 SLOAD SWAP1 PUSH2 0x100 EXP SWAP1 DIV PUSH20 0xFFFFFFFFFFFFFFFFFFFFFFFFFFFFFFFFFFFFFFFF AND PUSH20 0xFFFFFFFFFFFFFFFFFFFFFFFFFFFFFFFFFFFFFFFF AND PUSH4 0xB7009613 CALLER ADDRESS PUSH1 0x0 CALLDATALOAD PUSH32 0xFFFFFFFF00000000000000000000000000000000000000000000000000000000 AND PUSH1 0x40 MLOAD DUP5 PUSH4 0xFFFFFFFF AND PUSH1 0xE0 SHL DUP2 MSTORE PUSH1 0x4 ADD PUSH2 0xE91 SWAP4 SWAP3 SWAP2 SWAP1 PUSH2 0x3174 JUMP JUMPDEST PUSH1 0x20 PUSH1 0x40 MLOAD DUP1 DUP4 SUB DUP2 DUP7 GAS STATICCALL ISZERO DUP1 ISZERO PUSH2 0xEAE JUMPI RETURNDATASIZE PUSH1 0x0 DUP1 RETURNDATACOPY RETURNDATASIZE PUSH1 0x0 REVERT JUMPDEST POP POP POP POP PUSH1 0x40 MLOAD RETURNDATASIZE PUSH1 0x1F NOT PUSH1 0x1F DUP3 ADD AND DUP3 ADD DUP1 PUSH1 0x40 MSTORE POP DUP2 ADD SWAP1 PUSH2 0xED2 SWAP2 SWAP1 PUSH2 0x31E3 JUMP JUMPDEST JUMPDEST PUSH2 0xEDC JUMPI PUSH1 0x0 DUP1 REVERT JUMPDEST DUP1 PUSH1 0x1 PUSH1 0x0 PUSH2 0x100 EXP DUP2 SLOAD DUP2 PUSH20 0xFFFFFFFFFFFFFFFFFFFFFFFFFFFFFFFFFFFFFFFF MUL NOT AND SWAP1 DUP4 PUSH20 0xFFFFFFFFFFFFFFFFFFFFFFFFFFFFFFFFFFFFFFFF AND MUL OR SWAP1 SSTORE POP DUP1 PUSH20 0xFFFFFFFFFFFFFFFFFFFFFFFFFFFFFFFFFFFFFFFF AND CALLER PUSH20 0xFFFFFFFFFFFFFFFFFFFFFFFFFFFFFFFFFFFFFFFF AND PUSH32 0xA3396FD7F6E0A21B50E5089D2DA70D5AC0A3BBBD1F617A93F134B76389980198 PUSH1 0x40 MLOAD PUSH1 0x40 MLOAD DUP1 SWAP2 SUB SWAP1 LOG3 POP JUMP JUMPDEST PUSH1 0x1 PUSH1 0x2 SLOAD EQ PUSH2 0xFBF JUMPI PUSH1 0x40 MLOAD PUSH32 0x8C379A000000000000000000000000000000000000000000000000000000000 DUP2 MSTORE PUSH1 0x4 ADD PUSH2 0xFB6 SWAP1 PUSH2 0x2A31 JUMP JUMPDEST PUSH1 0x40 MLOAD DUP1 SWAP2 SUB SWAP1 REVERT JUMPDEST PUSH1 0x2 DUP1 DUP2 SWAP1 SSTORE POP PUSH1 0x0 PUSH1 0x5 PUSH1 0x0 DUP4 DUP2 MSTORE PUSH1 0x20 ADD SWAP1 DUP2 MSTORE PUSH1 0x20 ADD PUSH1 0x0 KECCAK256 SWAP1 POP PUSH1 0x0 DUP2 PUSH1 0xA ADD DUP1 SLOAD SWAP1 POP GT PUSH2 0x1027 JUMPI PUSH1 0x40 MLOAD PUSH32 0x8C379A000000000000000000000000000000000000000000000000000000000 DUP2 MSTORE PUSH1 0x4 ADD PUSH2 0x101E SWAP1 PUSH2 0x2A9D JUMP JUMPDEST PUSH1 0x40 MLOAD DUP1 SWAP2 SUB SWAP1 REVERT JUMPDEST PUSH1 0x0 JUMPDEST DUP2 PUSH1 0x3 ADD SLOAD DUP2 LT ISZERO PUSH2 0x1220 JUMPI PUSH1 0x0 DUP3 PUSH1 0xA ADD DUP3 DUP2 SLOAD DUP2 LT PUSH2 0x104E JUMPI PUSH2 0x104D PUSH2 0x2B95 JUMP JUMPDEST JUMPDEST SWAP1 PUSH1 0x0 MSTORE PUSH1 0x20 PUSH1 0x0 KECCAK256 ADD PUSH1 0x0 SWAP1 SLOAD SWAP1 PUSH2 0x100 EXP SWAP1 DIV PUSH20 0xFFFFFFFFFFFFFFFFFFFFFFFFFFFFFFFFFFFFFFFF AND SWAP1 POP DUP3 PUSH1 0xB ADD PUSH1 0x0 DUP3 PUSH20 0xFFFFFFFFFFFFFFFFFFFFFFFFFFFFFFFFFFFFFFFF AND PUSH20 0xFFFFFFFFFFFFFFFFFFFFFFFFFFFFFFFFFFFFFFFF AND DUP2 MSTORE PUSH1 0x20 ADD SWAP1 DUP2 MSTORE PUSH1 0x20 ADD PUSH1 0x0 KECCAK256 PUSH1 0x0 SWAP1 SLOAD SWAP1 PUSH2 0x100 EXP SWAP1 DIV PUSH1 0xFF AND ISZERO PUSH2 0x10D5 JUMPI POP PUSH2 0x120D JUMP JUMPDEST PUSH1 0x1 DUP4 PUSH1 0xB ADD PUSH1 0x0 DUP4 PUSH20 0xFFFFFFFFFFFFFFFFFFFFFFFFFFFFFFFFFFFFFFFF AND PUSH20 0xFFFFFFFFFFFFFFFFFFFFFFFFFFFFFFFFFFFFFFFF AND DUP2 MSTORE PUSH1 0x20 ADD SWAP1 DUP2 MSTORE PUSH1 0x20 ADD PUSH1 0x0 KECCAK256 PUSH1 0x0 PUSH2 0x100 EXP DUP2 SLOAD DUP2 PUSH1 0xFF MUL NOT AND SWAP1 DUP4 ISZERO ISZERO MUL OR SWAP1 SSTORE POP DUP1 PUSH20 0xFFFFFFFFFFFFFFFFFFFFFFFFFFFFFFFFFFFFFFFF AND DUP5 PUSH32 0x6653A45D3871E4110FA55DAC0269F9F93A6D9078D402F7153594E50573D7F0CD PUSH1 0x40 MLOAD PUSH1 0x40 MLOAD DUP1 SWAP2 SUB SWAP1 LOG3 DUP3 PUSH1 0x1 ADD PUSH1 0x0 SWAP1 SLOAD SWAP1 PUSH2 0x100 EXP SWAP1 DIV PUSH20 0xFFFFFFFFFFFFFFFFFFFFFFFFFFFFFFFFFFFFFFFF AND PUSH20 0xFFFFFFFFFFFFFFFFFFFFFFFFFFFFFFFFFFFFFFFF AND PUSH4 0x731133E9 DUP3 DUP6 PUSH1 0x2 ADD SLOAD PUSH1 0x1 PUSH1 0x40 MLOAD DUP5 PUSH4 0xFFFFFFFF AND PUSH1 0xE0 SHL DUP2 MSTORE PUSH1 0x4 ADD PUSH2 0x11D9 SWAP4 SWAP3 SWAP2 SWAP1 PUSH2 0x2C36 JUMP JUMPDEST PUSH1 0x0 PUSH1 0x40 MLOAD DUP1 DUP4 SUB DUP2 PUSH1 0x0 DUP8 DUP1 EXTCODESIZE ISZERO DUP1 ISZERO PUSH2 0x11F3 JUMPI PUSH1 0x0 DUP1 REVERT JUMPDEST POP GAS CALL ISZERO DUP1 ISZERO PUSH2 0x1207 JUMPI RETURNDATASIZE PUSH1 0x0 DUP1 RETURNDATACOPY RETURNDATASIZE PUSH1 0x0 REVERT JUMPDEST POP POP POP POP POP JUMPDEST DUP1 DUP1 PUSH2 0x1218 SWAP1 PUSH2 0x2CAF JUMP JUMPDEST SWAP2 POP POP PUSH2 0x102A JUMP JUMPDEST POP POP PUSH1 0x1 PUSH1 0x2 DUP2 SWAP1 SSTORE POP POP JUMP JUMPDEST PUSH1 0x0 DUP1 SLOAD SWAP1 PUSH2 0x100 EXP SWAP1 DIV PUSH20 0xFFFFFFFFFFFFFFFFFFFFFFFFFFFFFFFFFFFFFFFF AND DUP2 JUMP JUMPDEST PUSH2 0x127F CALLER PUSH1 0x0 CALLDATALOAD PUSH32 0xFFFFFFFF00000000000000000000000000000000000000000000000000000000 AND PUSH2 0x23E5 JUMP JUMPDEST PUSH2 0x12BE JUMPI PUSH1 0x40 MLOAD PUSH32 0x8C379A000000000000000000000000000000000000000000000000000000000 DUP2 MSTORE PUSH1 0x4 ADD PUSH2 0x12B5 SWAP1 PUSH2 0x2DAF JUMP JUMPDEST PUSH1 0x40 MLOAD DUP1 SWAP2 SUB SWAP1 REVERT JUMPDEST PUSH1 0x1 PUSH1 0x2 SLOAD EQ PUSH2 0x1303 JUMPI PUSH1 0x40 MLOAD PUSH32 0x8C379A000000000000000000000000000000000000000000000000000000000 DUP2 MSTORE PUSH1 0x4 ADD PUSH2 0x12FA SWAP1 PUSH2 0x2A31 JUMP JUMPDEST PUSH1 0x40 MLOAD DUP1 SWAP2 SUB SWAP1 REVERT JUMPDEST PUSH1 0x2 DUP1 DUP2 SWAP1 SSTORE POP DUP1 PUSH1 0x3 SLOAD LT ISZERO PUSH2 0x134F JUMPI PUSH1 0x40 MLOAD PUSH32 0x8C379A000000000000000000000000000000000000000000000000000000000 DUP2 MSTORE PUSH1 0x4 ADD PUSH2 0x1346 SWAP1 PUSH2 0x30E5 JUMP JUMPDEST PUSH1 0x40 MLOAD DUP1 SWAP2 SUB SWAP1 REVERT JUMPDEST DUP1 PUSH1 0x3 PUSH1 0x0 DUP3 DUP3 SLOAD PUSH2 0x1361 SWAP2 SWAP1 PUSH2 0x3105 JUMP JUMPDEST SWAP3 POP POP DUP2 SWAP1 SSTORE POP PUSH1 0x0 CALLER PUSH20 0xFFFFFFFFFFFFFFFFFFFFFFFFFFFFFFFFFFFFFFFF AND PUSH2 0x8FC DUP4 SWAP1 DUP2 ISZERO MUL SWAP1 PUSH1 0x40 MLOAD PUSH1 0x0 PUSH1 0x40 MLOAD DUP1 DUP4 SUB DUP2 DUP6 DUP9 DUP9 CALL SWAP4 POP POP POP POP SWAP1 POP DUP1 PUSH2 0x13E1 JUMPI PUSH1 0x40 MLOAD PUSH32 0x8C379A000000000000000000000000000000000000000000000000000000000 DUP2 MSTORE PUSH1 0x4 ADD PUSH2 0x13D8 SWAP1 PUSH2 0x325C JUMP JUMPDEST PUSH1 0x40 MLOAD DUP1 SWAP2 SUB SWAP1 REVERT JUMPDEST POP PUSH1 0x1 PUSH1 0x2 DUP2 SWAP1 SSTORE POP POP JUMP JUMPDEST PUSH1 0x1 PUSH1 0x0 SWAP1 SLOAD SWAP1 PUSH2 0x100 EXP SWAP1 DIV PUSH20 0xFFFFFFFFFFFFFFFFFFFFFFFFFFFFFFFFFFFFFFFF AND DUP2 JUMP JUMPDEST PUSH2 0x1441 CALLER PUSH1 0x0 CALLDATALOAD PUSH32 0xFFFFFFFF00000000000000000000000000000000000000000000000000000000 AND PUSH2 0x23E5 JUMP JUMPDEST PUSH2 0x1480 JUMPI PUSH1 0x40 MLOAD PUSH32 0x8C379A000000000000000000000000000000000000000000000000000000000 DUP2 MSTORE PUSH1 0x4 ADD PUSH2 0x1477 SWAP1 PUSH2 0x2DAF JUMP JUMPDEST PUSH1 0x40 MLOAD DUP1 SWAP2 SUB SWAP1 REVERT JUMPDEST PUSH1 0x1 PUSH1 0x2 SLOAD EQ PUSH2 0x14C5 JUMPI PUSH1 0x40 MLOAD PUSH32 0x8C379A000000000000000000000000000000000000000000000000000000000 DUP2 MSTORE PUSH1 0x4 ADD PUSH2 0x14BC SWAP1 PUSH2 0x2A31 JUMP JUMPDEST PUSH1 0x40 MLOAD DUP1 SWAP2 SUB SWAP1 REVERT JUMPDEST PUSH1 0x2 DUP1 DUP2 SWAP1 SSTORE POP DUP1 PUSH1 0x3 PUSH1 0x0 DUP3 DUP3 SLOAD PUSH2 0x14DE SWAP2 SWAP1 PUSH2 0x327C JUMP JUMPDEST SWAP3 POP POP DUP2 SWAP1 SSTORE POP PUSH1 0x4 PUSH1 0x0 SWAP1 SLOAD SWAP1 PUSH2 0x100 EXP SWAP1 DIV PUSH20 0xFFFFFFFFFFFFFFFFFFFFFFFFFFFFFFFFFFFFFFFF AND PUSH20 0xFFFFFFFFFFFFFFFFFFFFFFFFFFFFFFFFFFFFFFFF AND PUSH4 0x2465F8F5 ADDRESS DUP4 PUSH1 0x40 MLOAD DUP4 PUSH4 0xFFFFFFFF AND PUSH1 0xE0 SHL DUP2 MSTORE PUSH1 0x4 ADD PUSH2 0x1542 SWAP3 SWAP2 SWAP1 PUSH2 0x32B0 JUMP JUMPDEST PUSH1 0x0 PUSH1 0x40 MLOAD DUP1 DUP4 SUB DUP2 PUSH1 0x0 DUP8 DUP1 EXTCODESIZE ISZERO DUP1 ISZERO PUSH2 0x155C JUMPI PUSH1 0x0 DUP1 REVERT JUMPDEST POP GAS CALL ISZERO DUP1 ISZERO PUSH2 0x1570 JUMPI RETURNDATASIZE PUSH1 0x0 DUP1 RETURNDATACOPY RETURNDATASIZE PUSH1 0x0 REVERT JUMPDEST POP POP POP POP PUSH1 0x1 PUSH1 0x2 DUP2 SWAP1 SSTORE POP POP JUMP JUMPDEST PUSH1 0x1 PUSH1 0x2 SLOAD EQ PUSH2 0x15C4 JUMPI PUSH1 0x40 MLOAD PUSH32 0x8C379A000000000000000000000000000000000000000000000000000000000 DUP2 MSTORE PUSH1 0x4 ADD PUSH2 0x15BB SWAP1 PUSH2 0x2A31 JUMP JUMPDEST PUSH1 0x40 MLOAD DUP1 SWAP2 SUB SWAP1 REVERT JUMPDEST PUSH1 0x2 DUP1 DUP2 SWAP1 SSTORE POP PUSH1 0x0 PUSH1 0x5 PUSH1 0x0 DUP4 DUP2 MSTORE PUSH1 0x20 ADD SWAP1 DUP2 MSTORE PUSH1 0x20 ADD PUSH1 0x0 KECCAK256 SWAP1 POP PUSH1 0x0 DUP2 PUSH1 0x5 ADD SLOAD SUB PUSH2 0x1629 JUMPI PUSH1 0x40 MLOAD PUSH32 0x8C379A000000000000000000000000000000000000000000000000000000000 DUP2 MSTORE PUSH1 0x4 ADD PUSH2 0x1620 SWAP1 PUSH2 0x3325 JUMP JUMPDEST PUSH1 0x40 MLOAD DUP1 SWAP2 SUB SWAP1 REVERT JUMPDEST DUP1 PUSH1 0x5 ADD SLOAD TIMESTAMP LT ISZERO PUSH2 0x1670 JUMPI PUSH1 0x40 MLOAD PUSH32 0x8C379A000000000000000000000000000000000000000000000000000000000 DUP2 MSTORE PUSH1 0x4 ADD PUSH2 0x1667 SWAP1 PUSH2 0x3391 JUMP JUMPDEST PUSH1 0x40 MLOAD DUP1 SWAP2 SUB SWAP1 REVERT JUMPDEST PUSH1 0x0 DUP2 PUSH1 0x9 ADD SLOAD EQ PUSH2 0x16B7 JUMPI PUSH1 0x40 MLOAD PUSH32 0x8C379A000000000000000000000000000000000000000000000000000000000 DUP2 MSTORE PUSH1 0x4 ADD PUSH2 0x16AE SWAP1 PUSH2 0x33FD JUMP JUMPDEST PUSH1 0x40 MLOAD DUP1 SWAP2 SUB SWAP1 REVERT JUMPDEST PUSH1 0x4 PUSH1 0x0 SWAP1 SLOAD SWAP1 PUSH2 0x100 EXP SWAP1 DIV PUSH20 0xFFFFFFFFFFFFFFFFFFFFFFFFFFFFFFFFFFFFFFFF AND PUSH20 0xFFFFFFFFFFFFFFFFFFFFFFFFFFFFFFFFFFFFFFFF AND PUSH4 0xD845A4B3 PUSH2 0xC350 PUSH1 0x40 MLOAD DUP3 PUSH4 0xFFFFFFFF AND PUSH1 0xE0 SHL DUP2 MSTORE PUSH1 0x4 ADD PUSH2 0x1714 SWAP2 SWAP1 PUSH2 0x3458 JUMP JUMPDEST PUSH1 0x20 PUSH1 0x40 MLOAD DUP1 DUP4 SUB DUP2 PUSH1 0x0 DUP8 GAS CALL ISZERO DUP1 ISZERO PUSH2 0x1733 JUMPI RETURNDATASIZE PUSH1 0x0 DUP1 RETURNDATACOPY RETURNDATASIZE PUSH1 0x0 REVERT JUMPDEST POP POP POP POP PUSH1 0x40 MLOAD RETURNDATASIZE PUSH1 0x1F NOT PUSH1 0x1F DUP3 ADD AND DUP3 ADD DUP1 PUSH1 0x40 MSTORE POP DUP2 ADD SWAP1 PUSH2 0x1757 SWAP2 SWAP1 PUSH2 0x3488 JUMP JUMPDEST DUP2 PUSH1 0x9 ADD DUP2 SWAP1 SSTORE POP DUP2 PUSH1 0x6 PUSH1 0x0 DUP4 PUSH1 0x9 ADD SLOAD DUP2 MSTORE PUSH1 0x20 ADD SWAP1 DUP2 MSTORE PUSH1 0x20 ADD PUSH1 0x0 KECCAK256 DUP2 SWAP1 SSTORE POP POP PUSH1 0x1 PUSH1 0x2 DUP2 SWAP1 SSTORE POP POP JUMP JUMPDEST PUSH1 0x0 PUSH1 0x5 PUSH1 0x0 DUP5 DUP2 MSTORE PUSH1 0x20 ADD SWAP1 DUP2 MSTORE PUSH1 0x20 ADD PUSH1 0x0 KECCAK256 SWAP1 POP PUSH1 0x0 DUP2 PUSH1 0x5 ADD SLOAD SUB PUSH2 0x17E5 JUMPI PUSH1 0x40 MLOAD PUSH32 0x8C379A000000000000000000000000000000000000000000000000000000000 DUP2 MSTORE PUSH1 0x4 ADD PUSH2 0x17DC SWAP1 PUSH2 0x3325 JUMP JUMPDEST PUSH1 0x40 MLOAD DUP1 SWAP2 SUB SWAP1 REVERT JUMPDEST DUP1 PUSH1 0x5 ADD SLOAD TIMESTAMP LT PUSH2 0x182B JUMPI PUSH1 0x40 MLOAD PUSH32 0x8C379A000000000000000000000000000000000000000000000000000000000 DUP2 MSTORE PUSH1 0x4 ADD PUSH2 0x1822 SWAP1 PUSH2 0x3501 JUMP JUMPDEST PUSH1 0x40 MLOAD DUP1 SWAP2 SUB SWAP1 REVERT JUMPDEST CALLVALUE DUP2 PUSH1 0x4 ADD SLOAD EQ PUSH2 0x1871 JUMPI PUSH1 0x40 MLOAD PUSH32 0x8C379A000000000000000000000000000000000000000000000000000000000 DUP2 MSTORE PUSH1 0x4 ADD PUSH2 0x1868 SWAP1 PUSH2 0x35B9 JUMP JUMPDEST PUSH1 0x40 MLOAD DUP1 SWAP2 SUB SWAP1 REVERT JUMPDEST DUP1 PUSH1 0x7 ADD PUSH1 0x0 CALLER PUSH20 0xFFFFFFFFFFFFFFFFFFFFFFFFFFFFFFFFFFFFFFFF AND PUSH20 0xFFFFFFFFFFFFFFFFFFFFFFFFFFFFFFFFFFFFFFFF AND DUP2 MSTORE PUSH1 0x20 ADD SWAP1 DUP2 MSTORE PUSH1 0x20 ADD PUSH1 0x0 KECCAK256 PUSH1 0x0 SWAP1 SLOAD SWAP1 PUSH2 0x100 EXP SWAP1 DIV PUSH1 0xFF AND ISZERO PUSH2 0x1900 JUMPI PUSH1 0x40 MLOAD PUSH32 0x8C379A000000000000000000000000000000000000000000000000000000000 DUP2 MSTORE PUSH1 0x4 ADD PUSH2 0x18F7 SWAP1 PUSH2 0x364B JUMP JUMPDEST PUSH1 0x40 MLOAD DUP1 SWAP2 SUB SWAP1 REVERT JUMPDEST CALLER PUSH20 0xFFFFFFFFFFFFFFFFFFFFFFFFFFFFFFFFFFFFFFFF AND DUP2 PUSH1 0x0 ADD PUSH1 0x0 SWAP1 SLOAD SWAP1 PUSH2 0x100 EXP SWAP1 DIV PUSH20 0xFFFFFFFFFFFFFFFFFFFFFFFFFFFFFFFFFFFFFFFF AND PUSH20 0xFFFFFFFFFFFFFFFFFFFFFFFFFFFFFFFFFFFFFFFF AND PUSH4 0x6352211E DUP5 PUSH1 0x40 MLOAD DUP3 PUSH4 0xFFFFFFFF AND PUSH1 0xE0 SHL DUP2 MSTORE PUSH1 0x4 ADD PUSH2 0x1974 SWAP2 SWAP1 PUSH2 0x27D0 JUMP JUMPDEST PUSH1 0x20 PUSH1 0x40 MLOAD DUP1 DUP4 SUB DUP2 DUP7 GAS STATICCALL ISZERO DUP1 ISZERO PUSH2 0x1991 JUMPI RETURNDATASIZE PUSH1 0x0 DUP1 RETURNDATACOPY RETURNDATASIZE PUSH1 0x0 REVERT JUMPDEST POP POP POP POP PUSH1 0x40 MLOAD RETURNDATASIZE PUSH1 0x1F NOT PUSH1 0x1F DUP3 ADD AND DUP3 ADD DUP1 PUSH1 0x40 MSTORE POP DUP2 ADD SWAP1 PUSH2 0x19B5 SWAP2 SWAP1 PUSH2 0x3680 JUMP JUMPDEST PUSH20 0xFFFFFFFFFFFFFFFFFFFFFFFFFFFFFFFFFFFFFFFF AND EQ PUSH2 0x1A0B JUMPI PUSH1 0x40 MLOAD PUSH32 0x8C379A000000000000000000000000000000000000000000000000000000000 DUP2 MSTORE PUSH1 0x4 ADD PUSH2 0x1A02 SWAP1 PUSH2 0x36F9 JUMP JUMPDEST PUSH1 0x40 MLOAD DUP1 SWAP2 SUB SWAP1 REVERT JUMPDEST DUP1 PUSH1 0x8 ADD PUSH1 0x0 DUP4 DUP2 MSTORE PUSH1 0x20 ADD SWAP1 DUP2 MSTORE PUSH1 0x20 ADD PUSH1 0x0 KECCAK256 PUSH1 0x0 SWAP1 SLOAD SWAP1 PUSH2 0x100 EXP SWAP1 DIV PUSH1 0xFF AND ISZERO PUSH2 0x1A6E JUMPI PUSH1 0x40 MLOAD PUSH32 0x8C379A000000000000000000000000000000000000000000000000000000000 DUP2 MSTORE PUSH1 0x4 ADD PUSH2 0x1A65 SWAP1 PUSH2 0x378B JUMP JUMPDEST PUSH1 0x40 MLOAD DUP1 SWAP2 SUB SWAP1 REVERT JUMPDEST DUP1 PUSH1 0x6 ADD CALLER SWAP1 DUP1 PUSH1 0x1 DUP2 SLOAD ADD DUP1 DUP3 SSTORE DUP1 SWAP2 POP POP PUSH1 0x1 SWAP1 SUB SWAP1 PUSH1 0x0 MSTORE PUSH1 0x20 PUSH1 0x0 KECCAK256 ADD PUSH1 0x0 SWAP1 SWAP2 SWAP1 SWAP2 SWAP1 SWAP2 PUSH2 0x100 EXP DUP2 SLOAD DUP2 PUSH20 0xFFFFFFFFFFFFFFFFFFFFFFFFFFFFFFFFFFFFFFFF MUL NOT AND SWAP1 DUP4 PUSH20 0xFFFFFFFFFFFFFFFFFFFFFFFFFFFFFFFFFFFFFFFF AND MUL OR SWAP1 SSTORE POP PUSH1 0x1 DUP2 PUSH1 0x7 ADD PUSH1 0x0 CALLER PUSH20 0xFFFFFFFFFFFFFFFFFFFFFFFFFFFFFFFFFFFFFFFF AND PUSH20 0xFFFFFFFFFFFFFFFFFFFFFFFFFFFFFFFFFFFFFFFF AND DUP2 MSTORE PUSH1 0x20 ADD SWAP1 DUP2 MSTORE PUSH1 0x20 ADD PUSH1 0x0 KECCAK256 PUSH1 0x0 PUSH2 0x100 EXP DUP2 SLOAD DUP2 PUSH1 0xFF MUL NOT AND SWAP1 DUP4 ISZERO ISZERO MUL OR SWAP1 SSTORE POP PUSH1 0x1 DUP2 PUSH1 0x8 ADD PUSH1 0x0 DUP5 DUP2 MSTORE PUSH1 0x20 ADD SWAP1 DUP2 MSTORE PUSH1 0x20 ADD PUSH1 0x0 KECCAK256 PUSH1 0x0 PUSH2 0x100 EXP DUP2 SLOAD DUP2 PUSH1 0xFF MUL NOT AND SWAP1 DUP4 ISZERO ISZERO MUL OR SWAP1 SSTORE POP CALLER PUSH20 0xFFFFFFFFFFFFFFFFFFFFFFFFFFFFFFFFFFFFFFFF AND DUP4 PUSH32 0x610BE20F88AD2726DBAABFA843E556E8D9F6F1B6A98A2894DC8D7AC215355A64 DUP5 PUSH1 0x40 MLOAD PUSH2 0x1BA2 SWAP2 SWAP1 PUSH2 0x27D0 JUMP JUMPDEST PUSH1 0x40 MLOAD DUP1 SWAP2 SUB SWAP1 LOG3 POP POP POP JUMP JUMPDEST PUSH1 0x1 PUSH1 0x2 SLOAD EQ PUSH2 0x1BF4 JUMPI PUSH1 0x40 MLOAD PUSH32 0x8C379A000000000000000000000000000000000000000000000000000000000 DUP2 MSTORE PUSH1 0x4 ADD PUSH2 0x1BEB SWAP1 PUSH2 0x2A31 JUMP JUMPDEST PUSH1 0x40 MLOAD DUP1 SWAP2 SUB SWAP1 REVERT JUMPDEST PUSH1 0x2 DUP1 DUP2 SWAP1 SSTORE POP PUSH1 0x4 PUSH1 0x0 SWAP1 SLOAD SWAP1 PUSH2 0x100 EXP SWAP1 DIV PUSH20 0xFFFFFFFFFFFFFFFFFFFFFFFFFFFFFFFFFFFFFFFF AND PUSH20 0xFFFFFFFFFFFFFFFFFFFFFFFFFFFFFFFFFFFFFFFF AND CALLER PUSH20 0xFFFFFFFFFFFFFFFFFFFFFFFFFFFFFFFFFFFFFFFF AND EQ PUSH2 0x1C8B JUMPI PUSH1 0x40 MLOAD PUSH32 0x8C379A000000000000000000000000000000000000000000000000000000000 DUP2 MSTORE PUSH1 0x4 ADD PUSH2 0x1C82 SWAP1 PUSH2 0x37F7 JUMP JUMPDEST PUSH1 0x40 MLOAD DUP1 SWAP2 SUB SWAP1 REVERT JUMPDEST PUSH1 0x0 PUSH1 0x6 PUSH1 0x0 DUP5 DUP2 MSTORE PUSH1 0x20 ADD SWAP1 DUP2 MSTORE PUSH1 0x20 ADD PUSH1 0x0 KECCAK256 SLOAD SWAP1 POP PUSH1 0x0 PUSH1 0x5 PUSH1 0x0 DUP4 DUP2 MSTORE PUSH1 0x20 ADD SWAP1 DUP2 MSTORE PUSH1 0x20 ADD PUSH1 0x0 KECCAK256 SWAP1 POP DUP4 DUP2 PUSH1 0x9 ADD SLOAD EQ PUSH2 0x1D00 JUMPI PUSH1 0x40 MLOAD PUSH32 0x8C379A000000000000000000000000000000000000000000000000000000000 DUP2 MSTORE PUSH1 0x4 ADD PUSH2 0x1CF7 SWAP1 PUSH2 0x3863 JUMP JUMPDEST PUSH1 0x40 MLOAD DUP1 SWAP2 SUB SWAP1 REVERT JUMPDEST PUSH1 0x0 DUP4 PUSH1 0x0 SHR SWAP1 POP PUSH1 0x0 JUMPDEST DUP3 PUSH1 0x3 ADD SLOAD DUP2 LT ISZERO PUSH2 0x1F32 JUMPI PUSH1 0x0 DUP2 DUP3 DUP6 PUSH1 0x6 ADD DUP1 SLOAD SWAP1 POP PUSH2 0x1D2D SWAP2 SWAP1 PUSH2 0x3105 JUMP JUMPDEST DUP5 DUP5 PUSH1 0x40 MLOAD PUSH1 0x20 ADD PUSH2 0x1D40 SWAP3 SWAP2 SWAP1 PUSH2 0x3883 JUMP JUMPDEST PUSH1 0x40 MLOAD PUSH1 0x20 DUP2 DUP4 SUB SUB DUP2 MSTORE SWAP1 PUSH1 0x40 MSTORE DUP1 MLOAD SWAP1 PUSH1 0x20 ADD KECCAK256 PUSH1 0x0 SHR PUSH2 0x1D63 SWAP2 SWAP1 PUSH2 0x38DE JUMP JUMPDEST PUSH2 0x1D6D SWAP2 SWAP1 PUSH2 0x327C JUMP JUMPDEST SWAP1 POP PUSH1 0x0 DUP5 PUSH1 0x6 ADD DUP3 DUP2 SLOAD DUP2 LT PUSH2 0x1D87 JUMPI PUSH2 0x1D86 PUSH2 0x2B95 JUMP JUMPDEST JUMPDEST SWAP1 PUSH1 0x0 MSTORE PUSH1 0x20 PUSH1 0x0 KECCAK256 ADD PUSH1 0x0 SWAP1 SLOAD SWAP1 PUSH2 0x100 EXP SWAP1 DIV PUSH20 0xFFFFFFFFFFFFFFFFFFFFFFFFFFFFFFFFFFFFFFFF AND SWAP1 POP DUP5 PUSH1 0xA ADD DUP2 SWAP1 DUP1 PUSH1 0x1 DUP2 SLOAD ADD DUP1 DUP3 SSTORE DUP1 SWAP2 POP POP PUSH1 0x1 SWAP1 SUB SWAP1 PUSH1 0x0 MSTORE PUSH1 0x20 PUSH1 0x0 KECCAK256 ADD PUSH1 0x0 SWAP1 SWAP2 SWAP1 SWAP2 SWAP1 SWAP2 PUSH2 0x100 EXP DUP2 SLOAD DUP2 PUSH20 0xFFFFFFFFFFFFFFFFFFFFFFFFFFFFFFFFFFFFFFFF MUL NOT AND SWAP1 DUP4 PUSH20 0xFFFFFFFFFFFFFFFFFFFFFFFFFFFFFFFFFFFFFFFF AND MUL OR SWAP1 SSTORE POP PUSH1 0x0 DUP6 PUSH1 0x6 ADD DUP5 DUP2 SLOAD DUP2 LT PUSH2 0x1E31 JUMPI PUSH2 0x1E30 PUSH2 0x2B95 JUMP JUMPDEST JUMPDEST SWAP1 PUSH1 0x0 MSTORE PUSH1 0x20 PUSH1 0x0 KECCAK256 ADD PUSH1 0x0 SWAP1 SLOAD SWAP1 PUSH2 0x100 EXP SWAP1 DIV PUSH20 0xFFFFFFFFFFFFFFFFFFFFFFFFFFFFFFFFFFFFFFFF AND SWAP1 POP DUP2 DUP7 PUSH1 0x6 ADD DUP6 DUP2 SLOAD DUP2 LT PUSH2 0x1E75 JUMPI PUSH2 0x1E74 PUSH2 0x2B95 JUMP JUMPDEST JUMPDEST SWAP1 PUSH1 0x0 MSTORE PUSH1 0x20 PUSH1 0x0 KECCAK256 ADD PUSH1 0x0 PUSH2 0x100 EXP DUP2 SLOAD DUP2 PUSH20 0xFFFFFFFFFFFFFFFFFFFFFFFFFFFFFFFFFFFFFFFF MUL NOT AND SWAP1 DUP4 PUSH20 0xFFFFFFFFFFFFFFFFFFFFFFFFFFFFFFFFFFFFFFFF AND MUL OR SWAP1 SSTORE POP DUP1 DUP7 PUSH1 0x6 ADD DUP5 DUP2 SLOAD DUP2 LT PUSH2 0x1ED4 JUMPI PUSH2 0x1ED3 PUSH2 0x2B95 JUMP JUMPDEST JUMPDEST SWAP1 PUSH1 0x0 MSTORE PUSH1 0x20 PUSH1 0x0 KECCAK256 ADD PUSH1 0x0 PUSH2 0x100 EXP DUP2 SLOAD DUP2 PUSH20 0xFFFFFFFFFFFFFFFFFFFFFFFFFFFFFFFFFFFFFFFF MUL NOT AND SWAP1 DUP4 PUSH20 0xFFFFFFFFFFFFFFFFFFFFFFFFFFFFFFFFFFFFFFFF AND MUL OR SWAP1 SSTORE POP POP POP POP DUP1 DUP1 PUSH2 0x1F2A SWAP1 PUSH2 0x2CAF JUMP JUMPDEST SWAP2 POP POP PUSH2 0x1D0B JUMP JUMPDEST POP DUP2 PUSH1 0x3 ADD SLOAD DUP3 PUSH1 0x4 ADD SLOAD PUSH2 0x1F47 SWAP2 SWAP1 PUSH2 0x390F JUMP JUMPDEST PUSH1 0x3 PUSH1 0x0 DUP3 DUP3 SLOAD PUSH2 0x1F58 SWAP2 SWAP1 PUSH2 0x327C JUMP JUMPDEST SWAP3 POP POP DUP2 SWAP1 SSTORE POP POP POP POP PUSH1 0x1 PUSH1 0x2 DUP2 SWAP1 SSTORE POP POP POP JUMP JUMPDEST PUSH1 0x4 PUSH1 0x0 SWAP1 SLOAD SWAP1 PUSH2 0x100 EXP SWAP1 DIV PUSH20 0xFFFFFFFFFFFFFFFFFFFFFFFFFFFFFFFFFFFFFFFF AND DUP2 JUMP JUMPDEST PUSH2 0x1FC2 CALLER PUSH1 0x0 CALLDATALOAD PUSH32 0xFFFFFFFF00000000000000000000000000000000000000000000000000000000 AND PUSH2 0x23E5 JUMP JUMPDEST PUSH2 0x2001 JUMPI PUSH1 0x40 MLOAD PUSH32 0x8C379A000000000000000000000000000000000000000000000000000000000 DUP2 MSTORE PUSH1 0x4 ADD PUSH2 0x1FF8 SWAP1 PUSH2 0x2DAF JUMP JUMPDEST PUSH1 0x40 MLOAD DUP1 SWAP2 SUB SWAP1 REVERT JUMPDEST DUP1 PUSH1 0x0 DUP1 PUSH2 0x100 EXP DUP2 SLOAD DUP2 PUSH20 0xFFFFFFFFFFFFFFFFFFFFFFFFFFFFFFFFFFFFFFFF MUL NOT AND SWAP1 DUP4 PUSH20 0xFFFFFFFFFFFFFFFFFFFFFFFFFFFFFFFFFFFFFFFF AND MUL OR SWAP1 SSTORE POP DUP1 PUSH20 0xFFFFFFFFFFFFFFFFFFFFFFFFFFFFFFFFFFFFFFFF AND CALLER PUSH20 0xFFFFFFFFFFFFFFFFFFFFFFFFFFFFFFFFFFFFFFFF AND PUSH32 0x8BE0079C531659141344CD1FD0A4F28419497F9722A3DAAFE3B4186F6B6457E0 PUSH1 0x40 MLOAD PUSH1 0x40 MLOAD DUP1 SWAP2 SUB SWAP1 LOG3 POP JUMP JUMPDEST PUSH1 0x1 PUSH1 0x2 SLOAD EQ PUSH2 0x20E3 JUMPI PUSH1 0x40 MLOAD PUSH32 0x8C379A000000000000000000000000000000000000000000000000000000000 DUP2 MSTORE PUSH1 0x4 ADD PUSH2 0x20DA SWAP1 PUSH2 0x2A31 JUMP JUMPDEST PUSH1 0x40 MLOAD DUP1 SWAP2 SUB SWAP1 REVERT JUMPDEST PUSH1 0x2 DUP1 DUP2 SWAP1 SSTORE POP PUSH1 0x0 PUSH1 0x5 PUSH1 0x0 DUP5 DUP2 MSTORE PUSH1 0x20 ADD SWAP1 DUP2 MSTORE PUSH1 0x20 ADD PUSH1 0x0 KECCAK256 SWAP1 POP PUSH1 0x0 DUP2 PUSH1 0x5 ADD SLOAD SUB PUSH2 0x2148 JUMPI PUSH1 0x40 MLOAD PUSH32 0x8C379A000000000000000000000000000000000000000000000000000000000 DUP2 MSTORE PUSH1 0x4 ADD PUSH2 0x213F SWAP1 PUSH2 0x3325 JUMP JUMPDEST PUSH1 0x40 MLOAD DUP1 SWAP2 SUB SWAP1 REVERT JUMPDEST PUSH3 0x278D00 DUP2 PUSH1 0x5 ADD SLOAD PUSH2 0x215B SWAP2 SWAP1 PUSH2 0x327C JUMP JUMPDEST TIMESTAMP GT PUSH2 0x219C JUMPI PUSH1 0x40 MLOAD PUSH32 0x8C379A000000000000000000000000000000000000000000000000000000000 DUP2 MSTORE PUSH1 0x4 ADD PUSH2 0x2193 SWAP1 PUSH2 0x39C3 JUMP JUMPDEST PUSH1 0x40 MLOAD DUP1 SWAP2 SUB SWAP1 REVERT JUMPDEST PUSH1 0x0 DUP2 PUSH1 0x4 ADD SLOAD GT PUSH2 0x21E3 JUMPI PUSH1 0x40 MLOAD PUSH32 0x8C379A000000000000000000000000000000000000000000000000000000000 DUP2 MSTORE PUSH1 0x4 ADD PUSH2 0x21DA SWAP1 PUSH2 0x3A2F JUMP JUMPDEST PUSH1 0x40 MLOAD DUP1 SWAP2 SUB SWAP1 REVERT JUMPDEST DUP1 PUSH1 0x7 ADD PUSH1 0x0 DUP4 PUSH20 0xFFFFFFFFFFFFFFFFFFFFFFFFFFFFFFFFFFFFFFFF AND PUSH20 0xFFFFFFFFFFFFFFFFFFFFFFFFFFFFFFFFFFFFFFFF AND DUP2 MSTORE PUSH1 0x20 ADD SWAP1 DUP2 MSTORE PUSH1 0x20 ADD PUSH1 0x0 KECCAK256 PUSH1 0x0 SWAP1 SLOAD SWAP1 PUSH2 0x100 EXP SWAP1 DIV PUSH1 0xFF AND PUSH2 0x2271 JUMPI PUSH1 0x40 MLOAD PUSH32 0x8C379A000000000000000000000000000000000000000000000000000000000 DUP2 MSTORE PUSH1 0x4 ADD PUSH2 0x2268 SWAP1 PUSH2 0x2B75 JUMP JUMPDEST PUSH1 0x40 MLOAD DUP1 SWAP2 SUB SWAP1 REVERT JUMPDEST DUP1 PUSH1 0xB ADD PUSH1 0x0 DUP4 PUSH20 0xFFFFFFFFFFFFFFFFFFFFFFFFFFFFFFFFFFFFFFFF AND PUSH20 0xFFFFFFFFFFFFFFFFFFFFFFFFFFFFFFFFFFFFFFFF AND DUP2 MSTORE PUSH1 0x20 ADD SWAP1 DUP2 MSTORE PUSH1 0x20 ADD PUSH1 0x0 KECCAK256 PUSH1 0x0 SWAP1 SLOAD SWAP1 PUSH2 0x100 EXP SWAP1 DIV PUSH1 0xFF AND ISZERO PUSH2 0x2300 JUMPI PUSH1 0x40 MLOAD PUSH32 0x8C379A000000000000000000000000000000000000000000000000000000000 DUP2 MSTORE PUSH1 0x4 ADD PUSH2 0x22F7 SWAP1 PUSH2 0x2B09 JUMP JUMPDEST PUSH1 0x40 MLOAD DUP1 SWAP2 SUB SWAP1 REVERT JUMPDEST PUSH1 0x1 DUP2 PUSH1 0xB ADD PUSH1 0x0 DUP5 PUSH20 0xFFFFFFFFFFFFFFFFFFFFFFFFFFFFFFFFFFFFFFFF AND PUSH20 0xFFFFFFFFFFFFFFFFFFFFFFFFFFFFFFFFFFFFFFFF AND DUP2 MSTORE PUSH1 0x20 ADD SWAP1 DUP2 MSTORE PUSH1 0x20 ADD PUSH1 0x0 KECCAK256 PUSH1 0x0 PUSH2 0x100 EXP DUP2 SLOAD DUP2 PUSH1 0xFF MUL NOT AND SWAP1 DUP4 ISZERO ISZERO MUL OR SWAP1 SSTORE POP PUSH1 0x0 DUP3 PUSH20 0xFFFFFFFFFFFFFFFFFFFFFFFFFFFFFFFFFFFFFFFF AND PUSH2 0x8FC DUP4 PUSH1 0x4 ADD SLOAD SWAP1 DUP2 ISZERO MUL SWAP1 PUSH1 0x40 MLOAD PUSH1 0x0 PUSH1 0x40 MLOAD DUP1 DUP4 SUB DUP2 DUP6 DUP9 DUP9 CALL SWAP4 POP POP POP POP SWAP1 POP DUP1 PUSH2 0x23D7 JUMPI PUSH1 0x40 MLOAD PUSH32 0x8C379A000000000000000000000000000000000000000000000000000000000 DUP2 MSTORE PUSH1 0x4 ADD PUSH2 0x23CE SWAP1 PUSH2 0x2D43 JUMP JUMPDEST PUSH1 0x40 MLOAD DUP1 SWAP2 SUB SWAP1 REVERT JUMPDEST POP POP PUSH1 0x1 PUSH1 0x2 DUP2 SWAP1 SSTORE POP POP POP JUMP JUMPDEST PUSH1 0x0 DUP1 PUSH1 0x1 PUSH1 0x0 SWAP1 SLOAD SWAP1 PUSH2 0x100 EXP SWAP1 DIV PUSH20 0xFFFFFFFFFFFFFFFFFFFFFFFFFFFFFFFFFFFFFFFF AND SWAP1 POP PUSH1 0x0 PUSH20 0xFFFFFFFFFFFFFFFFFFFFFFFFFFFFFFFFFFFFFFFF AND DUP2 PUSH20 0xFFFFFFFFFFFFFFFFFFFFFFFFFFFFFFFFFFFFFFFF AND EQ ISZERO DUP1 ISZERO PUSH2 0x24C4 JUMPI POP DUP1 PUSH20 0xFFFFFFFFFFFFFFFFFFFFFFFFFFFFFFFFFFFFFFFF AND PUSH4 0xB7009613 DUP6 ADDRESS DUP7 PUSH1 0x40 MLOAD DUP5 PUSH4 0xFFFFFFFF AND PUSH1 0xE0 SHL DUP2 MSTORE PUSH1 0x4 ADD PUSH2 0x2482 SWAP4 SWAP3 SWAP2 SWAP1 PUSH2 0x3174 JUMP JUMPDEST PUSH1 0x20 PUSH1 0x40 MLOAD DUP1 DUP4 SUB DUP2 DUP7 GAS STATICCALL ISZERO DUP1 ISZERO PUSH2 0x249F JUMPI RETURNDATASIZE PUSH1 0x0 DUP1 RETURNDATACOPY RETURNDATASIZE PUSH1 0x0 REVERT JUMPDEST POP POP POP POP PUSH1 0x40 MLOAD RETURNDATASIZE PUSH1 0x1F NOT PUSH1 0x1F DUP3 ADD AND DUP3 ADD DUP1 PUSH1 0x40 MSTORE POP DUP2 ADD SWAP1 PUSH2 0x24C3 SWAP2 SWAP1 PUSH2 0x31E3 JUMP JUMPDEST JUMPDEST DUP1 PUSH2 0x251A JUMPI POP PUSH1 0x0 DUP1 SLOAD SWAP1 PUSH2 0x100 EXP SWAP1 DIV PUSH20 0xFFFFFFFFFFFFFFFFFFFFFFFFFFFFFFFFFFFFFFFF AND PUSH20 0xFFFFFFFFFFFFFFFFFFFFFFFFFFFFFFFFFFFFFFFF AND DUP5 PUSH20 0xFFFFFFFFFFFFFFFFFFFFFFFFFFFFFFFFFFFFFFFF AND EQ JUMPDEST SWAP2 POP POP SWAP3 SWAP2 POP POP JUMP JUMPDEST PUSH1 0x0 DUP1 REVERT JUMPDEST PUSH1 0x0 DUP2 SWAP1 POP SWAP2 SWAP1 POP JUMP JUMPDEST PUSH2 0x253B DUP2 PUSH2 0x2528 JUMP JUMPDEST DUP2 EQ PUSH2 0x2546 JUMPI PUSH1 0x0 DUP1 REVERT JUMPDEST POP JUMP JUMPDEST PUSH1 0x0 DUP2 CALLDATALOAD SWAP1 POP PUSH2 0x2558 DUP2 PUSH2 0x2532 JUMP JUMPDEST SWAP3 SWAP2 POP POP JUMP JUMPDEST PUSH1 0x0 PUSH1 0x20 DUP3 DUP5 SUB SLT ISZERO PUSH2 0x2574 JUMPI PUSH2 0x2573 PUSH2 0x2523 JUMP JUMPDEST JUMPDEST PUSH1 0x0 PUSH2 0x2582 DUP5 DUP3 DUP6 ADD PUSH2 0x2549 JUMP JUMPDEST SWAP2 POP POP SWAP3 SWAP2 POP POP JUMP JUMPDEST PUSH1 0x0 PUSH20 0xFFFFFFFFFFFFFFFFFFFFFFFFFFFFFFFFFFFFFFFF DUP3 AND SWAP1 POP SWAP2 SWAP1 POP JUMP JUMPDEST PUSH1 0x0 PUSH2 0x25B6 DUP3 PUSH2 0x258B JUMP JUMPDEST SWAP1 POP SWAP2 SWAP1 POP JUMP JUMPDEST PUSH2 0x25C6 DUP2 PUSH2 0x25AB JUMP JUMPDEST DUP3 MSTORE POP POP JUMP JUMPDEST PUSH1 0x0 DUP2 SWAP1 POP SWAP2 SWAP1 POP JUMP JUMPDEST PUSH2 0x25DF DUP2 PUSH2 0x25CC JUMP JUMPDEST DUP3 MSTORE POP POP JUMP JUMPDEST PUSH1 0x0 PUSH1 0xE0 DUP3 ADD SWAP1 POP PUSH2 0x25FA PUSH1 0x0 DUP4 ADD DUP11 PUSH2 0x25BD JUMP JUMPDEST PUSH2 0x2607 PUSH1 0x20 DUP4 ADD DUP10 PUSH2 0x25BD JUMP JUMPDEST PUSH2 0x2614 PUSH1 0x40 DUP4 ADD DUP9 PUSH2 0x25D6 JUMP JUMPDEST PUSH2 0x2621 PUSH1 0x60 DUP4 ADD DUP8 PUSH2 0x25D6 JUMP JUMPDEST PUSH2 0x262E PUSH1 0x80 DUP4 ADD DUP7 PUSH2 0x25D6 JUMP JUMPDEST PUSH2 0x263B PUSH1 0xA0 DUP4 ADD DUP6 PUSH2 0x25D6 JUMP JUMPDEST PUSH2 0x2648 PUSH1 0xC0 DUP4 ADD DUP5 PUSH2 0x25D6 JUMP JUMPDEST SWAP9 SWAP8 POP POP POP POP POP POP POP POP JUMP JUMPDEST PUSH2 0x265D DUP2 PUSH2 0x25AB JUMP JUMPDEST DUP2 EQ PUSH2 0x2668 JUMPI PUSH1 0x0 DUP1 REVERT JUMPDEST POP JUMP JUMPDEST PUSH1 0x0 DUP2 CALLDATALOAD SWAP1 POP PUSH2 0x267A DUP2 PUSH2 0x2654 JUMP JUMPDEST SWAP3 SWAP2 POP POP JUMP JUMPDEST PUSH1 0x0 DUP1 PUSH1 0x40 DUP4 DUP6 SUB SLT ISZERO PUSH2 0x2697 JUMPI PUSH2 0x2696 PUSH2 0x2523 JUMP JUMPDEST JUMPDEST PUSH1 0x0 PUSH2 0x26A5 DUP6 DUP3 DUP7 ADD PUSH2 0x2549 JUMP JUMPDEST SWAP3 POP POP PUSH1 0x20 PUSH2 0x26B6 DUP6 DUP3 DUP7 ADD PUSH2 0x266B JUMP JUMPDEST SWAP2 POP POP SWAP3 POP SWAP3 SWAP1 POP JUMP JUMPDEST PUSH2 0x26C9 DUP2 PUSH2 0x25CC JUMP JUMPDEST DUP2 EQ PUSH2 0x26D4 JUMPI PUSH1 0x0 DUP1 REVERT JUMPDEST POP JUMP JUMPDEST PUSH1 0x0 DUP2 CALLDATALOAD SWAP1 POP PUSH2 0x26E6 DUP2 PUSH2 0x26C0 JUMP JUMPDEST SWAP3 SWAP2 POP POP JUMP JUMPDEST PUSH1 0x0 DUP1 PUSH1 0x0 DUP1 PUSH1 0x0 DUP1 PUSH1 0xC0 DUP8 DUP10 SUB SLT ISZERO PUSH2 0x2709 JUMPI PUSH2 0x2708 PUSH2 0x2523 JUMP JUMPDEST JUMPDEST PUSH1 0x0 PUSH2 0x2717 DUP10 DUP3 DUP11 ADD PUSH2 0x266B JUMP JUMPDEST SWAP7 POP POP PUSH1 0x20 PUSH2 0x2728 DUP10 DUP3 DUP11 ADD PUSH2 0x266B JUMP JUMPDEST SWAP6 POP POP PUSH1 0x40 PUSH2 0x2739 DUP10 DUP3 DUP11 ADD PUSH2 0x26D7 JUMP JUMPDEST SWAP5 POP POP PUSH1 0x60 PUSH2 0x274A DUP10 DUP3 DUP11 ADD PUSH2 0x26D7 JUMP JUMPDEST SWAP4 POP POP PUSH1 0x80 PUSH2 0x275B DUP10 DUP3 DUP11 ADD PUSH2 0x26D7 JUMP JUMPDEST SWAP3 POP POP PUSH1 0xA0 PUSH2 0x276C DUP10 DUP3 DUP11 ADD PUSH2 0x26D7 JUMP JUMPDEST SWAP2 POP POP SWAP3 SWAP6 POP SWAP3 SWAP6 POP SWAP3 SWAP6 JUMP JUMPDEST PUSH1 0x0 PUSH1 0x20 DUP3 DUP5 SUB SLT ISZERO PUSH2 0x278F JUMPI PUSH2 0x278E PUSH2 0x2523 JUMP JUMPDEST JUMPDEST PUSH1 0x0 PUSH2 0x279D DUP5 DUP3 DUP6 ADD PUSH2 0x26D7 JUMP JUMPDEST SWAP2 POP POP SWAP3 SWAP2 POP POP JUMP JUMPDEST PUSH2 0x27AF DUP2 PUSH2 0x2528 JUMP JUMPDEST DUP3 MSTORE POP POP JUMP JUMPDEST PUSH1 0x0 PUSH1 0x20 DUP3 ADD SWAP1 POP PUSH2 0x27CA PUSH1 0x0 DUP4 ADD DUP5 PUSH2 0x27A6 JUMP JUMPDEST SWAP3 SWAP2 POP POP JUMP JUMPDEST PUSH1 0x0 PUSH1 0x20 DUP3 ADD SWAP1 POP PUSH2 0x27E5 PUSH1 0x0 DUP4 ADD DUP5 PUSH2 0x25D6 JUMP JUMPDEST SWAP3 SWAP2 POP POP JUMP JUMPDEST PUSH1 0x0 PUSH2 0x27F6 DUP3 PUSH2 0x25AB JUMP JUMPDEST SWAP1 POP SWAP2 SWAP1 POP JUMP JUMPDEST PUSH2 0x2806 DUP2 PUSH2 0x27EB JUMP JUMPDEST DUP2 EQ PUSH2 0x2811 JUMPI PUSH1 0x0 DUP1 REVERT JUMPDEST POP JUMP JUMPDEST PUSH1 0x0 DUP2 CALLDATALOAD SWAP1 POP PUSH2 0x2823 DUP2 PUSH2 0x27FD JUMP JUMPDEST SWAP3 SWAP2 POP POP JUMP JUMPDEST PUSH1 0x0 PUSH1 0x20 DUP3 DUP5 SUB SLT ISZERO PUSH2 0x283F JUMPI PUSH2 0x283E PUSH2 0x2523 JUMP JUMPDEST JUMPDEST PUSH1 0x0 PUSH2 0x284D DUP5 DUP3 DUP6 ADD PUSH2 0x2814 JUMP JUMPDEST SWAP2 POP POP SWAP3 SWAP2 POP POP JUMP JUMPDEST PUSH1 0x0 PUSH1 0x20 DUP3 ADD SWAP1 POP PUSH2 0x286B PUSH1 0x0 DUP4 ADD DUP5 PUSH2 0x25BD JUMP JUMPDEST SWAP3 SWAP2 POP POP JUMP JUMPDEST PUSH1 0x0 DUP2 SWAP1 POP SWAP2 SWAP1 POP JUMP JUMPDEST PUSH1 0x0 PUSH2 0x2896 PUSH2 0x2891 PUSH2 0x288C DUP5 PUSH2 0x258B JUMP JUMPDEST PUSH2 0x2871 JUMP JUMPDEST PUSH2 0x258B JUMP JUMPDEST SWAP1 POP SWAP2 SWAP1 POP JUMP JUMPDEST PUSH1 0x0 PUSH2 0x28A8 DUP3 PUSH2 0x287B JUMP JUMPDEST SWAP1 POP SWAP2 SWAP1 POP JUMP JUMPDEST PUSH1 0x0 PUSH2 0x28BA DUP3 PUSH2 0x289D JUMP JUMPDEST SWAP1 POP SWAP2 SWAP1 POP JUMP JUMPDEST PUSH2 0x28CA DUP2 PUSH2 0x28AF JUMP JUMPDEST DUP3 MSTORE POP POP JUMP JUMPDEST PUSH1 0x0 PUSH1 0x20 DUP3 ADD SWAP1 POP PUSH2 0x28E5 PUSH1 0x0 DUP4 ADD DUP5 PUSH2 0x28C1 JUMP JUMPDEST SWAP3 SWAP2 POP POP JUMP JUMPDEST PUSH1 0x0 DUP1 PUSH1 0x40 DUP4 DUP6 SUB SLT ISZERO PUSH2 0x2902 JUMPI PUSH2 0x2901 PUSH2 0x2523 JUMP JUMPDEST JUMPDEST PUSH1 0x0 PUSH2 0x2910 DUP6 DUP3 DUP7 ADD PUSH2 0x2549 JUMP JUMPDEST SWAP3 POP POP PUSH1 0x20 PUSH2 0x2921 DUP6 DUP3 DUP7 ADD PUSH2 0x26D7 JUMP JUMPDEST SWAP2 POP POP SWAP3 POP SWAP3 SWAP1 POP JUMP JUMPDEST PUSH1 0x0 DUP1 PUSH1 0x40 DUP4 DUP6 SUB SLT ISZERO PUSH2 0x2942 JUMPI PUSH2 0x2941 PUSH2 0x2523 JUMP JUMPDEST JUMPDEST PUSH1 0x0 PUSH2 0x2950 DUP6 DUP3 DUP7 ADD PUSH2 0x26D7 JUMP JUMPDEST SWAP3 POP POP PUSH1 0x20 PUSH2 0x2961 DUP6 DUP3 DUP7 ADD PUSH2 0x2549 JUMP JUMPDEST SWAP2 POP POP SWAP3 POP SWAP3 SWAP1 POP JUMP JUMPDEST PUSH1 0x0 PUSH2 0x2976 DUP3 PUSH2 0x289D JUMP JUMPDEST SWAP1 POP SWAP2 SWAP1 POP JUMP JUMPDEST PUSH2 0x2986 DUP2 PUSH2 0x296B JUMP JUMPDEST DUP3 MSTORE POP POP JUMP JUMPDEST PUSH1 0x0 PUSH1 0x20 DUP3 ADD SWAP1 POP PUSH2 0x29A1 PUSH1 0x0 DUP4 ADD DUP5 PUSH2 0x297D JUMP JUMPDEST SWAP3 SWAP2 POP POP JUMP JUMPDEST PUSH1 0x0 PUSH1 0x20 DUP3 DUP5 SUB SLT ISZERO PUSH2 0x29BD JUMPI PUSH2 0x29BC PUSH2 0x2523 JUMP JUMPDEST JUMPDEST PUSH1 0x0 PUSH2 0x29CB DUP5 DUP3 DUP6 ADD PUSH2 0x266B JUMP JUMPDEST SWAP2 POP POP SWAP3 SWAP2 POP POP JUMP JUMPDEST PUSH1 0x0 DUP3 DUP3 MSTORE PUSH1 0x20 DUP3 ADD SWAP1 POP SWAP3 SWAP2 POP POP JUMP JUMPDEST PUSH32 0x5245454E5452414E435900000000000000000000000000000000000000000000 PUSH1 0x0 DUP3 ADD MSTORE POP JUMP JUMPDEST PUSH1 0x0 PUSH2 0x2A1B PUSH1 0xA DUP4 PUSH2 0x29D4 JUMP JUMPDEST SWAP2 POP PUSH2 0x2A26 DUP3 PUSH2 0x29E5 JUMP JUMPDEST PUSH1 0x20 DUP3 ADD SWAP1 POP SWAP2 SWAP1 POP JUMP JUMPDEST PUSH1 0x0 PUSH1 0x20 DUP3 ADD SWAP1 POP DUP2 DUP2 SUB PUSH1 0x0 DUP4 ADD MSTORE PUSH2 0x2A4A DUP2 PUSH2 0x2A0E JUMP JUMPDEST SWAP1 POP SWAP2 SWAP1 POP JUMP JUMPDEST PUSH32 0x4E6F2077696E6E65727320796574000000000000000000000000000000000000 PUSH1 0x0 DUP3 ADD MSTORE POP JUMP JUMPDEST PUSH1 0x0 PUSH2 0x2A87 PUSH1 0xE DUP4 PUSH2 0x29D4 JUMP JUMPDEST SWAP2 POP PUSH2 0x2A92 DUP3 PUSH2 0x2A51 JUMP JUMPDEST PUSH1 0x20 DUP3 ADD SWAP1 POP SWAP2 SWAP1 POP JUMP JUMPDEST PUSH1 0x0 PUSH1 0x20 DUP3 ADD SWAP1 POP DUP2 DUP2 SUB PUSH1 0x0 DUP4 ADD MSTORE PUSH2 0x2AB6 DUP2 PUSH2 0x2A7A JUMP JUMPDEST SWAP1 POP SWAP2 SWAP1 POP JUMP JUMPDEST PUSH32 0x416C72656164792077697468647261776E2E0000000000000000000000000000 PUSH1 0x0 DUP3 ADD MSTORE POP JUMP JUMPDEST PUSH1 0x0 PUSH2 0x2AF3 PUSH1 0x12 DUP4 PUSH2 0x29D4 JUMP JUMPDEST SWAP2 POP PUSH2 0x2AFE DUP3 PUSH2 0x2ABD JUMP JUMPDEST PUSH1 0x20 DUP3 ADD SWAP1 POP SWAP2 SWAP1 POP JUMP JUMPDEST PUSH1 0x0 PUSH1 0x20 DUP3 ADD SWAP1 POP DUP2 DUP2 SUB PUSH1 0x0 DUP4 ADD MSTORE PUSH2 0x2B22 DUP2 PUSH2 0x2AE6 JUMP JUMPDEST SWAP1 POP SWAP2 SWAP1 POP JUMP JUMPDEST PUSH32 0x7061727469636970616E74206E6F7420696E20746869732073616C652E000000 PUSH1 0x0 DUP3 ADD MSTORE POP JUMP JUMPDEST PUSH1 0x0 PUSH2 0x2B5F PUSH1 0x1D DUP4 PUSH2 0x29D4 JUMP JUMPDEST SWAP2 POP PUSH2 0x2B6A DUP3 PUSH2 0x2B29 JUMP JUMPDEST PUSH1 0x20 DUP3 ADD SWAP1 POP SWAP2 SWAP1 POP JUMP JUMPDEST PUSH1 0x0 PUSH1 0x20 DUP3 ADD SWAP1 POP DUP2 DUP2 SUB PUSH1 0x0 DUP4 ADD MSTORE PUSH2 0x2B8E DUP2 PUSH2 0x2B52 JUMP JUMPDEST SWAP1 POP SWAP2 SWAP1 POP JUMP JUMPDEST PUSH32 0x4E487B7100000000000000000000000000000000000000000000000000000000 PUSH1 0x0 MSTORE PUSH1 0x32 PUSH1 0x4 MSTORE PUSH1 0x24 PUSH1 0x0 REVERT JUMPDEST PUSH1 0x0 DUP2 SWAP1 POP SWAP2 SWAP1 POP JUMP JUMPDEST PUSH1 0x0 PUSH2 0x2BE9 PUSH2 0x2BE4 PUSH2 0x2BDF DUP5 PUSH2 0x2BC4 JUMP JUMPDEST PUSH2 0x2871 JUMP JUMPDEST PUSH2 0x25CC JUMP JUMPDEST SWAP1 POP SWAP2 SWAP1 POP JUMP JUMPDEST PUSH2 0x2BF9 DUP2 PUSH2 0x2BCE JUMP JUMPDEST DUP3 MSTORE POP POP JUMP JUMPDEST PUSH1 0x0 DUP3 DUP3 MSTORE PUSH1 0x20 DUP3 ADD SWAP1 POP SWAP3 SWAP2 POP POP JUMP JUMPDEST POP JUMP JUMPDEST PUSH1 0x0 PUSH2 0x2C20 PUSH1 0x0 DUP4 PUSH2 0x2BFF JUMP JUMPDEST SWAP2 POP PUSH2 0x2C2B DUP3 PUSH2 0x2C10 JUMP JUMPDEST PUSH1 0x0 DUP3 ADD SWAP1 POP SWAP2 SWAP1 POP JUMP JUMPDEST PUSH1 0x0 PUSH1 0x80 DUP3 ADD SWAP1 POP PUSH2 0x2C4B PUSH1 0x0 DUP4 ADD DUP7 PUSH2 0x25BD JUMP JUMPDEST PUSH2 0x2C58 PUSH1 0x20 DUP4 ADD DUP6 PUSH2 0x25D6 JUMP JUMPDEST PUSH2 0x2C65 PUSH1 0x40 DUP4 ADD DUP5 PUSH2 0x2BF0 JUMP JUMPDEST DUP2 DUP2 SUB PUSH1 0x60 DUP4 ADD MSTORE PUSH2 0x2C76 DUP2 PUSH2 0x2C13 JUMP JUMPDEST SWAP1 POP SWAP5 SWAP4 POP POP POP POP JUMP JUMPDEST PUSH32 0x4E487B7100000000000000000000000000000000000000000000000000000000 PUSH1 0x0 MSTORE PUSH1 0x11 PUSH1 0x4 MSTORE PUSH1 0x24 PUSH1 0x0 REVERT JUMPDEST PUSH1 0x0 PUSH2 0x2CBA DUP3 PUSH2 0x25CC JUMP JUMPDEST SWAP2 POP PUSH32 0xFFFFFFFFFFFFFFFFFFFFFFFFFFFFFFFFFFFFFFFFFFFFFFFFFFFFFFFFFFFFFFFF DUP3 SUB PUSH2 0x2CEC JUMPI PUSH2 0x2CEB PUSH2 0x2C80 JUMP JUMPDEST JUMPDEST PUSH1 0x1 DUP3 ADD SWAP1 POP SWAP2 SWAP1 POP JUMP JUMPDEST PUSH32 0x4661696C656420746F2073656E6420726566756E640000000000000000000000 PUSH1 0x0 DUP3 ADD MSTORE POP JUMP JUMPDEST PUSH1 0x0 PUSH2 0x2D2D PUSH1 0x15 DUP4 PUSH2 0x29D4 JUMP JUMPDEST SWAP2 POP PUSH2 0x2D38 DUP3 PUSH2 0x2CF7 JUMP JUMPDEST PUSH1 0x20 DUP3 ADD SWAP1 POP SWAP2 SWAP1 POP JUMP JUMPDEST PUSH1 0x0 PUSH1 0x20 DUP3 ADD SWAP1 POP DUP2 DUP2 SUB PUSH1 0x0 DUP4 ADD MSTORE PUSH2 0x2D5C DUP2 PUSH2 0x2D20 JUMP JUMPDEST SWAP1 POP SWAP2 SWAP1 POP JUMP JUMPDEST PUSH32 0x554E415554484F52495A45440000000000000000000000000000000000000000 PUSH1 0x0 DUP3 ADD MSTORE POP JUMP JUMPDEST PUSH1 0x0 PUSH2 0x2D99 PUSH1 0xC DUP4 PUSH2 0x29D4 JUMP JUMPDEST SWAP2 POP PUSH2 0x2DA4 DUP3 PUSH2 0x2D63 JUMP JUMPDEST PUSH1 0x20 DUP3 ADD SWAP1 POP SWAP2 SWAP1 POP JUMP JUMPDEST PUSH1 0x0 PUSH1 0x20 DUP3 ADD SWAP1 POP DUP2 DUP2 SUB PUSH1 0x0 DUP4 ADD MSTORE PUSH2 0x2DC8 DUP2 PUSH2 0x2D8C JUMP JUMPDEST SWAP1 POP SWAP2 SWAP1 POP JUMP JUMPDEST PUSH32 0x53616C6520737570706C79206D7573742062652067726561746572207468616E PUSH1 0x0 DUP3 ADD MSTORE PUSH32 0x207A65726F2E0000000000000000000000000000000000000000000000000000 PUSH1 0x20 DUP3 ADD MSTORE POP JUMP JUMPDEST PUSH1 0x0 PUSH2 0x2E2B PUSH1 0x26 DUP4 PUSH2 0x29D4 JUMP JUMPDEST SWAP2 POP PUSH2 0x2E36 DUP3 PUSH2 0x2DCF JUMP JUMPDEST PUSH1 0x40 DUP3 ADD SWAP1 POP SWAP2 SWAP1 POP JUMP JUMPDEST PUSH1 0x0 PUSH1 0x20 DUP3 ADD SWAP1 POP DUP2 DUP2 SUB PUSH1 0x0 DUP4 ADD MSTORE PUSH2 0x2E5A DUP2 PUSH2 0x2E1E JUMP JUMPDEST SWAP1 POP SWAP2 SWAP1 POP JUMP JUMPDEST PUSH32 0x53616C6520656E642074696D65206D75737420626520696E2074686520667574 PUSH1 0x0 DUP3 ADD MSTORE PUSH32 0x7572652E00000000000000000000000000000000000000000000000000000000 PUSH1 0x20 DUP3 ADD MSTORE POP JUMP JUMPDEST PUSH1 0x0 PUSH2 0x2EBD PUSH1 0x24 DUP4 PUSH2 0x29D4 JUMP JUMPDEST SWAP2 POP PUSH2 0x2EC8 DUP3 PUSH2 0x2E61 JUMP JUMPDEST PUSH1 0x40 DUP3 ADD SWAP1 POP SWAP2 SWAP1 POP JUMP JUMPDEST PUSH1 0x0 PUSH1 0x20 DUP3 ADD SWAP1 POP DUP2 DUP2 SUB PUSH1 0x0 DUP4 ADD MSTORE PUSH2 0x2EEC DUP2 PUSH2 0x2EB0 JUMP JUMPDEST SWAP1 POP SWAP2 SWAP1 POP JUMP JUMPDEST PUSH1 0x0 DUP2 PUSH1 0x60 SHL SWAP1 POP SWAP2 SWAP1 POP JUMP JUMPDEST PUSH1 0x0 PUSH2 0x2F0B DUP3 PUSH2 0x2EF3 JUMP JUMPDEST SWAP1 POP SWAP2 SWAP1 POP JUMP JUMPDEST PUSH1 0x0 PUSH2 0x2F1D DUP3 PUSH2 0x2F00 JUMP JUMPDEST SWAP1 POP SWAP2 SWAP1 POP JUMP JUMPDEST PUSH2 0x2F35 PUSH2 0x2F30 DUP3 PUSH2 0x25AB JUMP JUMPDEST PUSH2 0x2F12 JUMP JUMPDEST DUP3 MSTORE POP POP JUMP JUMPDEST PUSH1 0x0 DUP2 SWAP1 POP SWAP2 SWAP1 POP JUMP JUMPDEST PUSH2 0x2F56 PUSH2 0x2F51 DUP3 PUSH2 0x25CC JUMP JUMPDEST PUSH2 0x2F3B JUMP JUMPDEST DUP3 MSTORE POP POP JUMP JUMPDEST PUSH1 0x0 PUSH2 0x2F68 DUP3 DUP10 PUSH2 0x2F24 JUMP JUMPDEST PUSH1 0x14 DUP3 ADD SWAP2 POP PUSH2 0x2F78 DUP3 DUP9 PUSH2 0x2F24 JUMP JUMPDEST PUSH1 0x14 DUP3 ADD SWAP2 POP PUSH2 0x2F88 DUP3 DUP8 PUSH2 0x2F45 JUMP JUMPDEST PUSH1 0x20 DUP3 ADD SWAP2 POP PUSH2 0x2F98 DUP3 DUP7 PUSH2 0x2F45 JUMP JUMPDEST PUSH1 0x20 DUP3 ADD SWAP2 POP PUSH2 0x2FA8 DUP3 DUP6 PUSH2 0x2F45 JUMP JUMPDEST PUSH1 0x20 DUP3 ADD SWAP2 POP PUSH2 0x2FB8 DUP3 DUP5 PUSH2 0x2F45 JUMP JUMPDEST PUSH1 0x20 DUP3 ADD SWAP2 POP DUP2 SWAP1 POP SWAP8 SWAP7 POP POP POP POP POP POP POP JUMP JUMPDEST PUSH32 0x53616C6520616C7265616479206578697374732E000000000000000000000000 PUSH1 0x0 DUP3 ADD MSTORE POP JUMP JUMPDEST PUSH1 0x0 PUSH2 0x3002 PUSH1 0x14 DUP4 PUSH2 0x29D4 JUMP JUMPDEST SWAP2 POP PUSH2 0x300D DUP3 PUSH2 0x2FCC JUMP JUMPDEST PUSH1 0x20 DUP3 ADD SWAP1 POP SWAP2 SWAP1 POP JUMP JUMPDEST PUSH1 0x0 PUSH1 0x20 DUP3 ADD SWAP1 POP DUP2 DUP2 SUB PUSH1 0x0 DUP4 ADD MSTORE PUSH2 0x3031 DUP2 PUSH2 0x2FF5 JUMP JUMPDEST SWAP1 POP SWAP2 SWAP1 POP JUMP JUMPDEST PUSH1 0x0 PUSH1 0xC0 DUP3 ADD SWAP1 POP PUSH2 0x304D PUSH1 0x0 DUP4 ADD DUP10 PUSH2 0x25BD JUMP JUMPDEST PUSH2 0x305A PUSH1 0x20 DUP4 ADD DUP9 PUSH2 0x25BD JUMP JUMPDEST PUSH2 0x3067 PUSH1 0x40 DUP4 ADD DUP8 PUSH2 0x25D6 JUMP JUMPDEST PUSH2 0x3074 PUSH1 0x60 DUP4 ADD DUP7 PUSH2 0x25D6 JUMP JUMPDEST PUSH2 0x3081 PUSH1 0x80 DUP4 ADD DUP6 PUSH2 0x25D6 JUMP JUMPDEST PUSH2 0x308E PUSH1 0xA0 DUP4 ADD DUP5 PUSH2 0x25D6 JUMP JUMPDEST SWAP8 SWAP7 POP POP POP POP POP POP POP JUMP JUMPDEST PUSH32 0x496E73756666696369656E742072657365727665730000000000000000000000 PUSH1 0x0 DUP3 ADD MSTORE POP JUMP JUMPDEST PUSH1 0x0 PUSH2 0x30CF PUSH1 0x15 DUP4 PUSH2 0x29D4 JUMP JUMPDEST SWAP2 POP PUSH2 0x30DA DUP3 PUSH2 0x3099 JUMP JUMPDEST PUSH1 0x20 DUP3 ADD SWAP1 POP SWAP2 SWAP1 POP JUMP JUMPDEST PUSH1 0x0 PUSH1 0x20 DUP3 ADD SWAP1 POP DUP2 DUP2 SUB PUSH1 0x0 DUP4 ADD MSTORE PUSH2 0x30FE DUP2 PUSH2 0x30C2 JUMP JUMPDEST SWAP1 POP SWAP2 SWAP1 POP JUMP JUMPDEST PUSH1 0x0 PUSH2 0x3110 DUP3 PUSH2 0x25CC JUMP JUMPDEST SWAP2 POP PUSH2 0x311B DUP4 PUSH2 0x25CC JUMP JUMPDEST SWAP3 POP DUP3 DUP3 SUB SWAP1 POP DUP2 DUP2 GT ISZERO PUSH2 0x3133 JUMPI PUSH2 0x3132 PUSH2 0x2C80 JUMP JUMPDEST JUMPDEST SWAP3 SWAP2 POP POP JUMP JUMPDEST PUSH1 0x0 PUSH32 0xFFFFFFFF00000000000000000000000000000000000000000000000000000000 DUP3 AND SWAP1 POP SWAP2 SWAP1 POP JUMP JUMPDEST PUSH2 0x316E DUP2 PUSH2 0x3139 JUMP JUMPDEST DUP3 MSTORE POP POP JUMP JUMPDEST PUSH1 0x0 PUSH1 0x60 DUP3 ADD SWAP1 POP PUSH2 0x3189 PUSH1 0x0 DUP4 ADD DUP7 PUSH2 0x25BD JUMP JUMPDEST PUSH2 0x3196 PUSH1 0x20 DUP4 ADD DUP6 PUSH2 0x25BD JUMP JUMPDEST PUSH2 0x31A3 PUSH1 0x40 DUP4 ADD DUP5 PUSH2 0x3165 JUMP JUMPDEST SWAP5 SWAP4 POP POP POP POP JUMP JUMPDEST PUSH1 0x0 DUP2 ISZERO ISZERO SWAP1 POP SWAP2 SWAP1 POP JUMP JUMPDEST PUSH2 0x31C0 DUP2 PUSH2 0x31AB JUMP JUMPDEST DUP2 EQ PUSH2 0x31CB JUMPI PUSH1 0x0 DUP1 REVERT JUMPDEST POP JUMP JUMPDEST PUSH1 0x0 DUP2 MLOAD SWAP1 POP PUSH2 0x31DD DUP2 PUSH2 0x31B7 JUMP JUMPDEST SWAP3 SWAP2 POP POP JUMP JUMPDEST PUSH1 0x0 PUSH1 0x20 DUP3 DUP5 SUB SLT ISZERO PUSH2 0x31F9 JUMPI PUSH2 0x31F8 PUSH2 0x2523 JUMP JUMPDEST JUMPDEST PUSH1 0x0 PUSH2 0x3207 DUP5 DUP3 DUP6 ADD PUSH2 0x31CE JUMP JUMPDEST SWAP2 POP POP SWAP3 SWAP2 POP POP JUMP JUMPDEST PUSH32 0x4661696C656420746F2073656E64207377656570000000000000000000000000 PUSH1 0x0 DUP3 ADD MSTORE POP JUMP JUMPDEST PUSH1 0x0 PUSH2 0x3246 PUSH1 0x14 DUP4 PUSH2 0x29D4 JUMP JUMPDEST SWAP2 POP PUSH2 0x3251 DUP3 PUSH2 0x3210 JUMP JUMPDEST PUSH1 0x20 DUP3 ADD SWAP1 POP SWAP2 SWAP1 POP JUMP JUMPDEST PUSH1 0x0 PUSH1 0x20 DUP3 ADD SWAP1 POP DUP2 DUP2 SUB PUSH1 0x0 DUP4 ADD MSTORE PUSH2 0x3275 DUP2 PUSH2 0x3239 JUMP JUMPDEST SWAP1 POP SWAP2 SWAP1 POP JUMP JUMPDEST PUSH1 0x0 PUSH2 0x3287 DUP3 PUSH2 0x25CC JUMP JUMPDEST SWAP2 POP PUSH2 0x3292 DUP4 PUSH2 0x25CC JUMP JUMPDEST SWAP3 POP DUP3 DUP3 ADD SWAP1 POP DUP1 DUP3 GT ISZERO PUSH2 0x32AA JUMPI PUSH2 0x32A9 PUSH2 0x2C80 JUMP JUMPDEST JUMPDEST SWAP3 SWAP2 POP POP JUMP JUMPDEST PUSH1 0x0 PUSH1 0x40 DUP3 ADD SWAP1 POP PUSH2 0x32C5 PUSH1 0x0 DUP4 ADD DUP6 PUSH2 0x25BD JUMP JUMPDEST PUSH2 0x32D2 PUSH1 0x20 DUP4 ADD DUP5 PUSH2 0x25D6 JUMP JUMPDEST SWAP4 SWAP3 POP POP POP JUMP JUMPDEST PUSH32 0x53616C6520646F6573206E6F742065786973742E000000000000000000000000 PUSH1 0x0 DUP3 ADD MSTORE POP JUMP JUMPDEST PUSH1 0x0 PUSH2 0x330F PUSH1 0x14 DUP4 PUSH2 0x29D4 JUMP JUMPDEST SWAP2 POP PUSH2 0x331A DUP3 PUSH2 0x32D9 JUMP JUMPDEST PUSH1 0x20 DUP3 ADD SWAP1 POP SWAP2 SWAP1 POP JUMP JUMPDEST PUSH1 0x0 PUSH1 0x20 DUP3 ADD SWAP1 POP DUP2 DUP2 SUB PUSH1 0x0 DUP4 ADD MSTORE PUSH2 0x333E DUP2 PUSH2 0x3302 JUMP JUMPDEST SWAP1 POP SWAP2 SWAP1 POP JUMP JUMPDEST PUSH32 0x53616C6520686173206E6F7420656E6465642E00000000000000000000000000 PUSH1 0x0 DUP3 ADD MSTORE POP JUMP JUMPDEST PUSH1 0x0 PUSH2 0x337B PUSH1 0x13 DUP4 PUSH2 0x29D4 JUMP JUMPDEST SWAP2 POP PUSH2 0x3386 DUP3 PUSH2 0x3345 JUMP JUMPDEST PUSH1 0x20 DUP3 ADD SWAP1 POP SWAP2 SWAP1 POP JUMP JUMPDEST PUSH1 0x0 PUSH1 0x20 DUP3 ADD SWAP1 POP DUP2 DUP2 SUB PUSH1 0x0 DUP4 ADD MSTORE PUSH2 0x33AA DUP2 PUSH2 0x336E JUMP JUMPDEST SWAP1 POP SWAP2 SWAP1 POP JUMP JUMPDEST PUSH32 0x416C7265616479207265717565737465642072616E646F6D206E75626D657200 PUSH1 0x0 DUP3 ADD MSTORE POP JUMP JUMPDEST PUSH1 0x0 PUSH2 0x33E7 PUSH1 0x1F DUP4 PUSH2 0x29D4 JUMP JUMPDEST SWAP2 POP PUSH2 0x33F2 DUP3 PUSH2 0x33B1 JUMP JUMPDEST PUSH1 0x20 DUP3 ADD SWAP1 POP SWAP2 SWAP1 POP JUMP JUMPDEST PUSH1 0x0 PUSH1 0x20 DUP3 ADD SWAP1 POP DUP2 DUP2 SUB PUSH1 0x0 DUP4 ADD MSTORE PUSH2 0x3416 DUP2 PUSH2 0x33DA JUMP JUMPDEST SWAP1 POP SWAP2 SWAP1 POP JUMP JUMPDEST PUSH1 0x0 DUP2 SWAP1 POP SWAP2 SWAP1 POP JUMP JUMPDEST PUSH1 0x0 PUSH2 0x3442 PUSH2 0x343D PUSH2 0x3438 DUP5 PUSH2 0x341D JUMP JUMPDEST PUSH2 0x2871 JUMP JUMPDEST PUSH2 0x25CC JUMP JUMPDEST SWAP1 POP SWAP2 SWAP1 POP JUMP JUMPDEST PUSH2 0x3452 DUP2 PUSH2 0x3427 JUMP JUMPDEST DUP3 MSTORE POP POP JUMP JUMPDEST PUSH1 0x0 PUSH1 0x20 DUP3 ADD SWAP1 POP PUSH2 0x346D PUSH1 0x0 DUP4 ADD DUP5 PUSH2 0x3449 JUMP JUMPDEST SWAP3 SWAP2 POP POP JUMP JUMPDEST PUSH1 0x0 DUP2 MLOAD SWAP1 POP PUSH2 0x3482 DUP2 PUSH2 0x26C0 JUMP JUMPDEST SWAP3 SWAP2 POP POP JUMP JUMPDEST PUSH1 0x0 PUSH1 0x20 DUP3 DUP5 SUB SLT ISZERO PUSH2 0x349E JUMPI PUSH2 0x349D PUSH2 0x2523 JUMP JUMPDEST JUMPDEST PUSH1 0x0 PUSH2 0x34AC DUP5 DUP3 DUP6 ADD PUSH2 0x3473 JUMP JUMPDEST SWAP2 POP POP SWAP3 SWAP2 POP POP JUMP JUMPDEST PUSH32 0x53616C652068617320656E6465642E0000000000000000000000000000000000 PUSH1 0x0 DUP3 ADD MSTORE POP JUMP JUMPDEST PUSH1 0x0 PUSH2 0x34EB PUSH1 0xF DUP4 PUSH2 0x29D4 JUMP JUMPDEST SWAP2 POP PUSH2 0x34F6 DUP3 PUSH2 0x34B5 JUMP JUMPDEST PUSH1 0x20 DUP3 ADD SWAP1 POP SWAP2 SWAP1 POP JUMP JUMPDEST PUSH1 0x0 PUSH1 0x20 DUP3 ADD SWAP1 POP DUP2 DUP2 SUB PUSH1 0x0 DUP4 ADD MSTORE PUSH2 0x351A DUP2 PUSH2 0x34DE JUMP JUMPDEST SWAP1 POP SWAP2 SWAP1 POP JUMP JUMPDEST PUSH32 0x496E636F7272656374206465706F73697420616D6F756E742E20506C65617365 PUSH1 0x0 DUP3 ADD MSTORE PUSH32 0x2070726F766964652074686520636F7272656374206465706F73697420616D6F PUSH1 0x20 DUP3 ADD MSTORE PUSH32 0x756E742E00000000000000000000000000000000000000000000000000000000 PUSH1 0x40 DUP3 ADD MSTORE POP JUMP JUMPDEST PUSH1 0x0 PUSH2 0x35A3 PUSH1 0x44 DUP4 PUSH2 0x29D4 JUMP JUMPDEST SWAP2 POP PUSH2 0x35AE DUP3 PUSH2 0x3521 JUMP JUMPDEST PUSH1 0x60 DUP3 ADD SWAP1 POP SWAP2 SWAP1 POP JUMP JUMPDEST PUSH1 0x0 PUSH1 0x20 DUP3 ADD SWAP1 POP DUP2 DUP2 SUB PUSH1 0x0 DUP4 ADD MSTORE PUSH2 0x35D2 DUP2 PUSH2 0x3596 JUMP JUMPDEST SWAP1 POP SWAP2 SWAP1 POP JUMP JUMPDEST PUSH32 0x596F75206861766520616C72656164792070617274696369706174656420696E PUSH1 0x0 DUP3 ADD MSTORE PUSH32 0x20746869732073616C652E000000000000000000000000000000000000000000 PUSH1 0x20 DUP3 ADD MSTORE POP JUMP JUMPDEST PUSH1 0x0 PUSH2 0x3635 PUSH1 0x2B DUP4 PUSH2 0x29D4 JUMP JUMPDEST SWAP2 POP PUSH2 0x3640 DUP3 PUSH2 0x35D9 JUMP JUMPDEST PUSH1 0x40 DUP3 ADD SWAP1 POP SWAP2 SWAP1 POP JUMP JUMPDEST PUSH1 0x0 PUSH1 0x20 DUP3 ADD SWAP1 POP DUP2 DUP2 SUB PUSH1 0x0 DUP4 ADD MSTORE PUSH2 0x3664 DUP2 PUSH2 0x3628 JUMP JUMPDEST SWAP1 POP SWAP2 SWAP1 POP JUMP JUMPDEST PUSH1 0x0 DUP2 MLOAD SWAP1 POP PUSH2 0x367A DUP2 PUSH2 0x2654 JUMP JUMPDEST SWAP3 SWAP2 POP POP JUMP JUMPDEST PUSH1 0x0 PUSH1 0x20 DUP3 DUP5 SUB SLT ISZERO PUSH2 0x3696 JUMPI PUSH2 0x3695 PUSH2 0x2523 JUMP JUMPDEST JUMPDEST PUSH1 0x0 PUSH2 0x36A4 DUP5 DUP3 DUP6 ADD PUSH2 0x366B JUMP JUMPDEST SWAP2 POP POP SWAP3 SWAP2 POP POP JUMP JUMPDEST PUSH32 0x596F7520646F206E6F74206F776E20746865206D61726B656420746F6B656E2E PUSH1 0x0 DUP3 ADD MSTORE POP JUMP JUMPDEST PUSH1 0x0 PUSH2 0x36E3 PUSH1 0x20 DUP4 PUSH2 0x29D4 JUMP JUMPDEST SWAP2 POP PUSH2 0x36EE DUP3 PUSH2 0x36AD JUMP JUMPDEST PUSH1 0x20 DUP3 ADD SWAP1 POP SWAP2 SWAP1 POP JUMP JUMPDEST PUSH1 0x0 PUSH1 0x20 DUP3 ADD SWAP1 POP DUP2 DUP2 SUB PUSH1 0x0 DUP4 ADD MSTORE PUSH2 0x3712 DUP2 PUSH2 0x36D6 JUMP JUMPDEST SWAP1 POP SWAP2 SWAP1 POP JUMP JUMPDEST PUSH32 0x4D61726B656420746F6B656E2068617320616C7265616479206265656E207573 PUSH1 0x0 DUP3 ADD MSTORE PUSH32 0x656420746F20706172746963697061746520696E20746869732073616C652E00 PUSH1 0x20 DUP3 ADD MSTORE POP JUMP JUMPDEST PUSH1 0x0 PUSH2 0x3775 PUSH1 0x3F DUP4 PUSH2 0x29D4 JUMP JUMPDEST SWAP2 POP PUSH2 0x3780 DUP3 PUSH2 0x3719 JUMP JUMPDEST PUSH1 0x40 DUP3 ADD SWAP1 POP SWAP2 SWAP1 POP JUMP JUMPDEST PUSH1 0x0 PUSH1 0x20 DUP3 ADD SWAP1 POP DUP2 DUP2 SUB PUSH1 0x0 DUP4 ADD MSTORE PUSH2 0x37A4 DUP2 PUSH2 0x3768 JUMP JUMPDEST SWAP1 POP SWAP2 SWAP1 POP JUMP JUMPDEST PUSH32 0x43616C6C6572206E6F742052616E646F6D697A65720000000000000000000000 PUSH1 0x0 DUP3 ADD MSTORE POP JUMP JUMPDEST PUSH1 0x0 PUSH2 0x37E1 PUSH1 0x15 DUP4 PUSH2 0x29D4 JUMP JUMPDEST SWAP2 POP PUSH2 0x37EC DUP3 PUSH2 0x37AB JUMP JUMPDEST PUSH1 0x20 DUP3 ADD SWAP1 POP SWAP2 SWAP1 POP JUMP JUMPDEST PUSH1 0x0 PUSH1 0x20 DUP3 ADD SWAP1 POP DUP2 DUP2 SUB PUSH1 0x0 DUP4 ADD MSTORE PUSH2 0x3810 DUP2 PUSH2 0x37D4 JUMP JUMPDEST SWAP1 POP SWAP2 SWAP1 POP JUMP JUMPDEST PUSH32 0x496E76616C69642072616E646F6D697A65722069640000000000000000000000 PUSH1 0x0 DUP3 ADD MSTORE POP JUMP JUMPDEST PUSH1 0x0 PUSH2 0x384D PUSH1 0x15 DUP4 PUSH2 0x29D4 JUMP JUMPDEST SWAP2 POP PUSH2 0x3858 DUP3 PUSH2 0x3817 JUMP JUMPDEST PUSH1 0x20 DUP3 ADD SWAP1 POP SWAP2 SWAP1 POP JUMP JUMPDEST PUSH1 0x0 PUSH1 0x20 DUP3 ADD SWAP1 POP DUP2 DUP2 SUB PUSH1 0x0 DUP4 ADD MSTORE PUSH2 0x387C DUP2 PUSH2 0x3840 JUMP JUMPDEST SWAP1 POP SWAP2 SWAP1 POP JUMP JUMPDEST PUSH1 0x0 PUSH2 0x388F DUP3 DUP6 PUSH2 0x2F45 JUMP JUMPDEST PUSH1 0x20 DUP3 ADD SWAP2 POP PUSH2 0x389F DUP3 DUP5 PUSH2 0x2F45 JUMP JUMPDEST PUSH1 0x20 DUP3 ADD SWAP2 POP DUP2 SWAP1 POP SWAP4 SWAP3 POP POP POP JUMP JUMPDEST PUSH32 0x4E487B7100000000000000000000000000000000000000000000000000000000 PUSH1 0x0 MSTORE PUSH1 0x12 PUSH1 0x4 MSTORE PUSH1 0x24 PUSH1 0x0 REVERT JUMPDEST PUSH1 0x0 PUSH2 0x38E9 DUP3 PUSH2 0x25CC JUMP JUMPDEST SWAP2 POP PUSH2 0x38F4 DUP4 PUSH2 0x25CC JUMP JUMPDEST SWAP3 POP DUP3 PUSH2 0x3904 JUMPI PUSH2 0x3903 PUSH2 0x38AF JUMP JUMPDEST JUMPDEST DUP3 DUP3 MOD SWAP1 POP SWAP3 SWAP2 POP POP JUMP JUMPDEST PUSH1 0x0 PUSH2 0x391A DUP3 PUSH2 0x25CC JUMP JUMPDEST SWAP2 POP PUSH2 0x3925 DUP4 PUSH2 0x25CC JUMP JUMPDEST SWAP3 POP DUP3 DUP3 MUL PUSH2 0x3933 DUP2 PUSH2 0x25CC JUMP JUMPDEST SWAP2 POP DUP3 DUP3 DIV DUP5 EQ DUP4 ISZERO OR PUSH2 0x394A JUMPI PUSH2 0x3949 PUSH2 0x2C80 JUMP JUMPDEST JUMPDEST POP SWAP3 SWAP2 POP POP JUMP JUMPDEST PUSH32 0x5769746864726177616C20706572696F6420686173206E6F7420796574207374 PUSH1 0x0 DUP3 ADD MSTORE PUSH32 0x61727465642E0000000000000000000000000000000000000000000000000000 PUSH1 0x20 DUP3 ADD MSTORE POP JUMP JUMPDEST PUSH1 0x0 PUSH2 0x39AD PUSH1 0x26 DUP4 PUSH2 0x29D4 JUMP JUMPDEST SWAP2 POP PUSH2 0x39B8 DUP3 PUSH2 0x3951 JUMP JUMPDEST PUSH1 0x40 DUP3 ADD SWAP1 POP SWAP2 SWAP1 POP JUMP JUMPDEST PUSH1 0x0 PUSH1 0x20 DUP3 ADD SWAP1 POP DUP2 DUP2 SUB PUSH1 0x0 DUP4 ADD MSTORE PUSH2 0x39DC DUP2 PUSH2 0x39A0 JUMP JUMPDEST SWAP1 POP SWAP2 SWAP1 POP JUMP JUMPDEST PUSH32 0x53616C6520646964206E6F7420726571756972652061206465706F7369742E00 PUSH1 0x0 DUP3 ADD MSTORE POP JUMP JUMPDEST PUSH1 0x0 PUSH2 0x3A19 PUSH1 0x1F DUP4 PUSH2 0x29D4 JUMP JUMPDEST SWAP2 POP PUSH2 0x3A24 DUP3 PUSH2 0x39E3 JUMP JUMPDEST PUSH1 0x20 DUP3 ADD SWAP1 POP SWAP2 SWAP1 POP JUMP JUMPDEST PUSH1 0x0 PUSH1 0x20 DUP3 ADD SWAP1 POP DUP2 DUP2 SUB PUSH1 0x0 DUP4 ADD MSTORE PUSH2 0x3A48 DUP2 PUSH2 0x3A0C JUMP JUMPDEST SWAP1 POP SWAP2 SWAP1 POP JUMP INVALID LOG2 PUSH5 0x6970667358 0x22 SLT KECCAK256 0x29 CALLDATACOPY SWAP13 PUSH9 0x4B3495D4FA67EF9D54 0xD8 LOG1 JUMPDEST SGT 0xCF PUSH9 0x20ED39E0CC3DA20A3D PUSH12 0x91FD6E64736F6C6343000811 STOP CALLER "},"methodIdentifiers":{"authority()":"bf7e214f","createSale(address,address,uint256,uint256,uint256,uint256)":"2694c90e","executeRewardAirdrop(bytes32)":"89e412f5","fundRandomizer(uint256)":"4846ed9a","getRandomNumber(bytes32)":"cb923ccd","owner()":"8da5cb5b","participate(bytes32,uint256)":"dcfc4726","randomizer()":"f10fb584","randomizerCallback(uint256,bytes32)":"ebe93caf","randomizerIdToSalesId(uint256)":"399cc9e2","reserves()":"75172a8b","sales(bytes32)":"0c2afd72","setAuthority(address)":"7a9e5e4b","sweep(uint256)":"aa60e733","transferOwnership(address)":"f2fde38b","withdraw(bytes32,address)":"1b258d50","withdrawOnFailedSale(bytes32,address)":"f83038cc","withdrawRandomizer(uint256)":"c03634ff"}}}}}