{
  "_format": "hh-sol-artifact-1",
  "contractName": "Lottery",
  "sourceName": "contracts/Lottery.sol",
  "abi": [
    {
      "inputs": [
        {
          "internalType": "address",
          "name": "_owner",
          "type": "address"
        },
        {
          "internalType": "contract Authority",
          "name": "_authority",
          "type": "address"
        },
        {
          "internalType": "address",
          "name": "_randomizerAddress",
          "type": "address"
        }
      ],
      "stateMutability": "nonpayable",
      "type": "constructor"
    },
    {
      "anonymous": false,
      "inputs": [
        {
          "indexed": true,
          "internalType": "address",
          "name": "user",
          "type": "address"
        },
        {
          "indexed": true,
          "internalType": "contract Authority",
          "name": "newAuthority",
          "type": "address"
        }
      ],
      "name": "AuthorityUpdated",
      "type": "event"
    },
    {
      "anonymous": false,
      "inputs": [
        {
          "indexed": true,
          "internalType": "address",
          "name": "user",
          "type": "address"
        },
        {
          "indexed": true,
          "internalType": "address",
          "name": "newOwner",
          "type": "address"
        }
      ],
      "name": "OwnershipTransferred",
      "type": "event"
    },
    {
      "anonymous": false,
      "inputs": [
        {
          "indexed": true,
          "internalType": "bytes32",
          "name": "saleId",
          "type": "bytes32"
        },
        {
          "indexed": true,
          "internalType": "address",
          "name": "participant",
          "type": "address"
        },
        {
          "indexed": false,
          "internalType": "uint256",
          "name": "markTokenId",
          "type": "uint256"
        }
      ],
      "name": "Participation",
      "type": "event"
    },
    {
      "anonymous": false,
      "inputs": [
        {
          "indexed": true,
          "internalType": "bytes32",
          "name": "saleId",
          "type": "bytes32"
        },
        {
          "indexed": false,
          "internalType": "address",
          "name": "markToken",
          "type": "address"
        },
        {
          "indexed": false,
          "internalType": "address",
          "name": "rewardToken",
          "type": "address"
        },
        {
          "indexed": false,
          "internalType": "uint256",
          "name": "rewardTokenId",
          "type": "uint256"
        },
        {
          "indexed": false,
          "internalType": "uint256",
          "name": "supply",
          "type": "uint256"
        },
        {
          "indexed": false,
          "internalType": "uint256",
          "name": "price",
          "type": "uint256"
        },
        {
          "indexed": false,
          "internalType": "uint256",
          "name": "endTime",
          "type": "uint256"
        }
      ],
      "name": "SaleCreation",
      "type": "event"
    },
    {
      "anonymous": false,
      "inputs": [
        {
          "indexed": true,
          "internalType": "bytes32",
          "name": "saleId",
          "type": "bytes32"
        },
        {
          "indexed": true,
          "internalType": "address",
          "name": "participant",
          "type": "address"
        }
      ],
      "name": "Withdrawal",
      "type": "event"
    },
    {
      "inputs": [],
      "name": "authority",
      "outputs": [
        {
          "internalType": "contract Authority",
          "name": "",
          "type": "address"
        }
      ],
      "stateMutability": "view",
      "type": "function"
    },
    {
      "inputs": [
        {
          "internalType": "address",
          "name": "_markToken",
          "type": "address"
        },
        {
          "internalType": "address",
          "name": "_rewardToken",
          "type": "address"
        },
        {
          "internalType": "uint256",
          "name": "_rewardTokenId",
          "type": "uint256"
        },
        {
          "internalType": "uint256",
          "name": "_supply",
          "type": "uint256"
        },
        {
          "internalType": "uint256",
          "name": "_price",
          "type": "uint256"
        },
        {
          "internalType": "uint256",
          "name": "_endTime",
          "type": "uint256"
        }
      ],
      "name": "createSale",
      "outputs": [],
      "stateMutability": "nonpayable",
      "type": "function"
    },
    {
      "inputs": [
        {
          "internalType": "bytes32",
          "name": "saleId",
          "type": "bytes32"
        }
      ],
      "name": "executeRewardAirdrop",
      "outputs": [],
      "stateMutability": "nonpayable",
      "type": "function"
    },
    {
      "inputs": [
        {
          "internalType": "uint256",
          "name": "amount",
          "type": "uint256"
        }
      ],
      "name": "fundRandomizer",
      "outputs": [],
      "stateMutability": "nonpayable",
      "type": "function"
    },
    {
      "inputs": [
        {
          "internalType": "bytes32",
          "name": "saleId",
          "type": "bytes32"
        }
      ],
      "name": "getRandomNumber",
      "outputs": [],
      "stateMutability": "nonpayable",
      "type": "function"
    },
    {
      "inputs": [],
      "name": "owner",
      "outputs": [
        {
          "internalType": "address",
          "name": "",
          "type": "address"
        }
      ],
      "stateMutability": "view",
      "type": "function"
    },
    {
      "inputs": [
        {
          "internalType": "bytes32",
          "name": "saleId",
          "type": "bytes32"
        },
        {
          "internalType": "uint256",
          "name": "_markTokenId",
          "type": "uint256"
        }
      ],
      "name": "participate",
      "outputs": [],
      "stateMutability": "payable",
      "type": "function"
    },
    {
      "inputs": [],
      "name": "randomizer",
      "outputs": [
        {
          "internalType": "contract IRandomizer",
          "name": "",
          "type": "address"
        }
      ],
      "stateMutability": "view",
      "type": "function"
    },
    {
      "inputs": [
        {
          "internalType": "uint256",
          "name": "_id",
          "type": "uint256"
        },
        {
          "internalType": "bytes32",
          "name": "_value",
          "type": "bytes32"
        }
      ],
      "name": "randomizerCallback",
      "outputs": [],
      "stateMutability": "nonpayable",
      "type": "function"
    },
    {
      "inputs": [
        {
          "internalType": "uint256",
          "name": "",
          "type": "uint256"
        }
      ],
      "name": "randomizerIdToSalesId",
      "outputs": [
        {
          "internalType": "bytes32",
          "name": "",
          "type": "bytes32"
        }
      ],
      "stateMutability": "view",
      "type": "function"
    },
    {
      "inputs": [],
      "name": "reserves",
      "outputs": [
        {
          "internalType": "uint256",
          "name": "",
          "type": "uint256"
        }
      ],
      "stateMutability": "view",
      "type": "function"
    },
    {
      "inputs": [
        {
          "internalType": "bytes32",
          "name": "",
          "type": "bytes32"
        }
      ],
      "name": "sales",
      "outputs": [
        {
          "internalType": "address",
          "name": "markToken",
          "type": "address"
        },
        {
          "internalType": "address",
          "name": "rewardToken",
          "type": "address"
        },
        {
          "internalType": "uint256",
          "name": "rewardTokenId",
          "type": "uint256"
        },
        {
          "internalType": "uint256",
          "name": "supply",
          "type": "uint256"
        },
        {
          "internalType": "uint256",
          "name": "price",
          "type": "uint256"
        },
        {
          "internalType": "uint256",
          "name": "endTime",
          "type": "uint256"
        },
        {
          "internalType": "uint256",
          "name": "randomizerId",
          "type": "uint256"
        }
      ],
      "stateMutability": "view",
      "type": "function"
    },
    {
      "inputs": [
        {
          "internalType": "contract Authority",
          "name": "newAuthority",
          "type": "address"
        }
      ],
      "name": "setAuthority",
      "outputs": [],
      "stateMutability": "nonpayable",
      "type": "function"
    },
    {
      "inputs": [
        {
          "internalType": "uint256",
          "name": "amount",
          "type": "uint256"
        }
      ],
      "name": "sweep",
      "outputs": [],
      "stateMutability": "nonpayable",
      "type": "function"
    },
    {
      "inputs": [
        {
          "internalType": "address",
          "name": "newOwner",
          "type": "address"
        }
      ],
      "name": "transferOwnership",
      "outputs": [],
      "stateMutability": "nonpayable",
      "type": "function"
    },
    {
      "inputs": [
        {
          "internalType": "bytes32",
          "name": "saleId",
          "type": "bytes32"
        },
        {
          "internalType": "address",
          "name": "participant",
          "type": "address"
        }
      ],
      "name": "withdraw",
      "outputs": [],
      "stateMutability": "nonpayable",
      "type": "function"
    },
    {
      "inputs": [
        {
          "internalType": "bytes32",
          "name": "saleId",
          "type": "bytes32"
        },
        {
          "internalType": "address",
          "name": "participant",
          "type": "address"
        }
      ],
      "name": "withdrawOnFailedSale",
      "outputs": [],
      "stateMutability": "nonpayable",
      "type": "function"
    },
    {
      "inputs": [
        {
          "internalType": "uint256",
          "name": "amount",
          "type": "uint256"
        }
      ],
      "name": "withdrawRandomizer",
      "outputs": [],
      "stateMutability": "nonpayable",
      "type": "function"
    }
  ],
  "bytecode": "0x60806040523480156200001157600080fd5b5060405162003a2538038062003a25833981810160405281019062000037919062000271565b8282816000806101000a81548173ffffffffffffffffffffffffffffffffffffffff021916908373ffffffffffffffffffffffffffffffffffffffff16021790555080600160006101000a81548173ffffffffffffffffffffffffffffffffffffffff021916908373ffffffffffffffffffffffffffffffffffffffff1602179055508173ffffffffffffffffffffffffffffffffffffffff163373ffffffffffffffffffffffffffffffffffffffff167f8be0079c531659141344cd1fd0a4f28419497f9722a3daafe3b4186f6b6457e060405160405180910390a38073ffffffffffffffffffffffffffffffffffffffff163373ffffffffffffffffffffffffffffffffffffffff167fa3396fd7f6e0a21b50e5089d2da70d5ac0a3bbbd1f617a93f134b7638998019860405160405180910390a3505080600560006101000a81548173ffffffffffffffffffffffffffffffffffffffff021916908373ffffffffffffffffffffffffffffffffffffffff1602179055506000600481905550505050620002cd565b600080fd5b600073ffffffffffffffffffffffffffffffffffffffff82169050919050565b6000620001f482620001c7565b9050919050565b6200020681620001e7565b81146200021257600080fd5b50565b6000815190506200022681620001fb565b92915050565b60006200023982620001e7565b9050919050565b6200024b816200022c565b81146200025757600080fd5b50565b6000815190506200026b8162000240565b92915050565b6000806000606084860312156200028d576200028c620001c2565b5b60006200029d8682870162000215565b9350506020620002b0868287016200025a565b9250506040620002c38682870162000215565b9150509250925092565b61374880620002dd6000396000f3fe6080604052600436106101095760003560e01c8063aa60e73311610095578063dcfc472611610064578063dcfc472614610357578063ebe93caf14610373578063f10fb5841461039c578063f2fde38b146103c7578063f83038cc146103f057610109565b8063aa60e733146102b1578063bf7e214f146102da578063c03634ff14610305578063cb923ccd1461032e57610109565b80634846ed9a116100dc5780634846ed9a146101e057806375172a8b146102095780637a9e5e4b1461023457806389e412f51461025d5780638da5cb5b1461028657610109565b80630c2afd721461010e5780631b258d50146101515780632694c90e1461017a578063399cc9e2146101a3575b600080fd5b34801561011a57600080fd5b506101356004803603810190610130919061227c565b610419565b6040516101489796959493929190612303565b60405180910390f35b34801561015d57600080fd5b506101786004803603810190610173919061239e565b61049b565b005b34801561018657600080fd5b506101a1600480360381019061019c919061240a565b6108d8565b005b3480156101af57600080fd5b506101ca60048036038101906101c59190612497565b610b53565b6040516101d791906124d3565b60405180910390f35b3480156101ec57600080fd5b5061020760048036038101906102029190612497565b610b6b565b005b34801561021557600080fd5b5061021e610cc7565b60405161022b91906124ee565b60405180910390f35b34801561024057600080fd5b5061025b60048036038101906102569190612547565b610ccd565b005b34801561026957600080fd5b50610284600480360381019061027f919061227c565b610e8e565b005b34801561029257600080fd5b5061029b6110ed565b6040516102a89190612574565b60405180910390f35b3480156102bd57600080fd5b506102d860048036038101906102d39190612497565b611111565b005b3480156102e657600080fd5b506102ef611259565b6040516102fc91906125ee565b60405180910390f35b34801561031157600080fd5b5061032c60048036038101906103279190612497565b61127f565b005b34801561033a57600080fd5b506103556004803603810190610350919061227c565b611397565b005b610371600480360381019061036c9190612609565b61154b565b005b34801561037f57600080fd5b5061039a60048036038101906103959190612649565b611973565b005b3480156103a857600080fd5b506103b1611ce0565b6040516103be91906126aa565b60405180910390f35b3480156103d357600080fd5b506103ee60048036038101906103e991906126c5565b611d06565b005b3480156103fc57600080fd5b506104176004803603810190610412919061239e565b611e10565b005b60026020528060005260406000206000915090508060000160009054906101000a900473ffffffffffffffffffffffffffffffffffffffff16908060010160009054906101000a900473ffffffffffffffffffffffffffffffffffffffff16908060020154908060030154908060040154908060050154908060090154905087565b6000600260008481526020019081526020016000209050600081600a0180549050116104fc576040517f08c379a00000000000000000000000000000000000000000000000000000000081526004016104f39061274f565b60405180910390fd5b80600b0160008373ffffffffffffffffffffffffffffffffffffffff1673ffffffffffffffffffffffffffffffffffffffff16815260200190815260200160002060009054906101000a900460ff161561058b576040517f08c379a0000000000000000000000000000000000000000000000000000000008152600401610582906127bb565b60405180910390fd5b8060070160008373ffffffffffffffffffffffffffffffffffffffff1673ffffffffffffffffffffffffffffffffffffffff16815260200190815260200160002060009054906101000a900460ff16610619576040517f08c379a000000000000000000000000000000000000000000000000000000000815260040161061090612827565b60405180910390fd5b60005b81600301548110156107eb578273ffffffffffffffffffffffffffffffffffffffff1682600a01828154811061065557610654612847565b5b9060005260206000200160009054906101000a900473ffffffffffffffffffffffffffffffffffffffff1673ffffffffffffffffffffffffffffffffffffffff16036107d857600182600b0160008573ffffffffffffffffffffffffffffffffffffffff1673ffffffffffffffffffffffffffffffffffffffff16815260200190815260200160002060006101000a81548160ff0219169083151502179055508160010160009054906101000a900473ffffffffffffffffffffffffffffffffffffffff1673ffffffffffffffffffffffffffffffffffffffff1663731133e984846002015460016040518463ffffffff1660e01b815260040161075b939291906128e8565b600060405180830381600087803b15801561077557600080fd5b505af1158015610789573d6000803e3d6000fd5b505050508273ffffffffffffffffffffffffffffffffffffffff16847f6653a45d3871e4110fa55dac0269f9f93a6d9078d402f7153594e50573d7f0cd60405160405180910390a350506108d4565b80806107e390612961565b91505061061c565b506000816004015411156108d257600181600b0160008473ffffffffffffffffffffffffffffffffffffffff1673ffffffffffffffffffffffffffffffffffffffff16815260200190815260200160002060006101000a81548160ff02191690831515021790555060008273ffffffffffffffffffffffffffffffffffffffff166108fc83600401549081150290604051600060405180830381858888f193505050509050806108d0576040517f08c379a00000000000000000000000000000000000000000000000000000000081526004016108c7906129f5565b60405180910390fd5b505b505b5050565b610906336000357fffffffff0000000000000000000000000000000000000000000000000000000016612103565b610945576040517f08c379a000000000000000000000000000000000000000000000000000000000815260040161093c90612a61565b60405180910390fd5b60008311610988576040517f08c379a000000000000000000000000000000000000000000000000000000000815260040161097f90612af3565b60405180910390fd5b4281116109ca576040517f08c379a00000000000000000000000000000000000000000000000000000000081526004016109c190612b85565b60405180910390fd5b60008686868686866040516020016109e796959493929190612c0e565b60405160208183030381529060405280519060200120905060006002600083815260200190815260200160002090506000816005015414610a5d576040517f08c379a0000000000000000000000000000000000000000000000000000000008152600401610a5490612cca565b60405180910390fd5b878160000160006101000a81548173ffffffffffffffffffffffffffffffffffffffff021916908373ffffffffffffffffffffffffffffffffffffffff160217905550868160010160006101000a81548173ffffffffffffffffffffffffffffffffffffffff021916908373ffffffffffffffffffffffffffffffffffffffff160217905550858160020181905550848160030181905550838160040181905550828160050181905550817fd1d63ca2d9652ed1270a8d496cc69d3fe3515f37f20ac4fcee0ed185e8bf8727898989898989604051610b4196959493929190612cea565b60405180910390a25050505050505050565b60036020528060005260406000206000915090505481565b610b99336000357fffffffff0000000000000000000000000000000000000000000000000000000016612103565b610bd8576040517f08c379a0000000000000000000000000000000000000000000000000000000008152600401610bcf90612a61565b60405180910390fd5b806004541015610c1d576040517f08c379a0000000000000000000000000000000000000000000000000000000008152600401610c1490612d97565b60405180910390fd5b600560009054906101000a900473ffffffffffffffffffffffffffffffffffffffff1673ffffffffffffffffffffffffffffffffffffffff16634ffd2e4382306040518363ffffffff1660e01b8152600401610c799190612574565b6000604051808303818588803b158015610c9257600080fd5b505af1158015610ca6573d6000803e3d6000fd5b50505050508060046000828254610cbd9190612db7565b9250508190555050565b60045481565b60008054906101000a900473ffffffffffffffffffffffffffffffffffffffff1673ffffffffffffffffffffffffffffffffffffffff163373ffffffffffffffffffffffffffffffffffffffff161480610de75750600160009054906101000a900473ffffffffffffffffffffffffffffffffffffffff1673ffffffffffffffffffffffffffffffffffffffff1663b700961333306000357fffffffff00000000000000000000000000000000000000000000000000000000166040518463ffffffff1660e01b8152600401610da593929190612e26565b602060405180830381865afa158015610dc2573d6000803e3d6000fd5b505050506040513d601f19601f82011682018060405250810190610de69190612e95565b5b610df057600080fd5b80600160006101000a81548173ffffffffffffffffffffffffffffffffffffffff021916908373ffffffffffffffffffffffffffffffffffffffff1602179055508073ffffffffffffffffffffffffffffffffffffffff163373ffffffffffffffffffffffffffffffffffffffff167fa3396fd7f6e0a21b50e5089d2da70d5ac0a3bbbd1f617a93f134b7638998019860405160405180910390a350565b6000600260008381526020019081526020016000209050600081600a018054905011610eef576040517f08c379a0000000000000000000000000000000000000000000000000000000008152600401610ee69061274f565b60405180910390fd5b60005b81600301548110156110e857600082600a018281548110610f1657610f15612847565b5b9060005260206000200160009054906101000a900473ffffffffffffffffffffffffffffffffffffffff16905082600b0160008273ffffffffffffffffffffffffffffffffffffffff1673ffffffffffffffffffffffffffffffffffffffff16815260200190815260200160002060009054906101000a900460ff1615610f9d57506110d5565b600183600b0160008373ffffffffffffffffffffffffffffffffffffffff1673ffffffffffffffffffffffffffffffffffffffff16815260200190815260200160002060006101000a81548160ff0219169083151502179055508260010160009054906101000a900473ffffffffffffffffffffffffffffffffffffffff1673ffffffffffffffffffffffffffffffffffffffff1663731133e982856002015460016040518463ffffffff1660e01b815260040161105d939291906128e8565b600060405180830381600087803b15801561107757600080fd5b505af115801561108b573d6000803e3d6000fd5b505050508073ffffffffffffffffffffffffffffffffffffffff16847f6653a45d3871e4110fa55dac0269f9f93a6d9078d402f7153594e50573d7f0cd60405160405180910390a3505b80806110e090612961565b915050610ef2565b505050565b60008054906101000a900473ffffffffffffffffffffffffffffffffffffffff1681565b61113f336000357fffffffff0000000000000000000000000000000000000000000000000000000016612103565b61117e576040517f08c379a000000000000000000000000000000000000000000000000000000000815260040161117590612a61565b60405180910390fd5b8060045410156111c3576040517f08c379a00000000000000000000000000000000000000000000000000000000081526004016111ba90612d97565b60405180910390fd5b60003373ffffffffffffffffffffffffffffffffffffffff166108fc839081150290604051600060405180830381858888f1935050505090508061123c576040517f08c379a000000000000000000000000000000000000000000000000000000000815260040161123390612f0e565b60405180910390fd5b816004600082825461124e9190612db7565b925050819055505050565b600160009054906101000a900473ffffffffffffffffffffffffffffffffffffffff1681565b6112ad336000357fffffffff0000000000000000000000000000000000000000000000000000000016612103565b6112ec576040517f08c379a00000000000000000000000000000000000000000000000000000000081526004016112e390612a61565b60405180910390fd5b600560009054906101000a900473ffffffffffffffffffffffffffffffffffffffff1673ffffffffffffffffffffffffffffffffffffffff16632465f8f530836040518363ffffffff1660e01b8152600401611349929190612f2e565b600060405180830381600087803b15801561136357600080fd5b505af1158015611377573d6000803e3d6000fd5b50505050806004600082825461138d9190612f57565b9250508190555050565b600060026000838152602001908152602001600020905060008160050154036113f5576040517f08c379a00000000000000000000000000000000000000000000000000000000081526004016113ec90612fd7565b60405180910390fd5b806005015442101561143c576040517f08c379a000000000000000000000000000000000000000000000000000000000815260040161143390613043565b60405180910390fd5b6000816009015414611483576040517f08c379a000000000000000000000000000000000000000000000000000000000815260040161147a906130af565b60405180910390fd5b600560009054906101000a900473ffffffffffffffffffffffffffffffffffffffff1673ffffffffffffffffffffffffffffffffffffffff1663d845a4b361c3506040518263ffffffff1660e01b81526004016114e0919061310a565b6020604051808303816000875af11580156114ff573d6000803e3d6000fd5b505050506040513d601f19601f82011682018060405250810190611523919061313a565b8160090181905550816003600083600901548152602001908152602001600020819055505050565b600060026000848152602001908152602001600020905060008160050154036115a9576040517f08c379a00000000000000000000000000000000000000000000000000000000081526004016115a090612fd7565b60405180910390fd5b806005015442106115ef576040517f08c379a00000000000000000000000000000000000000000000000000000000081526004016115e6906131b3565b60405180910390fd5b34816004015414611635576040517f08c379a000000000000000000000000000000000000000000000000000000000815260040161162c9061326b565b60405180910390fd5b8060070160003373ffffffffffffffffffffffffffffffffffffffff1673ffffffffffffffffffffffffffffffffffffffff16815260200190815260200160002060009054906101000a900460ff16156116c4576040517f08c379a00000000000000000000000000000000000000000000000000000000081526004016116bb906132fd565b60405180910390fd5b3373ffffffffffffffffffffffffffffffffffffffff168160000160009054906101000a900473ffffffffffffffffffffffffffffffffffffffff1673ffffffffffffffffffffffffffffffffffffffff16636352211e846040518263ffffffff1660e01b815260040161173891906124ee565b602060405180830381865afa158015611755573d6000803e3d6000fd5b505050506040513d601f19601f820116820180604052508101906117799190613332565b73ffffffffffffffffffffffffffffffffffffffff16146117cf576040517f08c379a00000000000000000000000000000000000000000000000000000000081526004016117c6906133ab565b60405180910390fd5b80600801600083815260200190815260200160002060009054906101000a900460ff1615611832576040517f08c379a00000000000000000000000000000000000000000000000000000000081526004016118299061343d565b60405180910390fd5b80600601339080600181540180825580915050600190039060005260206000200160009091909190916101000a81548173ffffffffffffffffffffffffffffffffffffffff021916908373ffffffffffffffffffffffffffffffffffffffff16021790555060018160070160003373ffffffffffffffffffffffffffffffffffffffff1673ffffffffffffffffffffffffffffffffffffffff16815260200190815260200160002060006101000a81548160ff021916908315150217905550600181600801600084815260200190815260200160002060006101000a81548160ff0219169083151502179055503373ffffffffffffffffffffffffffffffffffffffff16837f610be20f88ad2726dbaabfa843e556e8d9f6f1b6a98a2894dc8d7ac215355a648460405161196691906124ee565b60405180910390a3505050565b600560009054906101000a900473ffffffffffffffffffffffffffffffffffffffff1673ffffffffffffffffffffffffffffffffffffffff163373ffffffffffffffffffffffffffffffffffffffff1614611a03576040517f08c379a00000000000000000000000000000000000000000000000000000000081526004016119fa906134a9565b60405180910390fd5b600060036000848152602001908152602001600020549050600060026000838152602001908152602001600020905083816009015414611a78576040517f08c379a0000000000000000000000000000000000000000000000000000000008152600401611a6f90613515565b60405180910390fd5b60008360001c905060005b8260030154811015611cac57600081828560060180549050611aa59190612db7565b428585604051602001611aba93929190613535565b6040516020818303038152906040528051906020012060001c611add91906135a1565b611ae79190612f57565b90506000846006018281548110611b0157611b00612847565b5b9060005260206000200160009054906101000a900473ffffffffffffffffffffffffffffffffffffffff16905084600a01819080600181540180825580915050600190039060005260206000200160009091909190916101000a81548173ffffffffffffffffffffffffffffffffffffffff021916908373ffffffffffffffffffffffffffffffffffffffff1602179055506000856006018481548110611bab57611baa612847565b5b9060005260206000200160009054906101000a900473ffffffffffffffffffffffffffffffffffffffff16905081866006018581548110611bef57611bee612847565b5b9060005260206000200160006101000a81548173ffffffffffffffffffffffffffffffffffffffff021916908373ffffffffffffffffffffffffffffffffffffffff16021790555080866006018481548110611c4e57611c4d612847565b5b9060005260206000200160006101000a81548173ffffffffffffffffffffffffffffffffffffffff021916908373ffffffffffffffffffffffffffffffffffffffff1602179055505050508080611ca490612961565b915050611a83565b5081600301548260040154611cc191906135d2565b60046000828254611cd29190612f57565b925050819055505050505050565b600560009054906101000a900473ffffffffffffffffffffffffffffffffffffffff1681565b611d34336000357fffffffff0000000000000000000000000000000000000000000000000000000016612103565b611d73576040517f08c379a0000000000000000000000000000000000000000000000000000000008152600401611d6a90612a61565b60405180910390fd5b806000806101000a81548173ffffffffffffffffffffffffffffffffffffffff021916908373ffffffffffffffffffffffffffffffffffffffff1602179055508073ffffffffffffffffffffffffffffffffffffffff163373ffffffffffffffffffffffffffffffffffffffff167f8be0079c531659141344cd1fd0a4f28419497f9722a3daafe3b4186f6b6457e060405160405180910390a350565b60006002600084815260200190815260200160002090506000816005015403611e6e576040517f08c379a0000000000000000000000000000000000000000000000000000000008152600401611e6590612fd7565b60405180910390fd5b62278d008160050154611e819190612f57565b4211611ec2576040517f08c379a0000000000000000000000000000000000000000000000000000000008152600401611eb990613686565b60405180910390fd5b6000816004015411611f09576040517f08c379a0000000000000000000000000000000000000000000000000000000008152600401611f00906136f2565b60405180910390fd5b8060070160008373ffffffffffffffffffffffffffffffffffffffff1673ffffffffffffffffffffffffffffffffffffffff16815260200190815260200160002060009054906101000a900460ff16611f97576040517f08c379a0000000000000000000000000000000000000000000000000000000008152600401611f8e90612827565b60405180910390fd5b80600b0160008373ffffffffffffffffffffffffffffffffffffffff1673ffffffffffffffffffffffffffffffffffffffff16815260200190815260200160002060009054906101000a900460ff1615612026576040517f08c379a000000000000000000000000000000000000000000000000000000000815260040161201d906127bb565b60405180910390fd5b600181600b0160008473ffffffffffffffffffffffffffffffffffffffff1673ffffffffffffffffffffffffffffffffffffffff16815260200190815260200160002060006101000a81548160ff02191690831515021790555060008273ffffffffffffffffffffffffffffffffffffffff166108fc83600401549081150290604051600060405180830381858888f193505050509050806120fd576040517f08c379a00000000000000000000000000000000000000000000000000000000081526004016120f4906129f5565b60405180910390fd5b50505050565b600080600160009054906101000a900473ffffffffffffffffffffffffffffffffffffffff169050600073ffffffffffffffffffffffffffffffffffffffff168173ffffffffffffffffffffffffffffffffffffffff16141580156121e257508073ffffffffffffffffffffffffffffffffffffffff1663b70096138530866040518463ffffffff1660e01b81526004016121a093929190612e26565b602060405180830381865afa1580156121bd573d6000803e3d6000fd5b505050506040513d601f19601f820116820180604052508101906121e19190612e95565b5b80612238575060008054906101000a900473ffffffffffffffffffffffffffffffffffffffff1673ffffffffffffffffffffffffffffffffffffffff168473ffffffffffffffffffffffffffffffffffffffff16145b91505092915050565b600080fd5b6000819050919050565b61225981612246565b811461226457600080fd5b50565b60008135905061227681612250565b92915050565b60006020828403121561229257612291612241565b5b60006122a084828501612267565b91505092915050565b600073ffffffffffffffffffffffffffffffffffffffff82169050919050565b60006122d4826122a9565b9050919050565b6122e4816122c9565b82525050565b6000819050919050565b6122fd816122ea565b82525050565b600060e082019050612318600083018a6122db565b61232560208301896122db565b61233260408301886122f4565b61233f60608301876122f4565b61234c60808301866122f4565b61235960a08301856122f4565b61236660c08301846122f4565b98975050505050505050565b61237b816122c9565b811461238657600080fd5b50565b60008135905061239881612372565b92915050565b600080604083850312156123b5576123b4612241565b5b60006123c385828601612267565b92505060206123d485828601612389565b9150509250929050565b6123e7816122ea565b81146123f257600080fd5b50565b600081359050612404816123de565b92915050565b60008060008060008060c0878903121561242757612426612241565b5b600061243589828a01612389565b965050602061244689828a01612389565b955050604061245789828a016123f5565b945050606061246889828a016123f5565b935050608061247989828a016123f5565b92505060a061248a89828a016123f5565b9150509295509295509295565b6000602082840312156124ad576124ac612241565b5b60006124bb848285016123f5565b91505092915050565b6124cd81612246565b82525050565b60006020820190506124e860008301846124c4565b92915050565b600060208201905061250360008301846122f4565b92915050565b6000612514826122c9565b9050919050565b61252481612509565b811461252f57600080fd5b50565b6000813590506125418161251b565b92915050565b60006020828403121561255d5761255c612241565b5b600061256b84828501612532565b91505092915050565b600060208201905061258960008301846122db565b92915050565b6000819050919050565b60006125b46125af6125aa846122a9565b61258f565b6122a9565b9050919050565b60006125c682612599565b9050919050565b60006125d8826125bb565b9050919050565b6125e8816125cd565b82525050565b600060208201905061260360008301846125df565b92915050565b600080604083850312156126205761261f612241565b5b600061262e85828601612267565b925050602061263f858286016123f5565b9150509250929050565b600080604083850312156126605761265f612241565b5b600061266e858286016123f5565b925050602061267f85828601612267565b9150509250929050565b6000612694826125bb565b9050919050565b6126a481612689565b82525050565b60006020820190506126bf600083018461269b565b92915050565b6000602082840312156126db576126da612241565b5b60006126e984828501612389565b91505092915050565b600082825260208201905092915050565b7f4e6f2077696e6e65727320796574000000000000000000000000000000000000600082015250565b6000612739600e836126f2565b915061274482612703565b602082019050919050565b600060208201905081810360008301526127688161272c565b9050919050565b7f416c72656164792077697468647261776e2e0000000000000000000000000000600082015250565b60006127a56012836126f2565b91506127b08261276f565b602082019050919050565b600060208201905081810360008301526127d481612798565b9050919050565b7f7061727469636970616e74206e6f7420696e20746869732073616c652e000000600082015250565b6000612811601d836126f2565b915061281c826127db565b602082019050919050565b6000602082019050818103600083015261284081612804565b9050919050565b7f4e487b7100000000000000000000000000000000000000000000000000000000600052603260045260246000fd5b6000819050919050565b600061289b61289661289184612876565b61258f565b6122ea565b9050919050565b6128ab81612880565b82525050565b600082825260208201905092915050565b50565b60006128d26000836128b1565b91506128dd826128c2565b600082019050919050565b60006080820190506128fd60008301866122db565b61290a60208301856122f4565b61291760408301846128a2565b8181036060830152612928816128c5565b9050949350505050565b7f4e487b7100000000000000000000000000000000000000000000000000000000600052601160045260246000fd5b600061296c826122ea565b91507fffffffffffffffffffffffffffffffffffffffffffffffffffffffffffffffff820361299e5761299d612932565b5b600182019050919050565b7f4661696c656420746f2073656e6420726566756e640000000000000000000000600082015250565b60006129df6015836126f2565b91506129ea826129a9565b602082019050919050565b60006020820190508181036000830152612a0e816129d2565b9050919050565b7f554e415554484f52495a45440000000000000000000000000000000000000000600082015250565b6000612a4b600c836126f2565b9150612a5682612a15565b602082019050919050565b60006020820190508181036000830152612a7a81612a3e565b9050919050565b7f53616c6520737570706c79206d7573742062652067726561746572207468616e60008201527f207a65726f2e0000000000000000000000000000000000000000000000000000602082015250565b6000612add6026836126f2565b9150612ae882612a81565b604082019050919050565b60006020820190508181036000830152612b0c81612ad0565b9050919050565b7f53616c6520656e642074696d65206d75737420626520696e207468652066757460008201527f7572652e00000000000000000000000000000000000000000000000000000000602082015250565b6000612b6f6024836126f2565b9150612b7a82612b13565b604082019050919050565b60006020820190508181036000830152612b9e81612b62565b9050919050565b60008160601b9050919050565b6000612bbd82612ba5565b9050919050565b6000612bcf82612bb2565b9050919050565b612be7612be2826122c9565b612bc4565b82525050565b6000819050919050565b612c08612c03826122ea565b612bed565b82525050565b6000612c1a8289612bd6565b601482019150612c2a8288612bd6565b601482019150612c3a8287612bf7565b602082019150612c4a8286612bf7565b602082019150612c5a8285612bf7565b602082019150612c6a8284612bf7565b602082019150819050979650505050505050565b7f53616c6520616c7265616479206578697374732e000000000000000000000000600082015250565b6000612cb46014836126f2565b9150612cbf82612c7e565b602082019050919050565b60006020820190508181036000830152612ce381612ca7565b9050919050565b600060c082019050612cff60008301896122db565b612d0c60208301886122db565b612d1960408301876122f4565b612d2660608301866122f4565b612d3360808301856122f4565b612d4060a08301846122f4565b979650505050505050565b7f496e73756666696369656e742072657365727665730000000000000000000000600082015250565b6000612d816015836126f2565b9150612d8c82612d4b565b602082019050919050565b60006020820190508181036000830152612db081612d74565b9050919050565b6000612dc2826122ea565b9150612dcd836122ea565b9250828203905081811115612de557612de4612932565b5b92915050565b60007fffffffff0000000000000000000000000000000000000000000000000000000082169050919050565b612e2081612deb565b82525050565b6000606082019050612e3b60008301866122db565b612e4860208301856122db565b612e556040830184612e17565b949350505050565b60008115159050919050565b612e7281612e5d565b8114612e7d57600080fd5b50565b600081519050612e8f81612e69565b92915050565b600060208284031215612eab57612eaa612241565b5b6000612eb984828501612e80565b91505092915050565b7f4661696c656420746f2073656e64207377656570000000000000000000000000600082015250565b6000612ef86014836126f2565b9150612f0382612ec2565b602082019050919050565b60006020820190508181036000830152612f2781612eeb565b9050919050565b6000604082019050612f4360008301856122db565b612f5060208301846122f4565b9392505050565b6000612f62826122ea565b9150612f6d836122ea565b9250828201905080821115612f8557612f84612932565b5b92915050565b7f53616c6520646f6573206e6f742065786973742e000000000000000000000000600082015250565b6000612fc16014836126f2565b9150612fcc82612f8b565b602082019050919050565b60006020820190508181036000830152612ff081612fb4565b9050919050565b7f53616c6520686173206e6f7420656e6465642e00000000000000000000000000600082015250565b600061302d6013836126f2565b915061303882612ff7565b602082019050919050565b6000602082019050818103600083015261305c81613020565b9050919050565b7f416c7265616479207265717565737465642072616e646f6d206e75626d657200600082015250565b6000613099601f836126f2565b91506130a482613063565b602082019050919050565b600060208201905081810360008301526130c88161308c565b9050919050565b6000819050919050565b60006130f46130ef6130ea846130cf565b61258f565b6122ea565b9050919050565b613104816130d9565b82525050565b600060208201905061311f60008301846130fb565b92915050565b600081519050613134816123de565b92915050565b6000602082840312156131505761314f612241565b5b600061315e84828501613125565b91505092915050565b7f53616c652068617320656e6465642e0000000000000000000000000000000000600082015250565b600061319d600f836126f2565b91506131a882613167565b602082019050919050565b600060208201905081810360008301526131cc81613190565b9050919050565b7f496e636f7272656374206465706f73697420616d6f756e742e20506c6561736560008201527f2070726f766964652074686520636f7272656374206465706f73697420616d6f60208201527f756e742e00000000000000000000000000000000000000000000000000000000604082015250565b60006132556044836126f2565b9150613260826131d3565b606082019050919050565b6000602082019050818103600083015261328481613248565b9050919050565b7f596f75206861766520616c72656164792070617274696369706174656420696e60008201527f20746869732073616c652e000000000000000000000000000000000000000000602082015250565b60006132e7602b836126f2565b91506132f28261328b565b604082019050919050565b60006020820190508181036000830152613316816132da565b9050919050565b60008151905061332c81612372565b92915050565b60006020828403121561334857613347612241565b5b60006133568482850161331d565b91505092915050565b7f596f7520646f206e6f74206f776e20746865206d61726b656420746f6b656e2e600082015250565b60006133956020836126f2565b91506133a08261335f565b602082019050919050565b600060208201905081810360008301526133c481613388565b9050919050565b7f4d61726b656420746f6b656e2068617320616c7265616479206265656e20757360008201527f656420746f20706172746963697061746520696e20746869732073616c652e00602082015250565b6000613427603f836126f2565b9150613432826133cb565b604082019050919050565b600060208201905081810360008301526134568161341a565b9050919050565b7f43616c6c6572206e6f742052616e646f6d697a65720000000000000000000000600082015250565b60006134936015836126f2565b915061349e8261345d565b602082019050919050565b600060208201905081810360008301526134c281613486565b9050919050565b7f496e76616c69642072616e646f6d697a65722069640000000000000000000000600082015250565b60006134ff6015836126f2565b915061350a826134c9565b602082019050919050565b6000602082019050818103600083015261352e816134f2565b9050919050565b60006135418286612bf7565b6020820191506135518285612bf7565b6020820191506135618284612bf7565b602082019150819050949350505050565b7f4e487b7100000000000000000000000000000000000000000000000000000000600052601260045260246000fd5b60006135ac826122ea565b91506135b7836122ea565b9250826135c7576135c6613572565b5b828206905092915050565b60006135dd826122ea565b91506135e8836122ea565b92508282026135f6816122ea565b9150828204841483151761360d5761360c612932565b5b5092915050565b7f5769746864726177616c20706572696f6420686173206e6f742079657420737460008201527f61727465642e0000000000000000000000000000000000000000000000000000602082015250565b60006136706026836126f2565b915061367b82613614565b604082019050919050565b6000602082019050818103600083015261369f81613663565b9050919050565b7f53616c6520646964206e6f7420726571756972652061206465706f7369742e00600082015250565b60006136dc601f836126f2565b91506136e7826136a6565b602082019050919050565b6000602082019050818103600083015261370b816136cf565b905091905056fea2646970667358221220eb1036332cba022372ac606a0af50bc00835b8f543e18665a28a729f2920c48164736f6c63430008110033",
  "linkReferences": {},
  "deployedLinkReferences": {}
}