{
  "_format": "hh-sol-artifact-1",
  "contractName": "Lottery",
  "sourceName": "contracts/Lottery.sol",
  "abi": [
    {
      "inputs": [
        {
          "internalType": "address",
          "name": "_owner",
          "type": "address"
        },
        {
          "internalType": "contract Authority",
          "name": "_authority",
          "type": "address"
        },
        {
          "internalType": "address",
          "name": "_randomizerAddress",
          "type": "address"
        }
      ],
      "stateMutability": "nonpayable",
      "type": "constructor"
    },
    {
      "anonymous": false,
      "inputs": [
        {
          "indexed": true,
          "internalType": "address",
          "name": "user",
          "type": "address"
        },
        {
          "indexed": true,
          "internalType": "contract Authority",
          "name": "newAuthority",
          "type": "address"
        }
      ],
      "name": "AuthorityUpdated",
      "type": "event"
    },
    {
      "anonymous": false,
      "inputs": [
        {
          "indexed": true,
          "internalType": "address",
          "name": "user",
          "type": "address"
        },
        {
          "indexed": true,
          "internalType": "address",
          "name": "newOwner",
          "type": "address"
        }
      ],
      "name": "OwnershipTransferred",
      "type": "event"
    },
    {
      "anonymous": false,
      "inputs": [
        {
          "indexed": true,
          "internalType": "bytes32",
          "name": "saleId",
          "type": "bytes32"
        },
        {
          "indexed": true,
          "internalType": "address",
          "name": "participant",
          "type": "address"
        },
        {
          "indexed": false,
          "internalType": "uint256",
          "name": "markTokenId",
          "type": "uint256"
        }
      ],
      "name": "Participation",
      "type": "event"
    },
    {
      "anonymous": false,
      "inputs": [
        {
          "indexed": true,
          "internalType": "bytes32",
          "name": "saleId",
          "type": "bytes32"
        },
        {
          "indexed": false,
          "internalType": "address",
          "name": "markToken",
          "type": "address"
        },
        {
          "indexed": false,
          "internalType": "address",
          "name": "rewardToken",
          "type": "address"
        },
        {
          "indexed": false,
          "internalType": "uint256",
          "name": "rewardTokenId",
          "type": "uint256"
        },
        {
          "indexed": false,
          "internalType": "uint256",
          "name": "supply",
          "type": "uint256"
        },
        {
          "indexed": false,
          "internalType": "uint256",
          "name": "price",
          "type": "uint256"
        },
        {
          "indexed": false,
          "internalType": "uint256",
          "name": "endTime",
          "type": "uint256"
        }
      ],
      "name": "SaleCreation",
      "type": "event"
    },
    {
      "anonymous": false,
      "inputs": [
        {
          "indexed": true,
          "internalType": "bytes32",
          "name": "saleId",
          "type": "bytes32"
        },
        {
          "indexed": true,
          "internalType": "address",
          "name": "participant",
          "type": "address"
        }
      ],
      "name": "Withdrawal",
      "type": "event"
    },
    {
      "inputs": [],
      "name": "authority",
      "outputs": [
        {
          "internalType": "contract Authority",
          "name": "",
          "type": "address"
        }
      ],
      "stateMutability": "view",
      "type": "function"
    },
    {
      "inputs": [
        {
          "internalType": "address",
          "name": "_markToken",
          "type": "address"
        },
        {
          "internalType": "address",
          "name": "_rewardToken",
          "type": "address"
        },
        {
          "internalType": "uint256",
          "name": "_rewardTokenId",
          "type": "uint256"
        },
        {
          "internalType": "uint256",
          "name": "_supply",
          "type": "uint256"
        },
        {
          "internalType": "uint256",
          "name": "_price",
          "type": "uint256"
        },
        {
          "internalType": "uint256",
          "name": "_endTime",
          "type": "uint256"
        }
      ],
      "name": "createSale",
      "outputs": [],
      "stateMutability": "nonpayable",
      "type": "function"
    },
    {
      "inputs": [
        {
          "internalType": "bytes32",
          "name": "saleId",
          "type": "bytes32"
        }
      ],
      "name": "executeRewardAirdrop",
      "outputs": [],
      "stateMutability": "nonpayable",
      "type": "function"
    },
    {
      "inputs": [
        {
          "internalType": "uint256",
          "name": "amount",
          "type": "uint256"
        }
      ],
      "name": "fundRandomizer",
      "outputs": [],
      "stateMutability": "nonpayable",
      "type": "function"
    },
    {
      "inputs": [
        {
          "internalType": "bytes32",
          "name": "saleId",
          "type": "bytes32"
        }
      ],
      "name": "getRandomNumber",
      "outputs": [],
      "stateMutability": "nonpayable",
      "type": "function"
    },
    {
      "inputs": [],
      "name": "owner",
      "outputs": [
        {
          "internalType": "address",
          "name": "",
          "type": "address"
        }
      ],
      "stateMutability": "view",
      "type": "function"
    },
    {
      "inputs": [
        {
          "internalType": "bytes32",
          "name": "saleId",
          "type": "bytes32"
        },
        {
          "internalType": "uint256",
          "name": "_markTokenId",
          "type": "uint256"
        }
      ],
      "name": "participate",
      "outputs": [],
      "stateMutability": "payable",
      "type": "function"
    },
    {
      "inputs": [],
      "name": "randomizer",
      "outputs": [
        {
          "internalType": "contract IRandomizer",
          "name": "",
          "type": "address"
        }
      ],
      "stateMutability": "view",
      "type": "function"
    },
    {
      "inputs": [
        {
          "internalType": "uint256",
          "name": "_id",
          "type": "uint256"
        },
        {
          "internalType": "bytes32",
          "name": "_value",
          "type": "bytes32"
        }
      ],
      "name": "randomizerCallback",
      "outputs": [],
      "stateMutability": "nonpayable",
      "type": "function"
    },
    {
      "inputs": [
        {
          "internalType": "uint256",
          "name": "",
          "type": "uint256"
        }
      ],
      "name": "randomizerIdToSalesId",
      "outputs": [
        {
          "internalType": "bytes32",
          "name": "",
          "type": "bytes32"
        }
      ],
      "stateMutability": "view",
      "type": "function"
    },
    {
      "inputs": [],
      "name": "reserves",
      "outputs": [
        {
          "internalType": "uint256",
          "name": "",
          "type": "uint256"
        }
      ],
      "stateMutability": "view",
      "type": "function"
    },
    {
      "inputs": [
        {
          "internalType": "bytes32",
          "name": "",
          "type": "bytes32"
        }
      ],
      "name": "sales",
      "outputs": [
        {
          "internalType": "address",
          "name": "markToken",
          "type": "address"
        },
        {
          "internalType": "address",
          "name": "rewardToken",
          "type": "address"
        },
        {
          "internalType": "uint256",
          "name": "rewardTokenId",
          "type": "uint256"
        },
        {
          "internalType": "uint256",
          "name": "supply",
          "type": "uint256"
        },
        {
          "internalType": "uint256",
          "name": "price",
          "type": "uint256"
        },
        {
          "internalType": "uint256",
          "name": "endTime",
          "type": "uint256"
        },
        {
          "internalType": "uint256",
          "name": "randomizerId",
          "type": "uint256"
        }
      ],
      "stateMutability": "view",
      "type": "function"
    },
    {
      "inputs": [
        {
          "internalType": "contract Authority",
          "name": "newAuthority",
          "type": "address"
        }
      ],
      "name": "setAuthority",
      "outputs": [],
      "stateMutability": "nonpayable",
      "type": "function"
    },
    {
      "inputs": [
        {
          "internalType": "uint256",
          "name": "amount",
          "type": "uint256"
        }
      ],
      "name": "sweep",
      "outputs": [],
      "stateMutability": "nonpayable",
      "type": "function"
    },
    {
      "inputs": [
        {
          "internalType": "address",
          "name": "newOwner",
          "type": "address"
        }
      ],
      "name": "transferOwnership",
      "outputs": [],
      "stateMutability": "nonpayable",
      "type": "function"
    },
    {
      "inputs": [
        {
          "internalType": "bytes32",
          "name": "saleId",
          "type": "bytes32"
        },
        {
          "internalType": "address",
          "name": "participant",
          "type": "address"
        }
      ],
      "name": "withdraw",
      "outputs": [],
      "stateMutability": "nonpayable",
      "type": "function"
    },
    {
      "inputs": [
        {
          "internalType": "bytes32",
          "name": "saleId",
          "type": "bytes32"
        },
        {
          "internalType": "address",
          "name": "participant",
          "type": "address"
        }
      ],
      "name": "withdrawOnFailedSale",
      "outputs": [],
      "stateMutability": "nonpayable",
      "type": "function"
    },
    {
      "inputs": [
        {
          "internalType": "uint256",
          "name": "amount",
          "type": "uint256"
        }
      ],
      "name": "withdrawRandomizer",
      "outputs": [],
      "stateMutability": "nonpayable",
      "type": "function"
    }
  ],
  "bytecode": "0x608060405260016002553480156200001657600080fd5b5060405162003d6d38038062003d6d83398181016040528101906200003c91906200027c565b8282828282816000806101000a81548173ffffffffffffffffffffffffffffffffffffffff021916908373ffffffffffffffffffffffffffffffffffffffff16021790555080600160006101000a81548173ffffffffffffffffffffffffffffffffffffffff021916908373ffffffffffffffffffffffffffffffffffffffff1602179055508173ffffffffffffffffffffffffffffffffffffffff163373ffffffffffffffffffffffffffffffffffffffff167f8be0079c531659141344cd1fd0a4f28419497f9722a3daafe3b4186f6b6457e060405160405180910390a38073ffffffffffffffffffffffffffffffffffffffff163373ffffffffffffffffffffffffffffffffffffffff167fa3396fd7f6e0a21b50e5089d2da70d5ac0a3bbbd1f617a93f134b7638998019860405160405180910390a3505080600460006101000a81548173ffffffffffffffffffffffffffffffffffffffff021916908373ffffffffffffffffffffffffffffffffffffffff1602179055506000600381905550505050505050620002d8565b600080fd5b600073ffffffffffffffffffffffffffffffffffffffff82169050919050565b6000620001ff82620001d2565b9050919050565b6200021181620001f2565b81146200021d57600080fd5b50565b600081519050620002318162000206565b92915050565b60006200024482620001f2565b9050919050565b620002568162000237565b81146200026257600080fd5b50565b60008151905062000276816200024b565b92915050565b600080600060608486031215620002985762000297620001cd565b5b6000620002a88682870162000220565b9350506020620002bb8682870162000265565b9250506040620002ce8682870162000220565b9150509250925092565b613a8580620002e86000396000f3fe6080604052600436106101095760003560e01c8063aa60e73311610095578063dcfc472611610064578063dcfc472614610357578063ebe93caf14610373578063f10fb5841461039c578063f2fde38b146103c7578063f83038cc146103f057610109565b8063aa60e733146102b1578063bf7e214f146102da578063c03634ff14610305578063cb923ccd1461032e57610109565b80634846ed9a116100dc5780634846ed9a146101e057806375172a8b146102095780637a9e5e4b1461023457806389e412f51461025d5780638da5cb5b1461028657610109565b80630c2afd721461010e5780631b258d50146101515780632694c90e1461017a578063399cc9e2146101a3575b600080fd5b34801561011a57600080fd5b506101356004803603810190610130919061255e565b610419565b60405161014897969594939291906125e5565b60405180910390f35b34801561015d57600080fd5b5061017860048036038101906101739190612680565b61049b565b005b34801561018657600080fd5b506101a1600480360381019061019c91906126ec565b610970565b005b3480156101af57600080fd5b506101ca60048036038101906101c59190612779565b610beb565b6040516101d791906127b5565b60405180910390f35b3480156101ec57600080fd5b5061020760048036038101906102029190612779565b610c03565b005b34801561021557600080fd5b5061021e610db3565b60405161022b91906127d0565b60405180910390f35b34801561024057600080fd5b5061025b60048036038101906102569190612829565b610db9565b005b34801561026957600080fd5b50610284600480360381019061027f919061255e565b610f7a565b005b34801561029257600080fd5b5061029b61122d565b6040516102a89190612856565b60405180910390f35b3480156102bd57600080fd5b506102d860048036038101906102d39190612779565b611251565b005b3480156102e657600080fd5b506102ef6113ed565b6040516102fc91906128d0565b60405180910390f35b34801561031157600080fd5b5061032c60048036038101906103279190612779565b611413565b005b34801561033a57600080fd5b506103556004803603810190610350919061255e565b61157f565b005b610371600480360381019061036c91906128eb565b611787565b005b34801561037f57600080fd5b5061039a6004803603810190610395919061292b565b611baf565b005b3480156103a857600080fd5b506103b1611f6e565b6040516103be919061298c565b60405180910390f35b3480156103d357600080fd5b506103ee60048036038101906103e991906129a7565b611f94565b005b3480156103fc57600080fd5b5061041760048036038101906104129190612680565b61209e565b005b60056020528060005260406000206000915090508060000160009054906101000a900473ffffffffffffffffffffffffffffffffffffffff16908060010160009054906101000a900473ffffffffffffffffffffffffffffffffffffffff16908060020154908060030154908060040154908060050154908060090154905087565b6001600254146104e0576040517f08c379a00000000000000000000000000000000000000000000000000000000081526004016104d790612a31565b60405180910390fd5b600280819055506000600560008481526020019081526020016000209050600081600a018054905011610548576040517f08c379a000000000000000000000000000000000000000000000000000000000815260040161053f90612a9d565b60405180910390fd5b80600b0160008373ffffffffffffffffffffffffffffffffffffffff1673ffffffffffffffffffffffffffffffffffffffff16815260200190815260200160002060009054906101000a900460ff16156105d7576040517f08c379a00000000000000000000000000000000000000000000000000000000081526004016105ce90612b09565b60405180910390fd5b8060070160008373ffffffffffffffffffffffffffffffffffffffff1673ffffffffffffffffffffffffffffffffffffffff16815260200190815260200160002060009054906101000a900460ff16610665576040517f08c379a000000000000000000000000000000000000000000000000000000000815260040161065c90612b75565b60405180910390fd5b60005b8160030154811015610837578273ffffffffffffffffffffffffffffffffffffffff1682600a0182815481106106a1576106a0612b95565b5b9060005260206000200160009054906101000a900473ffffffffffffffffffffffffffffffffffffffff1673ffffffffffffffffffffffffffffffffffffffff160361082457600182600b0160008573ffffffffffffffffffffffffffffffffffffffff1673ffffffffffffffffffffffffffffffffffffffff16815260200190815260200160002060006101000a81548160ff0219169083151502179055508273ffffffffffffffffffffffffffffffffffffffff16847f6653a45d3871e4110fa55dac0269f9f93a6d9078d402f7153594e50573d7f0cd60405160405180910390a38160010160009054906101000a900473ffffffffffffffffffffffffffffffffffffffff1673ffffffffffffffffffffffffffffffffffffffff1663731133e984846002015460016040518463ffffffff1660e01b81526004016107eb93929190612c36565b600060405180830381600087803b15801561080557600080fd5b505af1158015610819573d6000803e3d6000fd5b505050505050610964565b808061082f90612caf565b915050610668565b5060008160040154111561096257600181600b0160008473ffffffffffffffffffffffffffffffffffffffff1673ffffffffffffffffffffffffffffffffffffffff16815260200190815260200160002060006101000a81548160ff0219169083151502179055508173ffffffffffffffffffffffffffffffffffffffff16837f6653a45d3871e4110fa55dac0269f9f93a6d9078d402f7153594e50573d7f0cd60405160405180910390a360008273ffffffffffffffffffffffffffffffffffffffff166108fc83600401549081150290604051600060405180830381858888f19350505050905080610960576040517f08c379a000000000000000000000000000000000000000000000000000000000815260040161095790612d43565b60405180910390fd5b505b505b60016002819055505050565b61099e336000357fffffffff00000000000000000000000000000000000000000000000000000000166123e5565b6109dd576040517f08c379a00000000000000000000000000000000000000000000000000000000081526004016109d490612daf565b60405180910390fd5b60008311610a20576040517f08c379a0000000000000000000000000000000000000000000000000000000008152600401610a1790612e41565b60405180910390fd5b428111610a62576040517f08c379a0000000000000000000000000000000000000000000000000000000008152600401610a5990612ed3565b60405180910390fd5b6000868686868686604051602001610a7f96959493929190612f5c565b60405160208183030381529060405280519060200120905060006005600083815260200190815260200160002090506000816005015414610af5576040517f08c379a0000000000000000000000000000000000000000000000000000000008152600401610aec90613018565b60405180910390fd5b878160000160006101000a81548173ffffffffffffffffffffffffffffffffffffffff021916908373ffffffffffffffffffffffffffffffffffffffff160217905550868160010160006101000a81548173ffffffffffffffffffffffffffffffffffffffff021916908373ffffffffffffffffffffffffffffffffffffffff160217905550858160020181905550848160030181905550838160040181905550828160050181905550817fd1d63ca2d9652ed1270a8d496cc69d3fe3515f37f20ac4fcee0ed185e8bf8727898989898989604051610bd996959493929190613038565b60405180910390a25050505050505050565b60066020528060005260406000206000915090505481565b610c31336000357fffffffff00000000000000000000000000000000000000000000000000000000166123e5565b610c70576040517f08c379a0000000000000000000000000000000000000000000000000000000008152600401610c6790612daf565b60405180910390fd5b600160025414610cb5576040517f08c379a0000000000000000000000000000000000000000000000000000000008152600401610cac90612a31565b60405180910390fd5b60028081905550806003541015610d01576040517f08c379a0000000000000000000000000000000000000000000000000000000008152600401610cf8906130e5565b60405180910390fd5b8060036000828254610d139190613105565b92505081905550600460009054906101000a900473ffffffffffffffffffffffffffffffffffffffff1673ffffffffffffffffffffffffffffffffffffffff16634ffd2e4382306040518363ffffffff1660e01b8152600401610d769190612856565b6000604051808303818588803b158015610d8f57600080fd5b505af1158015610da3573d6000803e3d6000fd5b5050505050600160028190555050565b60035481565b60008054906101000a900473ffffffffffffffffffffffffffffffffffffffff1673ffffffffffffffffffffffffffffffffffffffff163373ffffffffffffffffffffffffffffffffffffffff161480610ed35750600160009054906101000a900473ffffffffffffffffffffffffffffffffffffffff1673ffffffffffffffffffffffffffffffffffffffff1663b700961333306000357fffffffff00000000000000000000000000000000000000000000000000000000166040518463ffffffff1660e01b8152600401610e9193929190613174565b602060405180830381865afa158015610eae573d6000803e3d6000fd5b505050506040513d601f19601f82011682018060405250810190610ed291906131e3565b5b610edc57600080fd5b80600160006101000a81548173ffffffffffffffffffffffffffffffffffffffff021916908373ffffffffffffffffffffffffffffffffffffffff1602179055508073ffffffffffffffffffffffffffffffffffffffff163373ffffffffffffffffffffffffffffffffffffffff167fa3396fd7f6e0a21b50e5089d2da70d5ac0a3bbbd1f617a93f134b7638998019860405160405180910390a350565b600160025414610fbf576040517f08c379a0000000000000000000000000000000000000000000000000000000008152600401610fb690612a31565b60405180910390fd5b600280819055506000600560008381526020019081526020016000209050600081600a018054905011611027576040517f08c379a000000000000000000000000000000000000000000000000000000000815260040161101e90612a9d565b60405180910390fd5b60005b816003015481101561122057600082600a01828154811061104e5761104d612b95565b5b9060005260206000200160009054906101000a900473ffffffffffffffffffffffffffffffffffffffff16905082600b0160008273ffffffffffffffffffffffffffffffffffffffff1673ffffffffffffffffffffffffffffffffffffffff16815260200190815260200160002060009054906101000a900460ff16156110d5575061120d565b600183600b0160008373ffffffffffffffffffffffffffffffffffffffff1673ffffffffffffffffffffffffffffffffffffffff16815260200190815260200160002060006101000a81548160ff0219169083151502179055508073ffffffffffffffffffffffffffffffffffffffff16847f6653a45d3871e4110fa55dac0269f9f93a6d9078d402f7153594e50573d7f0cd60405160405180910390a38260010160009054906101000a900473ffffffffffffffffffffffffffffffffffffffff1673ffffffffffffffffffffffffffffffffffffffff1663731133e982856002015460016040518463ffffffff1660e01b81526004016111d993929190612c36565b600060405180830381600087803b1580156111f357600080fd5b505af1158015611207573d6000803e3d6000fd5b50505050505b808061121890612caf565b91505061102a565b5050600160028190555050565b60008054906101000a900473ffffffffffffffffffffffffffffffffffffffff1681565b61127f336000357fffffffff00000000000000000000000000000000000000000000000000000000166123e5565b6112be576040517f08c379a00000000000000000000000000000000000000000000000000000000081526004016112b590612daf565b60405180910390fd5b600160025414611303576040517f08c379a00000000000000000000000000000000000000000000000000000000081526004016112fa90612a31565b60405180910390fd5b6002808190555080600354101561134f576040517f08c379a0000000000000000000000000000000000000000000000000000000008152600401611346906130e5565b60405180910390fd5b80600360008282546113619190613105565b9250508190555060003373ffffffffffffffffffffffffffffffffffffffff166108fc839081150290604051600060405180830381858888f193505050509050806113e1576040517f08c379a00000000000000000000000000000000000000000000000000000000081526004016113d89061325c565b60405180910390fd5b50600160028190555050565b600160009054906101000a900473ffffffffffffffffffffffffffffffffffffffff1681565b611441336000357fffffffff00000000000000000000000000000000000000000000000000000000166123e5565b611480576040517f08c379a000000000000000000000000000000000000000000000000000000000815260040161147790612daf565b60405180910390fd5b6001600254146114c5576040517f08c379a00000000000000000000000000000000000000000000000000000000081526004016114bc90612a31565b60405180910390fd5b6002808190555080600360008282546114de919061327c565b92505081905550600460009054906101000a900473ffffffffffffffffffffffffffffffffffffffff1673ffffffffffffffffffffffffffffffffffffffff16632465f8f530836040518363ffffffff1660e01b81526004016115429291906132b0565b600060405180830381600087803b15801561155c57600080fd5b505af1158015611570573d6000803e3d6000fd5b50505050600160028190555050565b6001600254146115c4576040517f08c379a00000000000000000000000000000000000000000000000000000000081526004016115bb90612a31565b60405180910390fd5b6002808190555060006005600083815260200190815260200160002090506000816005015403611629576040517f08c379a000000000000000000000000000000000000000000000000000000000815260040161162090613325565b60405180910390fd5b8060050154421015611670576040517f08c379a000000000000000000000000000000000000000000000000000000000815260040161166790613391565b60405180910390fd5b60008160090154146116b7576040517f08c379a00000000000000000000000000000000000000000000000000000000081526004016116ae906133fd565b60405180910390fd5b600460009054906101000a900473ffffffffffffffffffffffffffffffffffffffff1673ffffffffffffffffffffffffffffffffffffffff1663d845a4b361c3506040518263ffffffff1660e01b81526004016117149190613458565b6020604051808303816000875af1158015611733573d6000803e3d6000fd5b505050506040513d601f19601f820116820180604052508101906117579190613488565b81600901819055508160066000836009015481526020019081526020016000208190555050600160028190555050565b600060056000848152602001908152602001600020905060008160050154036117e5576040517f08c379a00000000000000000000000000000000000000000000000000000000081526004016117dc90613325565b60405180910390fd5b8060050154421061182b576040517f08c379a000000000000000000000000000000000000000000000000000000000815260040161182290613501565b60405180910390fd5b34816004015414611871576040517f08c379a0000000000000000000000000000000000000000000000000000000008152600401611868906135b9565b60405180910390fd5b8060070160003373ffffffffffffffffffffffffffffffffffffffff1673ffffffffffffffffffffffffffffffffffffffff16815260200190815260200160002060009054906101000a900460ff1615611900576040517f08c379a00000000000000000000000000000000000000000000000000000000081526004016118f79061364b565b60405180910390fd5b3373ffffffffffffffffffffffffffffffffffffffff168160000160009054906101000a900473ffffffffffffffffffffffffffffffffffffffff1673ffffffffffffffffffffffffffffffffffffffff16636352211e846040518263ffffffff1660e01b815260040161197491906127d0565b602060405180830381865afa158015611991573d6000803e3d6000fd5b505050506040513d601f19601f820116820180604052508101906119b59190613680565b73ffffffffffffffffffffffffffffffffffffffff1614611a0b576040517f08c379a0000000000000000000000000000000000000000000000000000000008152600401611a02906136f9565b60405180910390fd5b80600801600083815260200190815260200160002060009054906101000a900460ff1615611a6e576040517f08c379a0000000000000000000000000000000000000000000000000000000008152600401611a659061378b565b60405180910390fd5b80600601339080600181540180825580915050600190039060005260206000200160009091909190916101000a81548173ffffffffffffffffffffffffffffffffffffffff021916908373ffffffffffffffffffffffffffffffffffffffff16021790555060018160070160003373ffffffffffffffffffffffffffffffffffffffff1673ffffffffffffffffffffffffffffffffffffffff16815260200190815260200160002060006101000a81548160ff021916908315150217905550600181600801600084815260200190815260200160002060006101000a81548160ff0219169083151502179055503373ffffffffffffffffffffffffffffffffffffffff16837f610be20f88ad2726dbaabfa843e556e8d9f6f1b6a98a2894dc8d7ac215355a6484604051611ba291906127d0565b60405180910390a3505050565b600160025414611bf4576040517f08c379a0000000000000000000000000000000000000000000000000000000008152600401611beb90612a31565b60405180910390fd5b60028081905550600460009054906101000a900473ffffffffffffffffffffffffffffffffffffffff1673ffffffffffffffffffffffffffffffffffffffff163373ffffffffffffffffffffffffffffffffffffffff1614611c8b576040517f08c379a0000000000000000000000000000000000000000000000000000000008152600401611c82906137f7565b60405180910390fd5b600060066000848152602001908152602001600020549050600060056000838152602001908152602001600020905083816009015414611d00576040517f08c379a0000000000000000000000000000000000000000000000000000000008152600401611cf790613863565b60405180910390fd5b60008360001c905060005b8260030154811015611f3257600081828560060180549050611d2d9190613105565b8484604051602001611d40929190613883565b6040516020818303038152906040528051906020012060001c611d6391906138de565b611d6d919061327c565b90506000846006018281548110611d8757611d86612b95565b5b9060005260206000200160009054906101000a900473ffffffffffffffffffffffffffffffffffffffff16905084600a01819080600181540180825580915050600190039060005260206000200160009091909190916101000a81548173ffffffffffffffffffffffffffffffffffffffff021916908373ffffffffffffffffffffffffffffffffffffffff1602179055506000856006018481548110611e3157611e30612b95565b5b9060005260206000200160009054906101000a900473ffffffffffffffffffffffffffffffffffffffff16905081866006018581548110611e7557611e74612b95565b5b9060005260206000200160006101000a81548173ffffffffffffffffffffffffffffffffffffffff021916908373ffffffffffffffffffffffffffffffffffffffff16021790555080866006018481548110611ed457611ed3612b95565b5b9060005260206000200160006101000a81548173ffffffffffffffffffffffffffffffffffffffff021916908373ffffffffffffffffffffffffffffffffffffffff1602179055505050508080611f2a90612caf565b915050611d0b565b5081600301548260040154611f47919061390f565b60036000828254611f58919061327c565b9250508190555050505060016002819055505050565b600460009054906101000a900473ffffffffffffffffffffffffffffffffffffffff1681565b611fc2336000357fffffffff00000000000000000000000000000000000000000000000000000000166123e5565b612001576040517f08c379a0000000000000000000000000000000000000000000000000000000008152600401611ff890612daf565b60405180910390fd5b806000806101000a81548173ffffffffffffffffffffffffffffffffffffffff021916908373ffffffffffffffffffffffffffffffffffffffff1602179055508073ffffffffffffffffffffffffffffffffffffffff163373ffffffffffffffffffffffffffffffffffffffff167f8be0079c531659141344cd1fd0a4f28419497f9722a3daafe3b4186f6b6457e060405160405180910390a350565b6001600254146120e3576040517f08c379a00000000000000000000000000000000000000000000000000000000081526004016120da90612a31565b60405180910390fd5b6002808190555060006005600084815260200190815260200160002090506000816005015403612148576040517f08c379a000000000000000000000000000000000000000000000000000000000815260040161213f90613325565b60405180910390fd5b62278d00816005015461215b919061327c565b421161219c576040517f08c379a0000000000000000000000000000000000000000000000000000000008152600401612193906139c3565b60405180910390fd5b60008160040154116121e3576040517f08c379a00000000000000000000000000000000000000000000000000000000081526004016121da90613a2f565b60405180910390fd5b8060070160008373ffffffffffffffffffffffffffffffffffffffff1673ffffffffffffffffffffffffffffffffffffffff16815260200190815260200160002060009054906101000a900460ff16612271576040517f08c379a000000000000000000000000000000000000000000000000000000000815260040161226890612b75565b60405180910390fd5b80600b0160008373ffffffffffffffffffffffffffffffffffffffff1673ffffffffffffffffffffffffffffffffffffffff16815260200190815260200160002060009054906101000a900460ff1615612300576040517f08c379a00000000000000000000000000000000000000000000000000000000081526004016122f790612b09565b60405180910390fd5b600181600b0160008473ffffffffffffffffffffffffffffffffffffffff1673ffffffffffffffffffffffffffffffffffffffff16815260200190815260200160002060006101000a81548160ff02191690831515021790555060008273ffffffffffffffffffffffffffffffffffffffff166108fc83600401549081150290604051600060405180830381858888f193505050509050806123d7576040517f08c379a00000000000000000000000000000000000000000000000000000000081526004016123ce90612d43565b60405180910390fd5b505060016002819055505050565b600080600160009054906101000a900473ffffffffffffffffffffffffffffffffffffffff169050600073ffffffffffffffffffffffffffffffffffffffff168173ffffffffffffffffffffffffffffffffffffffff16141580156124c457508073ffffffffffffffffffffffffffffffffffffffff1663b70096138530866040518463ffffffff1660e01b815260040161248293929190613174565b602060405180830381865afa15801561249f573d6000803e3d6000fd5b505050506040513d601f19601f820116820180604052508101906124c391906131e3565b5b8061251a575060008054906101000a900473ffffffffffffffffffffffffffffffffffffffff1673ffffffffffffffffffffffffffffffffffffffff168473ffffffffffffffffffffffffffffffffffffffff16145b91505092915050565b600080fd5b6000819050919050565b61253b81612528565b811461254657600080fd5b50565b60008135905061255881612532565b92915050565b60006020828403121561257457612573612523565b5b600061258284828501612549565b91505092915050565b600073ffffffffffffffffffffffffffffffffffffffff82169050919050565b60006125b68261258b565b9050919050565b6125c6816125ab565b82525050565b6000819050919050565b6125df816125cc565b82525050565b600060e0820190506125fa600083018a6125bd565b61260760208301896125bd565b61261460408301886125d6565b61262160608301876125d6565b61262e60808301866125d6565b61263b60a08301856125d6565b61264860c08301846125d6565b98975050505050505050565b61265d816125ab565b811461266857600080fd5b50565b60008135905061267a81612654565b92915050565b6000806040838503121561269757612696612523565b5b60006126a585828601612549565b92505060206126b68582860161266b565b9150509250929050565b6126c9816125cc565b81146126d457600080fd5b50565b6000813590506126e6816126c0565b92915050565b60008060008060008060c0878903121561270957612708612523565b5b600061271789828a0161266b565b965050602061272889828a0161266b565b955050604061273989828a016126d7565b945050606061274a89828a016126d7565b935050608061275b89828a016126d7565b92505060a061276c89828a016126d7565b9150509295509295509295565b60006020828403121561278f5761278e612523565b5b600061279d848285016126d7565b91505092915050565b6127af81612528565b82525050565b60006020820190506127ca60008301846127a6565b92915050565b60006020820190506127e560008301846125d6565b92915050565b60006127f6826125ab565b9050919050565b612806816127eb565b811461281157600080fd5b50565b600081359050612823816127fd565b92915050565b60006020828403121561283f5761283e612523565b5b600061284d84828501612814565b91505092915050565b600060208201905061286b60008301846125bd565b92915050565b6000819050919050565b600061289661289161288c8461258b565b612871565b61258b565b9050919050565b60006128a88261287b565b9050919050565b60006128ba8261289d565b9050919050565b6128ca816128af565b82525050565b60006020820190506128e560008301846128c1565b92915050565b6000806040838503121561290257612901612523565b5b600061291085828601612549565b9250506020612921858286016126d7565b9150509250929050565b6000806040838503121561294257612941612523565b5b6000612950858286016126d7565b925050602061296185828601612549565b9150509250929050565b60006129768261289d565b9050919050565b6129868161296b565b82525050565b60006020820190506129a1600083018461297d565b92915050565b6000602082840312156129bd576129bc612523565b5b60006129cb8482850161266b565b91505092915050565b600082825260208201905092915050565b7f5245454e5452414e435900000000000000000000000000000000000000000000600082015250565b6000612a1b600a836129d4565b9150612a26826129e5565b602082019050919050565b60006020820190508181036000830152612a4a81612a0e565b9050919050565b7f4e6f2077696e6e65727320796574000000000000000000000000000000000000600082015250565b6000612a87600e836129d4565b9150612a9282612a51565b602082019050919050565b60006020820190508181036000830152612ab681612a7a565b9050919050565b7f416c72656164792077697468647261776e2e0000000000000000000000000000600082015250565b6000612af36012836129d4565b9150612afe82612abd565b602082019050919050565b60006020820190508181036000830152612b2281612ae6565b9050919050565b7f7061727469636970616e74206e6f7420696e20746869732073616c652e000000600082015250565b6000612b5f601d836129d4565b9150612b6a82612b29565b602082019050919050565b60006020820190508181036000830152612b8e81612b52565b9050919050565b7f4e487b7100000000000000000000000000000000000000000000000000000000600052603260045260246000fd5b6000819050919050565b6000612be9612be4612bdf84612bc4565b612871565b6125cc565b9050919050565b612bf981612bce565b82525050565b600082825260208201905092915050565b50565b6000612c20600083612bff565b9150612c2b82612c10565b600082019050919050565b6000608082019050612c4b60008301866125bd565b612c5860208301856125d6565b612c656040830184612bf0565b8181036060830152612c7681612c13565b9050949350505050565b7f4e487b7100000000000000000000000000000000000000000000000000000000600052601160045260246000fd5b6000612cba826125cc565b91507fffffffffffffffffffffffffffffffffffffffffffffffffffffffffffffffff8203612cec57612ceb612c80565b5b600182019050919050565b7f4661696c656420746f2073656e6420726566756e640000000000000000000000600082015250565b6000612d2d6015836129d4565b9150612d3882612cf7565b602082019050919050565b60006020820190508181036000830152612d5c81612d20565b9050919050565b7f554e415554484f52495a45440000000000000000000000000000000000000000600082015250565b6000612d99600c836129d4565b9150612da482612d63565b602082019050919050565b60006020820190508181036000830152612dc881612d8c565b9050919050565b7f53616c6520737570706c79206d7573742062652067726561746572207468616e60008201527f207a65726f2e0000000000000000000000000000000000000000000000000000602082015250565b6000612e2b6026836129d4565b9150612e3682612dcf565b604082019050919050565b60006020820190508181036000830152612e5a81612e1e565b9050919050565b7f53616c6520656e642074696d65206d75737420626520696e207468652066757460008201527f7572652e00000000000000000000000000000000000000000000000000000000602082015250565b6000612ebd6024836129d4565b9150612ec882612e61565b604082019050919050565b60006020820190508181036000830152612eec81612eb0565b9050919050565b60008160601b9050919050565b6000612f0b82612ef3565b9050919050565b6000612f1d82612f00565b9050919050565b612f35612f30826125ab565b612f12565b82525050565b6000819050919050565b612f56612f51826125cc565b612f3b565b82525050565b6000612f688289612f24565b601482019150612f788288612f24565b601482019150612f888287612f45565b602082019150612f988286612f45565b602082019150612fa88285612f45565b602082019150612fb88284612f45565b602082019150819050979650505050505050565b7f53616c6520616c7265616479206578697374732e000000000000000000000000600082015250565b60006130026014836129d4565b915061300d82612fcc565b602082019050919050565b6000602082019050818103600083015261303181612ff5565b9050919050565b600060c08201905061304d60008301896125bd565b61305a60208301886125bd565b61306760408301876125d6565b61307460608301866125d6565b61308160808301856125d6565b61308e60a08301846125d6565b979650505050505050565b7f496e73756666696369656e742072657365727665730000000000000000000000600082015250565b60006130cf6015836129d4565b91506130da82613099565b602082019050919050565b600060208201905081810360008301526130fe816130c2565b9050919050565b6000613110826125cc565b915061311b836125cc565b925082820390508181111561313357613132612c80565b5b92915050565b60007fffffffff0000000000000000000000000000000000000000000000000000000082169050919050565b61316e81613139565b82525050565b600060608201905061318960008301866125bd565b61319660208301856125bd565b6131a36040830184613165565b949350505050565b60008115159050919050565b6131c0816131ab565b81146131cb57600080fd5b50565b6000815190506131dd816131b7565b92915050565b6000602082840312156131f9576131f8612523565b5b6000613207848285016131ce565b91505092915050565b7f4661696c656420746f2073656e64207377656570000000000000000000000000600082015250565b60006132466014836129d4565b915061325182613210565b602082019050919050565b6000602082019050818103600083015261327581613239565b9050919050565b6000613287826125cc565b9150613292836125cc565b92508282019050808211156132aa576132a9612c80565b5b92915050565b60006040820190506132c560008301856125bd565b6132d260208301846125d6565b9392505050565b7f53616c6520646f6573206e6f742065786973742e000000000000000000000000600082015250565b600061330f6014836129d4565b915061331a826132d9565b602082019050919050565b6000602082019050818103600083015261333e81613302565b9050919050565b7f53616c6520686173206e6f7420656e6465642e00000000000000000000000000600082015250565b600061337b6013836129d4565b915061338682613345565b602082019050919050565b600060208201905081810360008301526133aa8161336e565b9050919050565b7f416c7265616479207265717565737465642072616e646f6d206e75626d657200600082015250565b60006133e7601f836129d4565b91506133f2826133b1565b602082019050919050565b60006020820190508181036000830152613416816133da565b9050919050565b6000819050919050565b600061344261343d6134388461341d565b612871565b6125cc565b9050919050565b61345281613427565b82525050565b600060208201905061346d6000830184613449565b92915050565b600081519050613482816126c0565b92915050565b60006020828403121561349e5761349d612523565b5b60006134ac84828501613473565b91505092915050565b7f53616c652068617320656e6465642e0000000000000000000000000000000000600082015250565b60006134eb600f836129d4565b91506134f6826134b5565b602082019050919050565b6000602082019050818103600083015261351a816134de565b9050919050565b7f496e636f7272656374206465706f73697420616d6f756e742e20506c6561736560008201527f2070726f766964652074686520636f7272656374206465706f73697420616d6f60208201527f756e742e00000000000000000000000000000000000000000000000000000000604082015250565b60006135a36044836129d4565b91506135ae82613521565b606082019050919050565b600060208201905081810360008301526135d281613596565b9050919050565b7f596f75206861766520616c72656164792070617274696369706174656420696e60008201527f20746869732073616c652e000000000000000000000000000000000000000000602082015250565b6000613635602b836129d4565b9150613640826135d9565b604082019050919050565b6000602082019050818103600083015261366481613628565b9050919050565b60008151905061367a81612654565b92915050565b60006020828403121561369657613695612523565b5b60006136a48482850161366b565b91505092915050565b7f596f7520646f206e6f74206f776e20746865206d61726b656420746f6b656e2e600082015250565b60006136e36020836129d4565b91506136ee826136ad565b602082019050919050565b60006020820190508181036000830152613712816136d6565b9050919050565b7f4d61726b656420746f6b656e2068617320616c7265616479206265656e20757360008201527f656420746f20706172746963697061746520696e20746869732073616c652e00602082015250565b6000613775603f836129d4565b915061378082613719565b604082019050919050565b600060208201905081810360008301526137a481613768565b9050919050565b7f43616c6c6572206e6f742052616e646f6d697a65720000000000000000000000600082015250565b60006137e16015836129d4565b91506137ec826137ab565b602082019050919050565b60006020820190508181036000830152613810816137d4565b9050919050565b7f496e76616c69642072616e646f6d697a65722069640000000000000000000000600082015250565b600061384d6015836129d4565b915061385882613817565b602082019050919050565b6000602082019050818103600083015261387c81613840565b9050919050565b600061388f8285612f45565b60208201915061389f8284612f45565b6020820191508190509392505050565b7f4e487b7100000000000000000000000000000000000000000000000000000000600052601260045260246000fd5b60006138e9826125cc565b91506138f4836125cc565b925082613904576139036138af565b5b828206905092915050565b600061391a826125cc565b9150613925836125cc565b9250828202613933816125cc565b9150828204841483151761394a57613949612c80565b5b5092915050565b7f5769746864726177616c20706572696f6420686173206e6f742079657420737460008201527f61727465642e0000000000000000000000000000000000000000000000000000602082015250565b60006139ad6026836129d4565b91506139b882613951565b604082019050919050565b600060208201905081810360008301526139dc816139a0565b9050919050565b7f53616c6520646964206e6f7420726571756972652061206465706f7369742e00600082015250565b6000613a19601f836129d4565b9150613a24826139e3565b602082019050919050565b60006020820190508181036000830152613a4881613a0c565b905091905056fea264697066735822122029379c684b3495d4fa67ef9d54d8a15b13cf6820ed39e0cc3da20a3d6b91fd6e64736f6c63430008110033",
  "linkReferences": {},
  "deployedLinkReferences": {}
}